:020000040800F2
:10000000F0C80120D5030008C14A0008CD3C000813
:10001000BF4A0008D5300008F9540008000000006D
:1000200000000000000000000000000015030008B0
:10003000853300080000000071030008B94E000875
:10004000EF030008EF030008EF030008EF030008C8
:10005000EF030008EF030008EF030008EF030008B8
:10006000EF030008EF030008EF030008EF030008A8
:10007000EF030008EF030008EF030008EF03000898
:10008000EF030008EF030008EF030008EF03000888
:10009000EF030008EF030008EF030008EF03000878
:1000A000EF030008EF030008EF030008EF03000868
:1000B000EF030008EF030008EF030008EF03000858
:1000C000EF030008EF030008EF030008EF03000848
:1000D000EF030008EF0300085552000861520008C2
:1000E0006D3B0008EF030008EF030008EF03000872
:1000F000EF030008EF030008EF030008EF03000818
:10010000EF030008EF030008EF030008EF03000807
:10011000EF030008EF030008294F0008EF03000871
:10012000EF030008EF030008EF030008EF030008E7
:10013000EF0300081D350008EF030008EF03000877
:10014000EF030008EF030008EF030008EF030008C7
:10015000EF030008EF030008EF030008EF030008B7
:10016000EF030008EF030008EF030008EF030008A7
:10017000EF030008EF030008EF030008EF03000897
:10018000EF030008EF03000800F002F800F0B2F8F7
:100190000AA090E8000C82448344AAF10107DA45E2
:1001A00001D100F0A7F8AFF2090EBAE80F0013F082
:1001B000010F18BFFB1A43F001031847AC8B010075
:1001C000CC8B01000A444FF0000C10F8013B13F0F7
:1001D000070408BF10F8014B1D1108BF10F8015BA0
:1001E000641E05D010F8016B641E01F8016BF9D193
:1001F00013F0080F1EBF10F8014BAD1C0C1B09D1EA
:100200006D1E58BF01F801CBFAD505E014F8016B5B
:1002100001F8016B6D1EF9D59142D6D370470000ED
:100220000023002400250026103A28BF78C1FBD8FF
:10023000520728BF30C148BF0B6070476E2900F0DD
:100240006085702900F01782662918F052816529AF
:1002500018F04F81672918F04C81612918F04B8103
:1002600003681B0A28BF41F08001692900F08881DA
:10027000642900F08581752900F082816F2901F0E1
:100280006E80782900F0E381E92901F00980E429F2
:1002900001F00680F52901F00380EF2901F06B8061
:1002A000F82900F0E2810368DB0928BF41F08001F2
:1002B000632900F07887732900F07D87E32901F036
:1002C0008785F32901F08C85002070471FB518F051
:1002D00003F901F063FB04000020002117F0AEFEDB
:1002E000401C60600020002117F0BEFEE0601FBDD2
:1002F00010B510BD01F0C8FF1146FFF7E7FF0CF085
:1003000079FF00F0A5FA03B4FFF7F2FF03BC05F094
:100310009DFB00002C4B19680868B0E8F04F80F393
:100320000988BFF36F8F4FF0000080F3118870478A
:100330000000000008480068006880F308884FF05B
:10034000000080F3148862B661B6BFF34F8FBFF32D
:100350006F8F00DF00BF00BF08ED00E0DFF80C008A
:10036000016841F470010160704700BF88ED00E052
:10037000EFF30980BFF36F8F134B1A681EF0100F55
:1003800008BF20ED108A20E9F04F106009B44FF04B
:10039000500080F31188BFF34F8FBFF36F8F16F0BB
:1003A0009DFF4FF0000080F3118809BC19680868B0
:1003B000B0E8F04F1EF0100F08BFB0EC108A80F3C9
:1003C0000988BFF36F8F7047D0000020EFF30580DE
:1003D000704700000948804709480047FEE7FEE7EC
:1003E000FEE7FEE7FEE7FEE7FEE7FEE7FEE7FEE7E5
:1003F00004480549054A064B70470000CD4E0008E9
:1004000089010008F0C20120F0C80120F0C40120D9
:10041000F0C40120704710B5044600F0FBFB0068F3
:10042000005DC00602D504F1200010BD204610BDBD
:100430007CB51D4616460C00009001D02044401E9D
:10044000074B7B442A4669460190304600F081FE06
:1004500005461CB10020694600F08EFE28467CBD92
:100460003D0D00000FB4044910B503AA029800F036
:10047000A7FE10BC5DF814FBA00000200FB41CB553
:10048000084B06AA7B4469460090059800F061FE7F
:1004900004460020694600F06FFE20461CBC5DF853
:1004A00014FB0000F10C00000FB47CB50C0009AA8D
:1004B000009001D02044401E084B7B4469460190C7
:1004C000089800F046FE05461CB10020694600F081
:1004D00053FE28467CBC5DF814FB0000C50C0000F0
:1004E00070B5044685690068C10601D5302600E074
:1004F0002026C00707D070BDD4E9012130469047BF
:10050000206A401C20626D1EF6D570BD70B5044691
:1005100085690078C00707D170BDD4E9012120208A
:100520009047206A401C20626D1EF6D570BD70B5E4
:100530000C460546012A05D02878800600D5EA69D0
:10054000002302E0012305E05B1C934202D2E05C41
:100550000028F9D1A869E618C01AA861286A1844C9
:1005600028622846FFF7BCFF04E0D5E9012114F812
:10057000010B9047B442F8D32846FFF7C7FF70BD80
:100580002DE9F0410646002410687529314616A56C
:1005900010D000F04BFB002802DA404213A507E020
:1005A00031688A0701D512A502E0490704D511A5D3
:1005B000012401E000F043FB00210A2206F1240798
:1005C00009E0B0FBF2FCB0FBF2F302FB1C003030A0
:1005D00078541846491C0028F3D123462A46304651
:1005E000BDE8F04100F034BB000000002D00000029
:1005F0002B00000020000000F0B40D460188090522
:1006000002D5214C7C4402E01F4C7C440E34002176
:1006100000F1240608E002F00F071209E75D42EA44
:1006200003721B097754491C52EA0307F3D102787D
:100630000023120704D5702D06D009B1022311340E
:100640002246F0BC00F004BB01231034F8E770B57B
:1006500004460D462146106800F0F1FA024629468C
:100660002046BDE870400023C6E7D21D22F00703F4
:10067000D3E90023C0E70368126843F02003036056
:100680000823C3610023B7E77B8401002DE9F05FF5
:10069000894604464FF0000ADFF874B1FB44C0F805
:1006A00020A02046E1688847002874D0252806D07D
:1006B000D4E901219047206A401C2062F1E700261E
:1006C0005F462046E16888472028054607DB312D34
:1006D00005D2781910F8200C08B10643F1E7B007ED
:1006E00001D526F00406C4F81CA00027C4F818A001
:1006F0002A2D09D0284605F0A2F938B304EB870863
:10070000303DC8F8185019E059F8041B204604EB96
:1007100087029161E1688847012F054618D1E06999
:10072000002820DA26F020061DE0D8F8180000EB9B
:10073000800005EB40003038C8F818002046E1681A
:100740008847054605F07BF90028EED1012F0AD035
:100750002E2D08D12046E16888477F1C0546022FD0
:1007600046F02006C4DBA069002803DA404246F0C8
:100770000106A061F00701D026F010066C2D0BD009
:10078000682D09D04C2D39D06A2D35D0742D35D037
:100790007A2D33D016E038E0E1682F4620468847AE
:1007A000B842054609D16C2F26D04FF48060E1682D
:1007B000064320468847054604E06C2F1AD04FF4C4
:1007C000807006430DB3A5F14100192802D82035E9
:1007D00046F400664A462946204626604E46FFF704
:1007E0002DFD80B101280BD0F61D26F0070000F189
:1007F000080956E74020E4E78020D8E70020D6E744
:1008000006F104094DE7284652E7206ABDE8F09F4B
:100810000B8401000FB400B58DB010A909900091B0
:100820000B904FF0FF300A9000200C90064878445F
:100830000690064878446A4607900F9909A801F087
:1008400027F80DB05DF814FB7F1000009710000032
:1008500010B50446AFF300802046BDE81040FFF716
:1008600052BD30B505460B462A4613F8014B12F827
:10087000010B08B1A042F8D01CB1002802D06D1CB9
:10088000F1E7284630BD40EA010310B59B070FD1C0
:10089000042A0DD310C808C9121F9C42F8D020BAF0
:1008A00019BA884201D9012010BD4FF0FF3010BDA8
:1008B0001AB1D30703D0521C07E0002010BD10F876
:1008C000013B11F8014B1B1B07D110F8013B11F83C
:1008D000014B1B1B01D1921EF1D1184610BD40EAFD
:1008E0000103024630B59B0710D14FF0013400E000
:1008F00008C208C91D1B9D4315EAC41FF8D013F098
:10090000FF0102F8011B0DD01B0AF8E711F8013BAB
:10091000002B02F8013B05D011F8013B002B02F837
:10092000013BF3D130BD10B5431C02E010F8011BB0
:1009300071B18107FAD14FF0013202C88C1A8C4391
:1009400014EAC211F9D0C01A0A0603D0C01E10BDA5
:10095000C01A10BD0A0401D0801E10BD0902FCD0CF
:10096000401E10BD40EA010370B59B072ED14FF029
:100970000136042A2AD308C810C99D1B9D43121FA3
:1009800015EAC61517D0D8B2E1B2401A50EA05618F
:1009900010D198B2A1B2401A50EA05410AD123F011
:1009A0007F4024F07F41401A50EA052102D1180E01
:1009B000A0EB146070BDA342DBD018BA21BA884204
:1009C00001D9012070BD4FF0FF3070BD0AB9002081
:1009D00070BD10F8013B11F8014B63B1A3420AD17D
:1009E000521E08D010F8013B11F8014B1BB1A34275
:1009F00001D1521EEDD1181B70BD032A40F2308088
:100A000010F0030C00F0158011F8013BBCF1020F4F
:100A1000624498BF11F801CB00F8013B38BF11F8D0
:100A2000013BA2F1040298BF00F801CB38BF00F8E7
:100A3000013B11F0030300F02580083AC0F0088064
:100A400051F8043B083A51F804CBA0E80810F5E748
:100A5000121D5CBF51F8043B40F8043BAFF300802B
:100A6000D20724BF11F8013B11F801CB48BF11F8A0
:100A7000012B24BF00F8013B00F801CB48BF00F870
:100A8000012B704710B5203AC0F00B80B1E8185028
:100A9000203AA0E81850B1E81850A0E81850BFF468
:100AA000F5AF5FEA027C24BFB1E81850A0E8185007
:100AB00044BF18C918C0BDE810405FEA827C24BF5B
:100AC00051F8043B40F8043B08BF7047D20728BFE9
:100AD00031F8023B48BF11F8012B28BF20F8023B38
:100AE00048BF00F8012B704702F0FF0343EA0322DE
:100AF00042EA024200F002B84FF000020429C0F0BE
:100B0000128010F0030C00F01B80CCF1040CBCF13F
:100B1000020F18BF00F8012BA8BF20F8022BA1EB91
:100B20000C0100F00DB85FEAC17C24BF00F8012B76
:100B300000F8012B48BF00F8012B70474FF000026E
:100B400000B5134694469646203922BFA0E80C50C3
:100B5000A0E80C50B1F12001BFF4F7AF090728BF9E
:100B6000A0E80C5048BF0CC05DF804EB890028BF1A
:100B700040F8042B08BF704748BF20F8022B11F043
:100B8000804F18BF00F8012B704700004FF0013C68
:100B900050F8042B51F8043B9A4221D1A2EB0C03EC
:100BA000934313EACC1317D150F8042B51F8043BAC
:100BB0009A4215D1A2EB0C03934313EACC130BD149
:100BC00050F8042B51F8043B9A4209D1A2EB0C03D4
:100BD000934313EACC13DBD04FF00000704700BF03
:100BE000D01A01BAB1FA81F101F0180122FA01F02C
:100BF000CB40C1F12001DBB2C0B2C01A2CFA01F324
:100C0000D11A914311EAC311E6D17047704770477A
:100C10007047704710B500F0C1FE001D10BD00BF49
:100C20001D7401000048704790C2012009684A0500
:100C300001D540B27047C905FCD500B270470968BC
:100C40004A0501D5C0B27047C905FCD580B27047CE
:100C50002DE9F0470D4699469246044600F12408D6
:100C60000168880604D5E06921F01001216000E0E8
:100C70000120A84201DD471B00E00027A1697A1985
:100C800002EB0900081AA0612078C00602D42046B1
:100C9000FFF726FC002608E0D4E901211AF8060037
:100CA0009047206A401C761C20624E45F4DB207879
:100CB000C0060AD52046FFF713FC06E0D4E901215F
:100CC00030209047206A401C2062381EA7F101079F
:100CD000F4DC07E0D4E9012118F805009047206A08
:100CE000401C2062281EA5F10105F3DC2046FFF719
:100CF0000DFC2078000602D50220BDE8F087012017
:100D0000FBE711680268006A530501D508700AE024
:100D1000D30501D5088006E0130603D5C217C1E943
:100D2000000200E008600120704770472DE9FF4F86
:100D30000C461E464FF0FF378BB0D2E90001DDF8BC
:100D400060800A908A46C1F30A5505B93D460021E4
:100D500008464FF00000BAF1000F00F4400005DA39
:100D600000EB80004FF4400101EA50004FEA905937
:100D7000B9F1010F00DDB9460A9850EA4A000ED0D9
:100D800044F61050A5F2FF3545432F14B8F1000F7B
:100D90001ED07542291E1EDDC9F100021CE0B8F10B
:100DA000010F4FF0000001D0302103E0F24305E0D5
:100DB0002154401CB042FBDB30460022002121546C
:100DC0000B99C1F80880C1E900200FB0BDE8F08F91
:100DD000BD1B6D1CDEE74A4600DA694206A801F039
:100DE000BDF906AB93E8070003AB83E80700504664
:100DF0000A9901F0C4FC8DE80700A0F500501F38E7
:100E000000900398002D0ADD42F21F014A46084473
:100E1000002303A90390684601F070FF09E0A0F5E4
:100E200000504A461F38002303A90390684601F08A
:100E30008FFF8DE807000004000C03D04FF0FF3057
:100E4000410800E01046B8F1000F03D000220092E4
:100E500015461EE0751E05D400F0A4FD3032625523
:100E60006D1EF9D5B3460122084302D000227F1C33
:100E700004E02078302801D100227F1E002A099743
:100E800084D01DE0112D07DA00F08CFD3032625560
:100E90006D1C50EA0102F5D1084302D00098C8B198
:100EA0000EE00021681E05E0235C625C635422545E
:100EB000401E491C8142F7DBAB46A81B401E09902F
:100EC000002004F80B000B98099AC0F80880C0E9CC
:100ED000002B7AE711264FF0000857E72DE9F04F75
:100EE00088460446D21D22F0070191B0D1E90001E5
:100EF000CDE90A0104F05EFC02460B98C00F01D058
:100F00002D2007E02068810701D52B2002E0202159
:100F100001EAC000032A099001D0072A05DB034635
:100F20004146204600F00AFF0BE12078800601D5FB
:100F3000E06900E00620B8F1650F814606D0B8F1FF
:100F4000660F18D0B8F1670F70D131E00020B9F109
:100F5000110F009001DB112301E009F101030AAA3E
:100F600001A90CA8FFF7E2FEDDE90C70002609F1EB
:100F70000105834647E001204B4600904FF00047B3
:100F80000AAA01A90CA8FFF7D1FEDDE90DB00C9962
:100F90005D46002610B909F101000D18B9EB0500F6
:100FA00003D4C0F1FF3609F10105A5EB09002BE0E0
:100FB000B9F1010F01DA4FF001090020B9F1110F69
:100FC0000090484601DD112300E003460AAA01A96A
:100FD0000CA8FFF7ABFEDDE90C704D4600268346FA
:100FE000207800070AD4AB4500DA5D4601A8012D40
:100FF00004DD411911F8011C302907D04F4502DAF0
:1010000017F1040F04DA012082460FE06D1EEEE7AF
:10101000002F02DCED1B3E4403E0781CA84200DDFB
:101020007D1CB81B00F1010A4FF000472078000733
:1010300003D4AA4501DB4FF0FF3A0021B7F1004F7E
:101040000DF143088DF8431024D002202B23002FEC
:1010500001DA7F422D230A21021EA0F1010000DCEB
:101060005FB197FBF1FC97FBF1F201FB1C7C17468B
:101070000CF1300C08F801CDEEE7A8F10100037087
:101080002188090501D5452100E06521A0F101086D
:1010900000F8011C09980FA9A1EB0807FF1D00B17A
:1010A0000120411901EBEA70A1693844081A401E79
:1010B000A0612078C00602D42046FFF711FA0998F3
:1010C00028B1D4E901219047206A401C2062207891
:1010D000C00622D52046FFF703FA1EE0002E04DBEF
:1010E000B34502DD01A8805D00E03020D4E9012194
:1010F0009047206A401C2062761CAAF101005FEA3A
:10110000000A0AD100F04AFCC0680168405CD4E9DA
:1011100001219047206A401C2062281EA5F101058C
:10112000DCDC07E0D4E9012118F8010B9047206AC4
:10113000401C2062381EA7F10107F3DC2046FFF7B0
:10114000E5F9032011B041E601694A1C0261087803
:10115000704700B58FB0CDE90131002105910549F7
:101160007944CDE9031011466846FFF78FFA0FB0B6
:1011700000BD0000E5FFFFFF0A6802F8010B0A60EE
:101180007047D1E900239A4202D2531C0B601070C1
:10119000704710B5436913B1AFF3008001E0FFF76A
:1011A000C6F9012010BD127800F124010A70002256
:1011B0004A700122EDE711684FF0FF32E9E70000C5
:1011C000074B70B50D467B44FFF7C3FF0446284626
:1011D00001F036F810B14FF0FF3070BD204670BD01
:1011E000C39800002DE9FF5F15468A460446DFF8E4
:1011F000AC80F8440027D8E900103E46CDE9001045
:1012000010E03AF816106A4602A801F01DF8411CD9
:1012100007D02178890603D5E269391891420DD8A3
:101220000744761C2078800602D5E069B84205DDC7
:10123000AE42E6DB3AF816000028E2D1A069C01BF6
:10124000A0612046FFF74CF9D8E90010CDE9001065
:10125000002017E03AF818106A4602A800F0F4FFE0
:10126000B0F1FF3F81460BD000250DF1080B05E0E2
:10127000D4E901211BF8050090476D1C4D45F7D3BB
:1012800008F10100B0428046E4DB206A3844206265
:101290002046FFF73BF9BDE8FF9F0000C67801003C
:1012A0002DE9F0418046D21D22F007020025D2E947
:1012B0000002F52915A614D0011E72F1000106DA0C
:1012C0000023D0EB030063EB020211A608E0D8F87C
:1012D00000108B0701D50FA602E0490701D50EA625
:1012E00001251146002408F1240704E000F05AFB10
:1012F00030323A55641C50EA0102F7D12B4632468F
:1013000021464046BDE8F041FFF7A2BC00000000C6
:101310002D0000002B0000002000000030B4002150
:1013200000F1240408E002F00705D208303542EA53
:101330004372DB086554491C52EA0305F3D1046883
:10134000002310A2250707D5A40600D421B1C46943
:1013500001230DA2641EC46130BCFFF779BC10B537
:10136000044621461068FFF76AFC02462046BDE8A5
:1013700010400023D2E7D21D22F00701D1E900235B
:10138000CCE7000000000000300000002DE9FF4F16
:1013900006468BB00878FF2806D0491C2D2805D0BA
:1013A00000244FF0000908E000200CE00124F8E7D9
:1013B00009EB8903491C00EB43090878FF28F7D1A2
:1013C00014B1C9F100008146107800252C46AA46C8
:1013D00029462D2801D02B2804D1521C2D2813D0AA
:1013E000002082468B461078FF280FD04FF0000C6B
:1013F0000A21521CA5FB017804FB018105FB0C119D
:10140000C5194BEB0104EEE70120EAE7002108468D
:101410004FF00000BAF1000F02D000EB800040084E
:10142000C0F38157012F01DD4FF0FF370E9955EAC8
:10143000040009EB01080BD04FF0020918F5FA7F00
:1014400016DA4FEACA70002F706008DD012007E04D
:101450004FEACA70C6E900B00FB0BDE8F08F0020B7
:101460003060FFF7DFFBC0F800901821084616E057
:10147000B8F5FA7F18DD002F02DAF748784401E06A
:10148000F6487844D0E90010C6E9001040EACA7076
:101490007060FFF7C7FBC0F80090142108460FB03A
:1014A000BDE8F04F17F022B8002108464FF00000C9
:1014B000B8F10001099002DAC7F1000200E03A46F3
:1014C00001DAC8F1000106A800F048FE06AB93E877
:1014D000070003AB83E8070044F23E005BEA040127
:1014E0000090584604D144F21E012C465D460091FE
:1014F000210C0904014306D10099240444EA15444F
:101500002D041039009104F07F41014306D1009968
:10151000240244EA15642D020839009104F0704158
:10152000014306D10099240144EA15742D01091FD5
:10153000009104F04041014306D10099A40044EA1F
:101540009574AD00891E009104F00041084304D158
:1015500000986D196441401E00904FF001033A4617
:101560006846B8F1000FCDE9014503A902DD01F09D
:1015700004FC01E001F0D7FBBAF1000F04460D4670
:1015800001D084F00044002108464FF00000099982
:1015900040F2FF77484010F00C0F07D124F00040D4
:1015A000284303D0C4F30A50B84212D1FFF73AFBE4
:1015B000C0F80090C4F30A50B8420AD1A848784451
:1015C000D0E90010C6E9001004F000410843706043
:1015D00042E7C6E900543FE72DE9FF4F1F464FF0B1
:1015E000000A4FF0FF38454691B0D7E90146CDF8E3
:1015F0003CA000F0D3F9C0680168405C1090B96964
:1016000012986D1C8847396A814688470028F6D1B0
:10161000B9F1FF3F0AD0002E24F4D06411DDB9F1F6
:101620002B0F08D0B9F12D0F0BD102E0404615B0B9
:1016300013E744F48064B96912986D1C8847761EDC
:101640008146600504A901D52D2000E02B20002E45
:1016500001F1010B0DF130088DF810003FDDB9F1FB
:10166000690F08D0B9F1490F05D0B9F16E0F02D05A
:10167000B9F14E0F1CD13B4601A8009580E85002FD
:10168000DDE912126FF0020016F09BFFC11CCED1F3
:101690000EE0B96912986D1C884781461398761E32
:1016A00044F4007405600F98401C002E0F9016DD66
:1016B000B9F1300FEDD0B9F1780F02D0B9F1580F70
:1016C0000DD10F9801280AD13B46CDE90054DDE940
:1016D0001212001F029616F072FFC11CA7D11099BA
:1016E00089453ED144F0800406E01399681CAAF1B4
:1016F000010A44F400740860B9696D1C1298761EE2
:10170000884730288146F0D02BE01099894505D1D3
:10171000200603D4761E44F0800418E0484604F006
:101720008EF908B3761E0DF123018B4544F4007445
:1017300008D2A9F130000BF8010B200607D5AAF159
:10174000010003E0200602D40AF101008246A00550
:1017500002D51399681C0860B96912986D1C8847F6
:101760008146002ED1DC53E0002E51DDB9F1650F2A
:1017700002D0B9F1450F4BD1A00549D5B9696D1C0F
:101780001298761E24F440748847002E81460CDDA2
:101790002B2804D0B9F12D0F07D144F48074B96916
:1017A00012986D1C8847761E8146E00501D52D21D3
:1017B00000E02B2108F8011BCDF8008021E0761E07
:1017C0000DF13901884544F400740CD2A9F13000C0
:1017D00010F0FF0088F8000002D10099884509D96F
:1017E00008F1010806E0E00501D51E4801E042F2DB
:1017F0000F708246B96912986D1C8847814613980C
:101800000560002E04DD484604F019F90028D6D101
:10181000F96912988847FF2053468BF8000088F832
:10182000000000200A900B9004AA0CA90AA8FFF758
:10183000ADFDA00502D46FF00100F8E614F0240F0E
:1018400012D0E0071CD13868DDE90A12031D3B60A5
:101850000068C0E9001213E010790100027901006C
:10186000C6770100F1D8FFFF0AA9684604F0D4F852
:10187000E00705D13868009A011D396000680260F0
:101880002846D4E602681144137801601846704770
:10189000D1600549794451610449794411620021BC
:1018A0001161114600F0A0BAEDFFFFFF91010000A9
:1018B000426842B1016811F8013B23B1521EC0E9F0
:1018C0000012184670470121C160881E70474268A7
:1018D0005AB1C368016843B983688B4205D0491E79
:1018E000521CC0E90012002070474FF0FF307047D3
:1018F0000FB4002300B589B00CA900910B99CB60FF
:10190000214B7B440693214B7B44079304236FF0C8
:101910000042CDE901321E4A7A446B4608920246E3
:10192000002016F04AFE09B05DF814FB70B50646BB
:101930004FF0FF3015460C46324686B00091CDE997
:10194000010169460020049004A8FFF7D1FF024678
:101950000498211825B108B1084600E02046286007
:10196000049800280DD0002A02DD0098884208D093
:101970003246081B69460094CDE9010404A8FFF72C
:10198000B7FF06B070BD0000ABFFFFFFC3FFFFFF56
:10199000130100000048704790C2012000487047C2
:1019A000B0C2012030B5B0F10A024FEA900E71F1D9
:1019B00000034EEA817EB0EB0E0061EB91014FEA2D
:1019C000101E4EEA017E10EB0E0041EB11114FEAA2
:1019D000102E4EEA016E10EB0E0041EB11214FEA82
:1019E000104E4EEA014E10EB0E0041EB1141401833
:1019F00041F100014FEAD00040EA41704FEAD101C5
:101A000010EB80054FEA810444EA907444EB010432
:101A10006D1944EB0404521BA3414FF0000348BF6F
:101A20000A3200D530BD401C41F1000130BD10B577
:101A30000446FFF7EFF80068005D00F0010010BDFC
:101A40002DE9F04F04460D46D21D22F0070089B063
:101A5000D0E900974846394603F0ACFE0246F80F3D
:101A600001D02D2307E02068810701D52B2302E058
:101A7000202101EAC0038DF820300BB1012000E0E5
:101A80000020032A824601D0072A04DB294620468B
:101A900000F054F93FE12078800601D40D2500E0E4
:101AA000E569C7F30A560D2D49DA00214FEA175BA5
:101AB00008464FF00000002F00F4400007DA00EB6A
:101AC00080004FF4400100EBD07001EA6000811506
:101AD000012901DD4FF0FF3100224FEA850CBCF1F6
:101AE000180F06D31346ACF118004FF08052C240D5
:101AF00003E04FF4801323FA0CF30CF10C0CBCF14F
:101B0000200F04D3ACF1200C09FA0CF001E007FA25
:101B10000CF000294FF0004801DD18B90FE00ED19C
:101B200040450CD319EB02095F4121B9404502D170
:101B30009F4329EA0209BBEB175F00D0761C20887F
:101B4000000502D57B48784402E07A487844193889
:101B500008AA302302F80A30037C0AF10101002EA2
:101B60000AF1020A53546A4602DC4FF0300101E0E8
:101B70004FF031014FF001088DF8001002D0A6F2AD
:101B8000FF3603E059EA470100D06B4E002D02DC1E
:101B90002178090704D54FF002082E218DF8011095
:101BA000C44600210BE0C7F303433F01C35C491C5B
:101BB0006D1E02F80830052908F1010801DA002D30
:101BC000F1DC00210CE000EB1973491C1B786D1E41
:101BD000082902F808304FEA091908F1010801DA6A
:101BE000002DF0DC21688B0602D516E0A8F1010873
:101BF000E04505DD02EB080313F8013C302BF5D07E
:101C0000B8F1000F09DD02EB080313F8013C2E2B9D
:101C100003D1090701D4A8F10108002D05DD3E21FB
:101C200002F808106D1E08F10108407C002E02F831
:101C3000080008F1010804DA2D20764202F80800B5
:101C400002E02B2002F808000A214FF47A70864245
:101C500008F101080BDB96FBF0F3303302F8083093
:101C600096FBF0F308F1010800FB136601E0642E17
:101C70000CDB642096FBF0F3303302F8083096FB5F
:101C8000F0F308F1010800FB136601E00A2E06DB01
:101C900096FBF1F0303002F8080008F1010896FBDD
:101CA000F1F001FB1060303002F80800A16908F182
:101CB000010808EB050202EB0A00081AA06120786F
:101CC000C00602D42046FEF70BFC216A08AE01EBE9
:101CD0000A00206204E0D4E9012116F8010B9047C4
:101CE000BAF1010AF7D22078C00602D52046FEF7E5
:101CF000F7FB6E4609E016F8010B3E280FD0D4E939
:101D000001219047206A401C2062B8F10108F2D2FC
:101D10002046FEF7FBFB09B00320BDE8F08F206AE8
:101D20002844206203E0D4E90121302090476D1E51
:101D3000EBD3F8E78D6F010002FCFFFF2DE9F041C6
:101D40001F46044603260168072A01F4006004DBED
:101D500008B116A505E016A503E008B115A500E039
:101D600015A521F010002060A069C01EA0610FB170
:101D7000401EA0612046FEF7B3FB4FB1D4E901211C
:101D800038469047206A401C2062C01C206206E052
:101D9000206AFAE7D4E9012115F8010B9047761E75
:101DA000F8D22046FEF7B2FBBDE8F0814E414E006E
:101DB0006E616E00494E4600696E660010B543695B
:101DC00013B1AFF3008001E0FFF70CFA012010BD62
:101DD000128800F1240182840022C2840122EDE7EE
:101DE00011684FF0FF32E9E72DE9F34F4FF0000A99
:101DF0000C4656468DB001200C9001F10C000B9062
:101E000062690B9801219047051E2DD0252D2CD0FD
:101E1000216A8847C0B162690B9801219047216A05
:101E200088470028F7D16269411E0B98904700E06F
:101E3000761CA1690D988847216A88470028F7D148
:101E4000E1690D988847DBE7A1690D988847A842AA
:101E5000074601D1761CD3E7E1690D9888477F1CBE
:101E600002D1BAF1000F6FD06BE162690B980027C5
:101E70003D46394690472A2804D162690B980121D2
:101E800090470125DFF8D08262690B9801219047C5
:101E9000A0F130010A290AD24745E5DC07EB8701AA
:101EA00000EB4107303FDFD445F01005ECE7E906D1
:101EB00001D46FF000476C280AD04C2814D0682851
:101EC00015D06A280DD074281CD07A281AD01DE0AD
:101ED00062690B98012190476C2802D045F00405F7
:101EE00014E045F002050DE045F020050AE06269C6
:101EF0000B9801219047682802D045F0080505E0BD
:101F000045F4006562690B9801219047C4E90157C7
:101F100065283DD019DC58287AD00CDC452837D00C
:101F200004DC252826D041289ED131E046282FD038
:101F3000472899D12CE05B2877D0612828D06328E6
:101F40007CD0642823D15AE0F6E06F2848D008DC22
:101F500066281DD067281BD0692821D06E2816D18D
:101F600027E0702845D0732868D0752847D0782896
:101F70000DD14DE0A1690D988847252805463FF40D
:101F800069AFE1690D9888476D1C3FF46AAFD8E0EE
:101F90000D9923466A466FF0010016F00EFBC5E06E
:101FA00045F0400023464FF000026060A80736D499
:101FB0003EE0E8077FF447AF2068011D216000681C
:101FC000290501D506701BE7290701D5068017E70B
:101FD000A90703D5F117C0E9006111E706600FE713
:101FE00045F0400023464FF008026060A80716D471
:101FF0001EE040F60E0125EA0100606016E045F0A3
:10200000400023464FF00A026060A80707D40FE0A3
:1020100045F040006060A80708D5234610220D99BE
:102020006FF00100AFF3008080E007E0102223464C
:102030000D996FF00100AFF3008077E04FF00009D9
:1020400063284F46C8464B46CB4602D05B2806D095
:1020500038E0E80601D40120A060012732E062697F
:10206000D4F80CB00B98012190475E2807D14FF0AF
:10207000010949466269D4F80CB00B989047216970
:1020800039B900210A4603AB43F82120491C08292D
:10209000FADBD8B3216949B308F1010862690B98EA
:1020A000012190475D28F4D1B9F1000F09D000203B
:1020B00003A951F82020D24341F82020401C0828D1
:1020C000F7DB03AB2069002820794FEA40701ED06F
:1020D0005B462246CDF80080CDE901970D99002896
:1020E0006FF0010020DAAFF300801FE0C11703AAF0
:1020F00000EBD1614B1121F01F0102EB8302411A69
:1021000013680120884003431360C7E719E00D9965
:10211000224600286FF00100009702DAAFF300803A
:1021200004E0AFF3008001E0AFF3008000280ADA9A
:10213000401C06D10C9820B14FF0FF300FB0BDE825
:10214000F08F5046FAE7E90701D10AF1010A064487
:1021500000200C9054E60000CCCCCC0C2DE9F047CC
:10216000814616468AB0354878440DC88DE80D0082
:1021700032487844801C03AC0DC884E80D0041F659
:102180009B300844372190FBF1F290FBF1F5A5F16B
:10219000800501FB12041B3C02D56442012000E0D3
:1021A0000020DFF898A080460027FA44AAF1BE0A72
:1021B0000EE0E0070AD03246684607EB47010123EC
:1021C0000AEB810100F0C4FD8DE8070064107F1C5C
:1021D000002CEED1194F7F44AE3F19E0E80715D02F
:1021E00007EB04100DF1180A90E80E008AE80E00C3
:1021F000C068F04201D1981908903246012306A91F
:1022000003A800F0A5FD03AB83E807006D10641C74
:10221000002DE3D14FF0010332466946B8F1000FBB
:1022200003A802D000F06AFD01E000F091FDC9E9C9
:102230000001C9F808200AB0BDE8F087FC69010078
:10224000007B00F08000704770B516460C460546CE
:10225000FEF7E0FC036893F80101012806D0FF2C8B
:102260000FD8185D68B101202C7070BDD3F807013C
:102270003246214603F2071303442846BDE8704066
:1022800018474FF0FF3070BD7546FFF783FBAE4631
:1022900005006946534620F00700854618B020B572
:1022A000FEF7A6F8BDE820404FF000064FF000070B
:1022B0004FF000084FF0000B21F00701AC46ACE8EE
:1022C000C009ACE8C009ACE8C009ACE8C0098D465B
:1022D000704710B5FEF7A6FC006810BD10B50446A7
:1022E000FEF7A0FC046010BD3A2800D2303820F080
:1022F0002002412A01D3A2F13700884201D34FF0D6
:10230000FF3070472DE9FF4F1F464FF03C0987B063
:102310004FF00042DDE9141001F10108DDF858A08A
:1023200002EA40500390002005908346054604468B
:102330000490B969461E08988847AAF1010A0290DC
:10234000BAF1000F3BDD02982E2815D01021FFF7BF
:10235000CBFF00282EDB4FF0010B0599014317D06E
:10236000B9F1000F0BDB4A46C11700F0F5F9054340
:102370000C43A9F1040905E0012004900BE008B129
:1023800045F0010501200590049820B9361D02E0B2
:10239000049800B1361FB969089808F10108884708
:1023A000BBF1000FAAF1010A0290C9D00999C1F846
:1023B0000080C5E70298702808D0502806D0F96937
:1023C00008988847BBF1000F14D04FE0002002901E
:1023D0000120BBF1000F049009D0B969089808F1F9
:1023E00001088847AAF10109B9F1000F07DCF96972
:1023F000089888476FF001000BB0BDE8F08F2B28DC
:1024000004D02D280CD14FF0FF300490B969089802
:1024100008F101088847A9F10109B9F1000FE6DDCB
:10242000411CE4D00A21FFF75FFF0028DFDB02999F
:1024300008F1010801EB810100EB41000290B9694C
:10244000089888470A21FFF74FFF099AA9F1010967
:10245000B9F1000FC2F8008001DD0028E7DAF96960
:10246000089888470499029800FB016655EA040021
:1024700004D004F04041090002D006E0039898E03F
:10248000A40044EA9574AD00B61E04F000410800B3
:1024900002D16D196441761E159810F0240F03D0F7
:1024A0004FF00B095C4803E04FF028096FF07D0006
:1024B0008246564507DAAAEB06018944B9F1410F75
:1024C00001DD4FF0410901200021A9F1010200F0D6
:1024D00043F9024628400B462140084301D0012120
:1024E00000E00021501E029143F1FF3128402140BD
:1024F000084301D0012000E000200299834651EA00
:102500000B014FD0002108464FF00000039900F462
:10251000400039B100EB80004FF4400100EBD07077
:1025200001EA60008015012802DD4FF0FF3000E075
:1025300013D0401C36D0029860B3BBF1000F0CD111
:102540004A460120002100F007F9284021400843B5
:1025500001D0012000E00020E0B101204A46002126
:1025600000F0FAF8034640190A4661412D1A8C41E1
:1025700011D3B9F1400F09DD159810F0240F02D0E6
:10258000AAF1340603E0AAF1170600E0761C002544
:102590004FF0004406E05B1E42F1FF3220EA0305E3
:1025A00021EA0204CAF10100B04206DA1B4903988D
:1025B00008430190002000900EE0039AC4F3D32159
:1025C000E80A0A43164940EA44500A433146CDE935
:1025D0000002684603F029FA159810F0240F0BD07A
:1025E0001598C00715D13868DDE90012031D3B605E
:1025F0000068C0E900120CE002A8694603F00CFA7A
:102600001598C00705D13868029A011D3960006825
:1026100002604046F0E6000002FCFFFF0000F07F91
:102620000000F03F2DE9FF4F92461D4685B04FF068
:102630000041DDE9124BDDE914727F1E01EA4B50C7
:10264000414940F0FF4940EA0108002122F0200002
:102650004928049102D04E2828D04CE03BA0012606
:1026600007C88DE80700A9690698641C88477F1E83
:10267000014606D41DF8060018B121F02001814260
:102680000BD0E96906988847032E34D0082E32D043
:102690006FF0010009B0BDE8F08F761C032E01D069
:1026A000082EE0D1601CCAF80000DCE7A969069892
:1026B000641C88477F1E2AD420F02000412826D1A0
:1026C000A9690698641C88477F1E20D420F020004A
:1026D0004E281CD1A9690698641C88477F1E48F4BF
:1026E000002849F48009CAF8004001D4282806D0FF
:1026F000E969069888475FEACB7012D022E0A969A1
:102700000698641C88477F1E01D4002803DAE96913
:1027100006988847BCE72928F1D1641CCAF8004014
:10272000E9E71BF0240F07D028680499031D2B60EC
:102730000068C0E9001805E02868021D2A600068EA
:10274000C0F800902046A5E70000F07F494E4649BA
:102750004E49545900000000B2F120030AD5C2F1DD
:10276000200301FA02F120FA03F300FA02F041EA31
:102770000301704700FA03F14FF0000070475FEA71
:10278000400C08BF91F0000F4FEA8C234FEAC122A2
:1027900043EA51514FEA1C5018BF00F5F0404FEA90
:1027A000300018BF41F000415FEA6C5C00F0298006
:1027B000BCF1FF3F08BF40F080407047130C06BFDC
:1027C00012044FF0100C4FF0000C130E04BF120255
:1027D0000CF1080C130F04BF12010CF1040C930F41
:1027E00004BF92000CF1020CD30F04BF52000CF195
:1027F000010C11464FF00002A0F11F00A0EB0C00ED
:10280000704711F0004F08BF704731F000413FF4AE
:10281000D5AF0B0C06BF09044FF0100C4FF0000CA5
:102820000B0E04BF09020CF1080C0B0F04BF0901C9
:102830000CF1040C8B0F04BF89000CF1020CCB0FC0
:1028400004BF49000CF1010CCCF12003A0EB0C00FB
:1028500022FA03F302FA0CF241EA030100F101004B
:10286000704720F07F4C80EA030023F07F47ACEBF9
:10287000070303F57C5300F0004003F1FF032DE94B
:1028800080494FEA154B09B44FEA144325EA0B4E31
:1028900024EA03480FF2042606EB132749083E7882
:1028A0005FEA320203FB0667C7F5000707FB06F67F
:1028B0004FEA54374FEAD64606F1020607FB066C8C
:1028C000CCF1005C4FEA1C472CEA074C07FB06F4EE
:1028D0000CFB06F504EB15464FEA961634BF0020B4
:1028E0004FF000404FEAD13706FB07FC4FEA1C4C83
:1028F0000CFB0BF7D21B03FB0CF761EB07010CFB86
:102900000EF7B0EB074072EB17420CFB08F734BF31
:10291000A2EB0742B2EB074261EB17414FEA0C44CE
:102920004FEA910706FB07FC4FEA1C4C0CFB0BF728
:10293000B0EBC74072EB573203FB0CF734BFA2EB8E
:10294000C742B2EBC74261EB57310CFB0EF7B0EB5D
:10295000C70072EB57720CFB08F734BFA2EBC7023B
:10296000B2EBC70261EB5771039F4FEA816141EA05
:10297000921104EBCC044FEAD1374FEA826206FB96
:1029800007FC42EA90124FEA80604FEA1C4C0CFBB5
:102990000BF7D21B03FB0CF761EB07010CFB0EF7E7
:1029A000B0EB074072EB17420CFB08F734BFA2EB09
:1029B0000742B2EB074261EB17414FEA8C554FEAF1
:1029C000910704EB9C2406FB07FC4FEA1C4C0CFB14
:1029D0000BF7B0EBC74072EB573203FB0CF734BF79
:1029E000A2EBC742B2EBC74261EB57310CFB0EF7CB
:1029F000B0EBC70072EB57720CFB08F734BFA2EBC9
:102A0000C702B2EBC70261EB577115EB4C254FEAD9
:102A1000816141EA92114FEA82624FEAD13742EA7C
:102A2000901206FB07FC44F100044FEA80604FEA75
:102A30001C4C0CFB0BF7D21B03FB0CF761EB0701E3
:102A40000CFB0EF7B0EB074072EB17420CFB08F7DC
:102A500034BFA2EB0742B2EB074261EB174115EB23
:102A60001C154FEA813141EA92414FEA823242EA33
:102A700090424FEA80304FEA0C7644F1000448EA75
:102A800003434EEA0B484FF0000EB2EB080C71EB1B
:102A9000030724BF624639464EEB0E0E4FF0000B83
:102AA0000018524149414BEB0B0BB2EB080C71EB98
:102AB00003077BF1000B24BF624639464EEB0E0E36
:102AC0004FF0000B0018524149414BEB0B0BB2EB9E
:102AD000080C71EB03077BF1000B24BF62463946FB
:102AE0004EEB0E0E51EA020718BF46F0010616EB38
:102AF0000E7655F1000254F1000103D5BDE88901BD
:102B0000BDE80088BDE88901BDE80048B61952411A
:102B100041EB0101A3F10103704780807F7E7D7C42
:102B20007B7A7978777676757473727171706F6E5F
:102B30006E6D6C6C6B6A6A6968686766666564640A
:102B4000636362616160605F5F5E5E5D5D5C5C5B94
:102B50005B5A5A5959585857575656555555545403
:102B6000535352525251515050504F4F4F4E4E4D61
:102B70004D4D4C4C4C4B4B4B4A4A4A4949494848AD
:102B800048474747474646464545454444444443ED
:102B900043434342424242414141000046EA064625
:102BA000A3F570534FEA164646EA42564FEAD22240
:102BB00042EA415210B54FEAD121A3F1010300F0DE
:102BC0002FF820F0004000F1020C00F0004701EB6C
:102BD00000501146BCF5006F40EA070000D210BD5E
:102BE000BAF1000F0AD01CB503B44FF004004FF047
:102BF00004014FF000000FBCBDE810404FF0000191
:102C0000BBF1010FB9BF04484FF0FF310348002169
:102C100040EA070010BD00BFFFFFEF7F0000F07F1C
:102C2000002B9C4630D477002BD01CB54FEA3707D9
:102C300003B44FF010004FF01001BAF1000F06D0AE
:102C4000BCF1000FDCBF40F0080040F008014FF07D
:102C500000000FBCBDE810400BF1010BBBF1010FF0
:102C600008BF5FEA170722BF12F1010211F101014B
:102C70004FF0004143F1000300F0004043EA000040
:102C80007047F9D35708D0E746EA064613F1400FDC
:102C90004FEA16461FDD13F1200FDFBF16430A4629
:102CA000002120335B42BED0C3F1200746EA06462E
:102CB00002FA07F74FEA164646EA0706C3F120076D
:102CC00022FA03F201FA07F721FA03F14FF00003A9
:102CD00042EA0702A7E746EA020646EA06464FEA44
:102CE000164646EA0106BCBF46EA0646360C4FF0D9
:102CF00000034FF000024FF0000194E72DE9804CF3
:102D00009A46934670B491E8380007C831EA400CFF
:102D100048BF34EA430C03D5FFF7A3FDFFF780FF5C
:102D2000F0BCBDE8008C2DE9804C9A46934670B407
:102D300091E8380007C831EA400C48BF34EA430C38
:102D400003D5FFF78EFDFFF729FFF0BCBDE8008C2F
:102D50002DE9804C9A46934670B491E8380007C834
:102D600010F0804F08BF13F0804F03D100F01AF825
:102D7000FFF756FFF0BCBDE8008C2DE9804C9A4669
:102D8000934670B491E8380007C810F0804F08BF30
:102D900013F0804F03D100F005F8FFF7FFFEF0BC01
:102DA000BDE8008C20F07F4780EA030023F07F4CD1
:102DB00007EB0C03A3F57C5300F00040A3F1FE03E6
:102DC00092F0000F00F0B38095F0000F00F07780D4
:102DD0002DE901494FEA11404FEA144621EA004823
:102DE00000FB06FC24EA064708FB06F607FB08F88A
:102DF00000FB07F718EB06484CEB164C4FEA124B5A
:102E000018EB07484FEA15464CEB174022EA0B4EE9
:102E10000BFB06FC25EA06470EFB06F607FB0EFE3B
:102E20000BFB07F71EEB064E4CEB164C4FF0000663
:102E30001EEB074E4CEB174B18EB0B0840F1000054
:102E400018EB0E0B58EB000840F100008F1A4FF002
:102E500000013CBFC943661B14BFB5EB040C002145
:102E60003CBFC943F61B4FEA17444EEA8E0E27EAD1
:102E700004454FEA1C4704FB07622CEA074C05FB9C
:102E800007F70CFB05F604FB0CFC16EB074642EBC0
:102E9000174216EB0C4642EB1C421BEB060658EBA6
:102EA0000202414146EA9E0601D5BDE80189B619F4
:102EB000524141EB0101A3F10103BDE801894FEA51
:102EC00014454FEA114724EA054621EA074C05FB61
:102ED00007F406FB07F70CFB06F105FB0CFC11EBF6
:102EE000074144EB17444FEA124711EB0C4144EB06
:102EF0001C4422EA074C05FB07F206FB07F70CFB14
:102F000006F605FB0CFC16EB074642EB174216EBE8
:102F10000C4642EB1C456A1854F1000148BF70474B
:102F2000B619524141EB0101A3F10103704795F03D
:102F3000000F37D04FEA11424FEA144721EA024608
:102F400024EA074C02FB07F106FB07F70CFB06F42B
:102F500002FB0CFC14EB074441EB17414FEA154709
:102F600014EB0C4441EB1C4125EA074C02FB07F52E
:102F700006FB07F70CFB06F602FB0CFC16EB0746FC
:102F800045EB174516EB0C4645EB1C42121951F167
:102F9000000148BF7047B619524141EB0101A3F14E
:102FA000010370474FEA14454FEA114724EA0546EA
:102FB00021EA074C05FB07F106FB07F70CFB06F2BD
:102FC0004FF0000605FB0CFC12EB074241EB1741EA
:102FD00012EB0C4251EB1C4148BF7047921841EB79
:102FE0000101A3F1010370471CB514F0F7F90F4C70
:102FF000606110B90EA000F04BF8012014F0D2FA75
:10300000042120610022084614F0DEFAA0610028A5
:103010000AD00DA140F23910CDE90001134B14A2E2
:1030200019A1042006F0BCF81CBD0000000000201F
:10303000B4B4BDA8CAC2BCFEB1EAD6BED7E9CAA71D
:10304000B0DC0D0A00000000B4B4BDA84D515454CA
:103050005F446174615F5175657565CFFBCFA2B642
:10306000D3C1D0B3C9B9A6210D0A0000FB85010860
:103070002E2E5C34557365724C617965725C6D619E
:10308000696E2E63000000006D61696E0000000033
:103090000FB410B5B4B037ABC9216846369AFDF706
:1030A000C7F90A4C4FF0FF31206914F0A7FC6946BC
:1030B00007A0FDF7D7F900231A461946206914F036
:1030C000F1FA34B010BC5DF814FB000000000020E1
:1030D00025730000FEE7000070B5094DFF231A4676
:1030E00005F5807605E010F8014B54402A5D5A4002
:1030F000335D491E89B2F6D242EA032070BD00005A
:10310000118601082DE9FF47434C3FA640F22929CB
:1031100040F22A2A40F25B7740A1CDE90091484B6A
:1031200048A24FA1042006F03BF801A84EA1CDF81B
:1031300000A080E8C200424B42A249A1042006F050
:103140002FF840F2362540F6B8383946304612F0AE
:10315000CDFE606000281DDB4CA140F23220CDE99D
:103160000001374B37A23EA1042006F019F84DA10B
:103170004FF40F70CDE90001314B32A238A1042089
:1031800006F00EF801F07EFB002810D04DA140F2B1
:10319000412021E054A0CDE90050294B29A230A1C3
:1031A000042005F0FDFF404613F02CFCCDE75AA1AA
:1031B0004FF41270CDE90001214B22A228A1042076
:1031C00005F0EEFF012259A1606801F0E1FA002844
:1031D0000DDA5EA140F24E20CDE90001184B19A294
:1031E0001FA1042005F0DCFF12F062FE94E75DA150
:1031F0004FF41570CDE90001114B12A218A1042063
:1032000005F0CEFFBDE8FF873132302E37382E3241
:1032100034372E323231000030000020312EBFAA68
:10322000CABCC1ACBDD3B6D4D3A6D4C6C6BDCCA887
:10323000B5C4B7FECEF1C6F72E2E2E0A0000000050
:10324000878801082E2E5C34557365724C61796550
:10325000725C6D717474636C69656E742E630000CA
:103260004D51545400000000B7FECEF1C6F749504E
:10327000B5D8D6B7A3BA2573A3ACB6CBBFDABAC557
:10328000A3BA253064A3A10A00000000C1ACBDD3DD
:10329000D4C6C6BDCCA8B7FECEF1C6F7B3C9B9A691
:1032A000A3A10A00322E4D515454D3C3BBA7C3FB74
:1032B000D3EBC3D8D4BFD1E9D6A4B5C7C2BD2E2E97
:1032C0002E0A00004D515454D3C3BBA7C3FBD3EB0C
:1032D000C3D8D4BFD1E9D6A4B5C7C2BDCAA7B0DC94
:1032E0002E2E2E0A00000000C1ACBDD3D4C6C6BD30
:1032F000CCA8B7FECEF1C6F7CAA7B0DCA3ACB5C860
:10330000B4FD33C3EBD4D9B3A2CAD4D6D8D0C2C18A
:10331000ACBDD3A3A10A0000332EBFAACABCB6A974
:10332000D4C4CFFBCFA22E2E2E0A00002F736D61C6
:103330007274436C6F75642F7365727665722F6D4E
:1033400073672F646576696365000000BFCDBBA716
:10335000B6CBB6A9D4C4CFFBCFA2CAA7B0DC2E2E61
:103360002E0A0000342EBFAACABCD1ADBBB7BDD354
:10337000CAD5B6A9D4C4B5C4CFFBCFA22E2E2E0A6F
:1033800000000000704700000149486170470000DC
:1033900000900240044A0029D16901D0014300E0B5
:1033A0008143D16170470000009002400549002828
:1033B000886902D040F0020001E020F0020088613C
:1033C0007047000000900240F0B5124F00234FF00C
:1033D000004C44F2F45E561E786013E000EB431498
:1033E000C4F800C0C3EBC31505EB450501EB85052B
:1033F000C4E901E5B34203D204F12005E56000E031
:10340000E0605B1C9342E9D30349C8600348B8609D
:10341000F0BD0000C4000020009002400014012014
:1034200005490028886902D040F4005001E020F4EA
:10343000005088617047000000900240F0B50F4CCA
:1034400000234FF48017561E206011E000EB431458
:103450002760C3EBC31505EB450501EB8505A560AA
:10346000B34203D204F12005E56000E0E0605B1C9C
:103470009342EBD302490861F0BD0000C400002074
:103480000090024002680A430260704710B50121B3
:103490004C06204601F004FC2046BDE81040002107
:1034A00001F0FEBB01B581B001980090002801D069
:1034B000401EFAE70CBD000038B5074CA06940F487
:1034C0008010A061A06900904FF6FF70FFF7EAFF3F
:1034D0000098A06138BD00000090024001480068DB
:1034E00080687047C400002002680021002A08DBC1
:1034F0000268120405D40268D20502D50068C0F340
:103500000D41084670470000034900200968C907BB
:1035100000D00120704700000090024010B5094C17
:1035200001E009F021F92068FFF7DEFF0028F8D15B
:103530004020FFF729FFBDE810404FF48030FFF72F
:1035400023BF0000C80000202DE9F04786B0002707
:10355000044601200097974ECDE9000730698A465E
:1035600020F01C0502A801F0BFFB93490398934A81
:103570000144914202D245F0080516E09049914A73
:103580000144914202D245F00C050EE08E498F4A6B
:103590000144914209D38E4908448E49884202D29F
:1035A00045F0040501E045F0100535614FF4004297
:1035B0000021504600F0B0FA4FF400684FF4804903
:1035C000A0B18548FFF76EFF206898B3834D01983E
:1035D0000121401C0190504600F0C6F9400702D47A
:1035E0000198A842F3D30198A84201D100973CE08A
:1035F0004FF4805200215046019700F08DFA00B937
:10360000009701980121401C0190504600F0ACF950
:10361000800602D40198A842F3D30198A842E5D0CD
:103620001F215046019700F09FF9C10603D5C4F849
:10363000208001E007E02762400701D5676112E0C2
:10364000C4F814900FE0206A6169C00840EA510094
:1036500082B20021504600F05FFA00B900976FF087
:103660007F40FFF71FFF009818B9C4F81490C4F802
:10367000208030685A490840D4E901121143E268B9
:1036800054F8103F1A43114362681143A268114372
:10369000E26811432269114354F8142F1143626800
:1036A0001143A2681143E2681143226911430143A7
:1036B000316035684FF6FF773846FFF7F3FE356027
:1036C000F4E905010843D4E90212114308432169D2
:1036D000084361690843A1690843E16908437060D0
:1036E00075683846FFF7DEFE7560206AB060606A74
:1036F000F060B0694FF641710840D4E90B121143F4
:10370000238D626B42EA03421143A26B1143E26BC9
:1037100011430143B161B5693846FFF7C3FEB56196
:10372000D4E910010843F061F5693846FFF7BAFEA5
:10373000F5612C4DA8692C490840D4E912121143B7
:10374000D4E914231A431143A26D1143E26D1143CE
:10375000226E1143626E1143A26E11430143A961AF
:10376000AE693846FFF79EFEAE61D4E91B010843FF
:10377000616F54F8782F11430843616840EA810073
:10378000A168084340F4000028602C683846FFF721
:1037900089FE2C60286840F0800028602C6838463C
:1037A000FFF780FE2C600098012800D0002006B0B2
:1037B000BDE8F0870080024000D3CEFEC0E1E40007
:1037C00040F1E9FD40787D0100796CFC005A62020D
:1037D000001F0AFA80F0FA02FFFF0F00FFFF04004B
:1037E0000F8120FF00900240233FDEF8054B8A88BE
:1037F000184402640A78D1F8011042EA01214164B8
:10380000704700000080024010B5B0B001214FF0B9
:10381000606001F039FAFFF739FE00F0FDF8FFF7BC
:1038200073FE0128FBD0684600F00FF901200090DC
:1038300000204FF40071CDE90A100904079011909F
:10384000CDE920010E90149013900A111590259047
:10385000269023920420CDE9280180032A9080013C
:103860002B9040122C9040002E9000216846FFF7CC
:103870006BFEC4B2012C03D101210348FFF78AFD7E
:1038800030B0204610BD00004000010038B50021D6
:10389000094C00910028206802D040F0040001E0AB
:1038A00020F004002060206800904FF6FF70FFF7C2
:1038B000F9FD0098206038BD0080024038B5002135
:1038C000094C00910028206802D040F0080001E077
:1038D00020F008002060206800904FF6FF70FFF78E
:1038E000E1FD0098206038BD0080024010B5094C11
:1038F000002021680AF014FB002061680AF010FB28
:103900000020A1680AF00CFBE168BDE8104000202F
:103910000AF006BBA400002070B5A02100200AF028
:103920000BFB104CA021206000200AF005FB41F6A3
:10393000C4556060294600200AF0FEFAA0602946BE
:1039400000200AF0F9FAE060216831B1616821B124
:10395000A16811B108B1002070BDFFF7C7FF0120B9
:1039600070BD0000A400002018B500220092124A89
:1039700013694FF6FF7403F01C0304EAC0201843D8
:103980004FF4F86303EA8111014321F0020040F093
:103990000100106109490098401C00901069C0079F
:1039A00002D000988842F6D30098884201D10020C6
:1039B00018BD506980B218BD00800240FFFF0400AE
:1039C00070B5134C00231A4621680D68002D0BDAE0
:1039D000104916464B691B0602D580234B618E6049
:1039E00002604260826070BD0D682D040AD40D68CB
:1039F000ED0507D50D68AD0504D50A68C2F30D4382
:103A00008A681B1FCD6825600360C0E9012170BD75
:103A1000C8000020009002400248016841F0010106
:103A2000016070470090024010B50120FFF746FF8B
:103A30000120FFF72BFFFFF73FFD0120FFF7F0FC10
:103A4000BDE810400120FFF7B1BC01210160002159
:103A5000416081604FF48042C160C0E90412D2101D
:103A60008161C0E9071241628162C1620163416301
:103A700040228163C0E90F122022C0E91121C164F4
:103A80000165416581658022C165C0E918128166C2
:103A9000C16601674167D2048167C0E91F125210F5
:103AA000C0E921211311C0E92331C0F89410C0F8F6
:103AB0009810C0F89C10C0E928125212C0F8A82033
:103AC0009201C0F8AC205212C0E92C21C0F8B81005
:103AD000704700000E4A11680B68002B01DA0020C5
:103AE0007047C0F30C004860086840F04050086020
:103AF000086840F000400860064843695B0703D54A
:103B00000423436100234360C868106001207047AC
:103B1000C40000200090024038B500230093114BF0
:103B20001C694FF6FF7504F01C0405EAC020204311
:103B30004FF4F86404EA8111014341F003005A6133
:103B4000186109490098401C00901869C00702D00C
:103B500000988842F6D30098884201D1002038BDF1
:103B6000012038BD00800240FFFF040070B54FF413
:103B70008055284600F02EF8124C60B11E2002F04D
:103B8000ADFD2946204600F07BF808B901F0A2FD02
:103B9000284600F019F84FF40055284600F01AF8AE
:103BA00000280ED01E2002F099FD2946204600F084
:103BB00067F808B901F0C6FD2846BDE8704000F07E
:103BC00003B870BD00100240014908607047000052
:103BD000143C0140034A0146002012680A4200D00A
:103BE00001207047143C0140F0B5002201274FF03E
:103BF000030C0B6807FA02F52B40AB422CD1066888
:103C000053000CFA03F4A64306600E79D0F800E0E6
:103C10009E4046EA0E0606600E79012E01D0022E65
:103C200012D18668A64386604E79D0F808E09E409F
:103C300046EA0E0686604668AE43466045688E7961
:103C40009640B6B235434560C568A543C560CC799A
:103C50009C40C3681C43C460521C102AC9D3F0BDE9
:103C60004B07DB0E9A40C90810B500EB8100016AD2
:103C70000F249C40A1430162016A1143016210BDFF
:103C80000246002012690A4200D001207047418399
:103C90007047018370470AB10183704741837047C1
:103CA00002490888421C0A8070470000300000204A
:103CB0000549096801600449091D09684160024914
:103CC0000831096881607047107AFF1F114906A307
:103CD00000201A5C8A800A885206FCD5401CC0B2BB
:103CE0002A28F6D3FEE700000D0A456E746572209F
:103CF000486172644661756C745F48616E646C659E
:103D0000722C2053797374656D2048616C742E0D8C
:103D10000A000000001001402DE9F04F87B001219A
:103D2000082000F0B1FF0121480400F0C5FFDFF8D2
:103D300020B1072205215846FFF792FF07220621EE
:103D40005846FFF78DFF00248DF8064001268DF8B8
:103D50000760022520208DF8045000908DF8055052
:103D600069465846FFF740FF402000908DF8045008
:103D700069465846FFF738FFDFF8D8904FF41647EA
:103D8000ADF80C40ADF810404FF00C080297ADF8BC
:103D90000E40ADF81440ADF8128002A9484601F07B
:103DA000B1FA40F2255A01225146484601F091FAF3
:103DB0000121484601F05DFA4021484601F056FADB
:103DC0000121082000F060FF0121880400F074FF49
:103DD000072208215846FFF743FF072209215846CA
:103DE000FFF73EFF8DF806408DF80760E8018DF87B
:103DF000045000908DF8055069465846FFF7F4FED0
:103E0000280200908DF8045069465846FFF7ECFEF2
:103E1000ADF80C40ADF80E40ADF81040ADF81440D0
:103E20000D4C0297ADF8128002A9204601F06AFA03
:103E300001225146204601F04CFA0121204601F0B2
:103E400018FA4021204601F011FA07B0BDE8F08FC2
:103E5000000C024000440040004800401CB5012115
:103E6000112000F011FF1C20009000208DF80400AC
:103E700003208DF8050001248DF8074069460548A8
:103E8000FFF7B2FE00948DF8074069460248FFF73D
:103E9000ABFE1CBD00100240000002402DE9F041C5
:103EA0002D4C2E4F2E4D012608B1267001E02078B2
:103EB00098B110212846FFF7E3FEA8B10821284653
:103EC000FFF7DEFE80B104212846FFF7D9FE58B186
:103ED00001213846FFF7D4FE30B110212846FFF704
:103EE000CFFE012823D035E00A2002F0DBFB0020C2
:103EF000207010212846FFF7C3FE78B1082128461C
:103F0000FFF7BEFE68B104212846FFF7B9FE50B1A5
:103F100001213846FFF7B4FE38B11BE00120BDE8AF
:103F2000F0810220FBE70320F9E70420F7E70821EE
:103F30002846FFF7A5FE01280CD104212846FFF7EB
:103F40009FFE012806D101213846FFF799FE01287E
:103F500000D126700020E2E7780000200000024037
:103F600000100240FEB501214D2000F08DFE012120
:103F7000880300F0ADFE012000F032FF862003250B
:103F800000908DF8055002208DF804000024384E72
:103F90008DF806408DF8074069463046FFF724FE4D
:103FA0000B2201213046FFF75BFE0B220221304637
:103FB000FFF756FE0B2207213046FFF751FE322055
:103FC0002C4E009069463046FFF70EFE0B22012171
:103FD0003046FFF745FE0B2204213046FFF740FE36
:103FE0000B2205213046FFF73BFE4FF4D040224E16
:103FF000009069463046FFF7F7FD0B221146304628
:10400000FFF72EFE0B220D213046FFF729FE0B2273
:104010000E213046FFF724FE8DF8055001250820BB
:104020008DF8045000908DF806408DF807406946E1
:104030001248FFF7D9FD124EC6F88C42322006F521
:10404000237602F02FFB35603D208DF80800062016
:104050008DF809008DF80A408DF80B5002A800F089
:1040600031FDFFF7D1FB08B10020FEBD0120FEBDF0
:10407000000002400008024000180240000C02400C
:10408000008041422DE9FC41074615460E460024BA
:10409000684600930DF064FB60F30704C4F3C000AE
:1040A00030702009387001A9009800F04DF900998E
:1040B000019A014400910A44511A022904DB68461E
:1040C0000DF054FB28800120BDE8FC812DE9FC4166
:1040D000074600240E462546684600920DF040FB38
:1040E0000146204661F307000009022819D101A901
:1040F000009800F029F900990546084401990090BC
:104100000144081A02280CDB68460DF029FB60F315
:10411000070404F00100387068460DF021FB307090
:1041200001252846BDE8FC812DE9FC5F8046DDE9DC
:104130000EA00024CDE90004994617460E462546F8
:10414000DDF834B068460DF00BFB60F3070420097E
:1041500003282CD1C4F3C00188F80010C4F3410037
:10416000306004F00100387001A9009800F0ECF80C
:104170000099054608440199009044182246694672
:104180000C980DF0FCFA90B10098201A0FD430680A
:10419000002804DD68460DF0E9FAA9F8000000984F
:1041A000211ACAF8001000990125CBF80010284602
:1041B000BDE8FC9F2DE9FC4782464FF000090A98B4
:1041C00000901E46144688464D464F4668460DF000
:1041D000C7FA60F307052809092826D101A9009824
:1041E00000F0B2F80099074608440199009045187C
:1041F000281A022819DB68460DF0B8FAAAF8000060
:10420000C4F800900DE02168414502DD4FF0FF3712
:104210000BE068460DF0A4FA21688A00491C216071
:10422000B0500098A842EED301273846BDE8FC877D
:104230002DE9F0470026ADF5047D14460F46824671
:1042400098464FF4FA793546012A1AD0022C18D034
:1042500000241846FCF767FBCDE90580CDE902761E
:10426000CDE90065234600220496494607A800F0E0
:10427000C1F9011E09DC4FF0FF300DF5047DBDE8EA
:10428000F087FFF70DFD0546E3E707A811F09AFE5A
:10429000002802DA6FF00100EFE73CB16FF0020591
:1042A000012C05D0022C0CD0681FE6E70020E4E7C3
:1042B00005220421504601F0E7F9002808DB01201F
:1042C000DBE705221146504601F0DEF9002801DA4D
:1042D0002846D2E743460022494607A800F0DCF909
:1042E000010007D007A811F06DFE002805DA6FF075
:1042F0000500C2E76FF00300BFE7052211465046F4
:1043000001F0C2F9002802DA6FF00600B5E70220DA
:10431000B3E7F8B5012400250E4607460D606D1C75
:10432000042D0FDC01216846B84701280AD19DF809
:104330000000316800F07F0202FB0411E4013160EB
:104340000006ECD42846F8BD024A10600248FFF788
:10435000E0BF0000500200200562000810B50446CE
:104360000020CA1701EB526323F07F02891ACAB2F8
:10437000D911002901DD42F08002225400F1010030
:10438000EFDC10BD401C802801DA401C7047B0F5FE
:10439000804F01DA801C70470349884201DAC01C53
:1043A0007047001D70470000FFFF1F002DE9F84314
:1043B00000258846164604464FF0FF370121009538
:1043C000B047012816D169463046FFF7A2FF601CAE
:1043D0000099FFF7C3FF0099401C0B18434509DC07
:1043E00021B12044B0470099884203D1207860F37E
:1043F00007052F093846BDE8F883F8B50024069E66
:1044000005460090042901DAA01EF8BD62F30714E6
:1044100063F3C304062A24F0060200D1921CD1B231
:10442000684612F0ABFF02210098FFF797FF009952
:10443000084400903146684612F0A6FF0098401BE1
:10444000F8BD00002DE9F843064600908846144662
:104450000025104600F082F88146FFF793FF4045A3
:1044600002DDA81EBDE8F8832F46394667F3070131
:104470006846103112F082FF49460098FFF76EFF40
:10448000009908440090207A04281DD02FA1684686
:1044900012F060FF0321684612F070FFA07E67F300
:1044A000070560F34105E07E08B145F004056807A3
:1044B00007D594F83D0060F3C40594F83C0060F320
:1044C0004515206C40B905E022A1684612F042FF74
:1044D0000421E0E7A06C08B145F08005E06C08B964
:1044E000606D08B145F040052946684612F046FF68
:1044F000218B684612F048FF04F10C0168460EC992
:1045000012F051FFE07E68B12434684694E80E0052
:10451000243C12F048FF3034684694E80E00303CEA
:1045200012F041FF280605D504F1400168460EC986
:1045300012F039FF680605D54C34684694E80E0041
:1045400012F031FF0098801B8CE700004D51497339
:10455000647000004D5154540000000070B50446D2
:10456000007A0025032802D0042802D002E00C259E
:1045700000E00A2504F10C0007C800F099FA054490
:10458000E07EAD1C78B1243494E80700243C00F0B0
:104590008FFA3034064694E80700303C00F088FA81
:1045A000304405442D1D206C08B9A16C29B1D4E913
:1045B000111200F07DFA0544AD1CE06C08B9616D84
:1045C00029B1D4E9141200F073FA0544AD1C284651
:1045D00070BD0C2200F0C3B808B50023009204227D
:1045E000FFF70BFF08BD08B5002300920722FFF775
:1045F00004FF08BD2DE9FC5F1C46129ECDE900605A
:10460000DDF838B09046DDF830A0DDE90F238946AB
:1046100005465946204600F030F80746FFF7B2FE3F
:10462000484503DD6FF00100BDE8FC9F302168F3D1
:10463000C30164F342016AF3000101A812F09EFE77
:1046400039460198FFF78AFE019908440190DDE997
:104650000F23594601A812F0A6FE002C03DD01A885
:104660000D9912F091FE324611990198FCF7C5F9A7
:10467000019830440190401BD6E770B50E461146B4
:1046800004461A463046049D00F012FA2844801C65
:10469000002C00DD801C70BD08B500931346062277
:1046A000FFF7ABFE08BD2DE9FF4F83B08A46DDE979
:1046B00010870646002501909346DDF848902C4669
:1046C0003946404600F035F80090FFF75BFE504554
:1046D00003DDA81E07B0BDE8F08F65F30705803540
:1046E0006BF3C30525F00600801CC1B201A812F0CF
:1046F00045FEDDE90010FFF731FE01990844019005
:1047000001A8069912F040FE0EE004EB440007EB0E
:10471000800501A895E80E0012F045FE19F8241056
:1047200001A812F02BFE641C4445EEDB0198801BAF
:10473000D0E72DE9F04102250E460746002409E0A6
:1047400004EB440006EB800007C800F0B1F9054413
:10475000641CED1CBC42F3DB2846BDE8F08138B593
:10476000002304460090022901DA981E38BD19463C
:1047700063F3070162F30711684612F0FFFD0021A1
:104780000098FFF7EBFD00990144081B009138BD2C
:104790002DE9F0410446A6B0002023900223CDE984
:1047A0001E031D90ADF8840020902290E01704EBCA
:1047B000507322A800EBE30604F0070C30780123C5
:1047C00003FA0CF73843307024921C9124A81CA9DA
:1047D0000093DFF8A880CDE90110D8F8080064251F
:1047E00083B2401CC8F808000022294603A8FFF73E
:1047F0005AFF014603A811F0E5FB002804DA4FF048
:10480000FF3026B0BDE8F0811FA8002300901A46B3
:1048100022A9601C08F0E8F878B13078384202D15B
:104820006FF00200EDE7164A294603A8FFF7BEFD28
:10483000092805D06FF00300E3E76FF00100E0E71F
:1048400003A8CDE9000525AB23AA012121A8FFF784
:10485000B1FC012802D06FF00400D2E7259880282F
:1048600006D0D8F80800BDF88410401E814202D05E
:104870006FF00500C5E70020C3E70000300000200E
:10488000D95E010810B5CEB058222C4935A8FCF7E6
:10489000F9F82BA038903220ADF8EC0032A045900A
:1048A00038A0489004208DF8DC000120C8248DF841
:1048B000EE0035AA214603A8FFF7C4FD014603A870
:1048C00011F080FB3A4A214603A8FFF76FFD02284A
:1048D0000DD038A14A20194BCDE90001103B3AA276
:1048E00040A1042004F05CFC02204EB010BD234621
:1048F00003AA4BA94CA8FFF7E9FB012802D19DF8B8
:104900002C0170B19DF82C2138A13F208DE80700C3
:104910000A4B2DA2103B33A1042004F041FC0120DE
:10492000E3E739A14420054BCDE90001103B26A265
:104930002CA1042004F034FC0020D6E724880108D0
:1049400031323334357C7365637572656D6F6465C0
:104950003D332C7369676E6D6574686F643D686D77
:104960006163736861317C00666972655F74656D4F
:10497000705F68756D2661314D5A486A4B325343FA
:10498000460000004436343139383936453742451F
:10499000414638424439443033433838424638354A
:1049A0003445413044334435303641450000000041
:1049B000D95E01084D515454C1ACBDD3CEDECFEC0D
:1049C000D3A6A3A10A0000002E2E5C345573657295
:1049D0004C617965725C6D717474636C69656E7439
:1049E0002E6300004D51545400000000CEDEB7A8E5
:1049F000C1ACBDD3A3ACB4EDCEF3B4FAC2EBCAC71D
:104A00003A202564A3A10A00D3C3BBA7C3FBD3EB01
:104A1000C3D8D4BFD1E9D6A4B3C9B9A6A3AC4D516C
:104A20005454C1ACBDD3B3C9B9A6A3A10A000000B8
:104A3000F0B5B7B00446052033900020349035908F
:104A4000E01704EB507135A800EBE10504F0070115
:104A5000012728788F403843C8262870314601A89E
:104A6000FFF7B7FD014601A811F0ACFA33A8002307
:104A700000901A4635A9601C07F0B6FF80B128786F
:104A8000384203D16FF0010037B0F0BD074A31461C
:104A900001A8FFF78BFC0D2805D06FF00200F3E7AB
:104AA0004FF0FF30F0E70020EEE70000D95E01088C
:104AB0000200084602D01046FBF735BF7047FEE7FC
:104AC0007047000030B50F23C27801780125FAB194
:104AD000144A126801F1E02102F4E062C2F5E062DA
:104AE000C2F30722C2F10404D3404278A240847882
:104AF0001C401443220181F80024007800F01F01BB
:104B00008D404009800000F1E020C0F8005130BD28
:104B100001F01F0085404809800000F1E020C0F846
:104B2000805130BD0CED00E00249084302490860A5
:104B3000704700000000FA050CED00E070B586B08B
:104B400022A24621CDE900120446254B25A22FA121
:104B5000042004F025FB204601F0C5FC040025D00C
:104B60002CA101F099FC05462DA1204601F094FCF2
:104B70002DA101F091FC06462FA1204601F08CFCEE
:104B8000006931692A690292CDE903102DA35A20E8
:104B9000CDE90003124B13A21CA1042004F000FB7A
:104BA00006B02046BDE8704001F04ABC01F06CFC44
:104BB0002FA14D22CDE900210290094B09A213A19A
:104BC000042004F0EDFA06B070BD0000BFAACABC14
:104BD000BDE2CEF64A534F4ECAFDBEDD00000000D6
:104BE000E08801082E2E5C334D6964646C654C616D
:104BF0007965725C636A736F6E5C634A534F4E5F94
:104C000050726F636573732E63000000434A534F05
:104C10004E000000636F6D6D616E64436F646500EC
:104C2000646174610000000063757272656E744D9A
:104C30006F64656C00000000646576696365436FAE
:104C400064650000636F64653A2573203B63757289
:104C500072656E744D6F64656C3A2564203B6465C3
:104C600076696365436F64653A25730D0A00000039
:104C7000312E4572726F72206265666F72653A20DE
:104C80005B25735D0A000000044A0029116801D009
:104C9000014300E08143116070470000303802405A
:104CA000044A0029116801D0014300E081431160EA
:104CB0007047000010380240044A0029116801D0F2
:104CC000014300E08143116070470000403802401A
:104CD000044A0029116801D0014300E081431160BA
:104CE000704700004438024070B5204B1968204CD2
:104CF00011F00C0104D06610042903D0082903D058
:104D000004601BE0066019E0184A121F1168C1F325
:104D10008055116801F03F0115B1B6FBF1F101E0DA
:104D2000B4FBF1F114681268C4F388146143C2F350
:104D30000142521C5200B1FBF2F1016019680F22CE
:104D400002EA11110B4A545C0168E14041601C68A1
:104D5000072505EA9424145D21FA04F484601B6895
:104D600005EA5333D25CD140C16070BD08380240BF
:104D70000024F400B4000020704770477047000022
:104D80002DE9FF4116460F4613B30021CDE901314D
:104D90000391C11700EB517203A901EBE20400F08B
:104DA000070201259540217800232943217001A99C
:104DB00000911A4603A9401C07F016FE4FF0FF3180
:104DC00010B12078284203D1084604B0BDE8F08134
:104DD000024A31463846FFF7E9FAF6E7D95E01089C
:104DE0000149C1F8DC007047000027420CB50022E1
:104DF000274900920192086840F4803008604FF41F
:104E0000A043086800F4003001900098401C009016
:104E1000019810B900989842F3D10868800334D5FE
:104E2000012001901A484030026842F0805202602E
:104E30001848026842F4404202601548083002688F
:104E40000260026842F400420260026842F4A0522A
:104E50000260031F104A1A600A6842F080720A60FA
:104E60000A689201FCD50D4940F205720A6001689A
:104E700021F003010160016841F002010160016855
:104E8000C1F381010229FAD10CBD01920CBD0000D1
:104E9000003802400070004008544007003C0240C7
:104EA0004FF0E0210428086903D020F004000861D5
:104EB000704740F00400FAE710B512F0C1FE012877
:104EC00003D0BDE8104012F057BB10BD124810B51A
:104ED000016841F4700101601048016841F001016E
:104EE00001600E4A00210832116002680C4B1A4022
:104EF0000260031D0B4A1A60026822F480220260DD
:104F000006480C300160FFF771FF03494FF0006065
:104F10008039086010BD000088ED00E000380240D4
:104F2000FFFFF6FE1030002410B50E4C0121204684
:104F300000F040F8002813D00B490868401C0860B6
:104F400001F01CF90949087920B1087B10B1087BF0
:104F5000401E08732046BDE81040012100F012B841
:104F600010BD0000001000407C000020A0030120C4
:104F70000029018802D041F0800101E021F0800188
:104F800001807047C943018270470029018802D01F
:104F900041F0010101E021F0010101807047002989
:104FA00030F8441F02D041F4004101E0C1F30E018A
:104FB0000180704702460020138A92890B4202EA60
:104FC000010202D0002A00D001207047002A828905
:104FD00001D00A4300E08A438281704730B5028CD9
:104FE00022F001020284028C8388048B22F00202E8
:104FF00024F073050C882C438D8915434A882A4375
:105000000C4DA84202D00C4DA8420DD122F008054B
:10501000CA8923F440732A4322F004058A882A436C
:105020000D8A1D434B8A2B43838004838968416327
:10503000028430BD0000014000040140028B22F0D8
:1050400008020A430283704770B5028C22F01002F6
:105050000284028C8388048B0D8824F4E6464FF684
:10506000FF7404EA052535438E8922F0200204EA04
:10507000061616434A8804EA02123243104EB04222
:1050800002D0104EB04215D122F08006CA8923F416
:10509000406304EA0212324322F040068A8804EA9E
:1050A000021232430E8A04EA86061E434B8A04EA41
:1050B000830333438380058389688163028470BDE1
:1050C0000000014000040140028B4FF6FF7322F400
:1050D000006203EA012111430183704770B5028C1D
:1050E00022F480720284028C8388848B0D8824F0E1
:1050F000730425438E894FF6FF7422F4007204EA8C
:10510000062616434A8804EA02223243104EB04271
:1051100002D0104EB04215D122F40066CA8923F4A1
:10512000405304EA0222324322F480668A8804EA69
:10513000022232430E8A04EA06161E434B8A04EA10
:1051400003133343838085838968C163028470BD00
:105150000000014000040140828B22F008020A4353
:105160008283704770B5028C22F480520284058CD1
:105170008288838B0C8823F4E6464FF6FF7303EA9C
:105180000424344325F400568D8903EA053535435C
:105190004E8803EA06362E43084DA84202D0084D39
:1051A000A84205D122F480450A8A03EA82122A43E2
:1051B0008280848389680164068470BD0000014098
:1051C00000040140828B4FF6FF7322F4006203EA71
:1051D000012111438183704730B50288164C174D69
:1051E000A0420DD0A8420BD0B0F1804F08D0144B94
:1051F000984205D0134B984202D0134B984203D1EA
:1052000022F070034A881A43104B984206D0104B84
:10521000984203D022F440730A891A4302804A68F4
:10522000C2620A880285A04201D0A84201D1897ACF
:1052300001860121818230BD00000140000401404F
:105240000004004000080040000C00400010004036
:1052500000140040014800F0B3B80000B003012082
:10526000014800F0ADB80000D80B0120C94301800F
:1052700070470029818902D041F4005101E021F4F6
:105280000051818170470246002012880A4200D0F6
:105290000120704770B501F01F0501260024C1F3FD
:1052A000421306FA05F2012B0FD0022B0FD0838A8E
:1052B0004FEA11210088134206FA01F600EA0600BF
:1052C00001D000B10124204670BD8389F0E7038A34
:1052D000EEE710B5C1F3421301F01F040121A14014
:1052E000012B07D0022B07D01430002A026805D00A
:1052F0000A4304E00C30F8E71030F6E78A43026016
:1053000010BD00007FB50446008A0D46C98820F410
:10531000405001432182A08941F20C618843A98851
:105320002A8911436A8902431143A181A08A20F48A
:105330004071A8890843A0826846FFF7D5FC1A4847
:10534000844202D01948844201D1039800E00298B7
:10535000A189090400EBC00101EB0010296801D507
:10536000490000E08900B0FBF1F06422B0FBF2F1EB
:1053700009010B096FF018056B4300EB8300A3894B
:105380001D044FF0320306D503EBC000B0FBF2F072
:1053900000F0070005E003EB0010B0FBF2F000F0B6
:1053A0000F00084320817FBD001001400014014020
:1053B0008088C0F308007047C1F3080181807047FE
:1053C0002DE9F0410446006840F22551FFF762FFE5
:1053D0000025B8B12068FFF7EBFFE28AA168C0B2F0
:1053E0008854E18A491C8AB2E282E1898A4200D368
:1053F000E582628B8A4202D2618B491C6183616AB9
:1054000001B1884740F2277739462068FFF742FF0D
:1054100040F2266690B1A08AC0B9002239462068C1
:10542000FFF757FF31462068BDE8F0410122FFF742
:1054300050BFA08A401EA082BDE8F081314620689E
:10544000FFF728FF0028F7D0A08A70B1618A606852
:10545000415C2068FFF7B0FF608A401C80B2608228
:10546000A1898842E5D36582E3E7002231462068BE
:10547000FFF72FFF206A0028DED0BDE8F04100478B
:10548000184917484FF48062086001F1280048600D
:1054900000F5806088608A81CA8100200882488285
:1054A000C8820883488388820F4BCB610F4B0B6205
:1054B0000F4B4B6201F628010E4B0B6001F12803E4
:1054C0004B6001F585638B608A81CA8108824882BE
:1054D000C882088348838882C8610862486270472E
:1054E00000440040B00301207B4D00087D4D0008C2
:1054F000794D000800480040FEE700003EB5044634
:1055000028A1D420CDE900012E4B2FA235A10420E3
:1055100003F046FED4F8F80102283BD9207830B1D8
:10552000012807D0022839D030A1E42004E035A1B9
:10553000DB2001E039A1DE20CDE90001214B22A2D0
:1055400028A1042003F02CFE04F5FE7239A1E72007
:105550008DE807001B4B1CA222A1042003F020FEB3
:10556000621C39A1E8208DE80700164B16A21DA188
:10557000042003F015FE39A1E920D4F8F8218DE8C4
:105580000700104B10A217A1042003F009FE601CB5
:10559000FFF7D4FA002084F830023EBD34A1E120A8
:1055A000CAE700002A2A2A2A2ACAD5B5BDB6A9D434
:1055B000C4B5C4CFFBCFA2A3A12A2A2A2A2A2A0A29
:1055C000000000007C8801082E2E5C345573657243
:1055D0004C617965725C6D717474636C69656E742D
:1055E0002E6300004D515454000000004D5154549E
:1055F0003E3EB4EDCEF3B5C4CFFBCFA2D6CAC1BFF9
:105600000A0000004D5154543E3ECFFBCFA2D6CAF3
:10561000C1BFA3BA516F53300A0000004D5154541A
:105620003E3ECFFBCFA2D6CAC1BFA3BA516F533102
:105630000A0000004D5154543E3ECFFBCFA2D6F796
:10564000CCE2A3BA25730A004D5154543E3ECFFB21
:10565000CFA2C0E0C8DDA3BA25730A004D5154544F
:105660003E3ECFFBCFA2B3A4B6C8A3BA25640A00BE
:105670004D5154543E3ECFFBCFA2D6CAC1BFA3BAB0
:10568000516F53320A0000002DE9F043FDB0174678
:105690000E46814600254FF4FA78022342466946B9
:1056A0004846FFF76DFB0446401C04D0E0B242467A
:1056B000694608F005FA6D1CEDB2B44201D0BD4256
:1056C000EBD3B44203D100207DB0BDE8F0834FF0AE
:1056D000FF30F9E719480021817004220273037832
:1056E0000122222B037802D25B1C037004E0222BE0
:1056F00006D00170417001710378012B02D006E0E1
:105700004270F8E78160027181780D4A117001786A
:10571000012912D9017822290FD2817800298168C4
:1057200002D041F0010101E021F001018160017826
:10573000212902D28168490081607047A0030120BD
:105740009800002019480122827004210173037817
:105750000021222B037802D25B1C037004E0222B71
:1057600006D00170417001710378012B02D006E070
:105770004270F8E78160027181780D4A11700178FA
:10578000012912D9017822290FD281780029816854
:1057900002D041F0010101E021F0010181600178B6
:1057A000212902D28168490081607047A00301204D
:1057B0009800002003B401984100009850EAC120ED
:1057C00018BF04204A0D18BF40F0010040F2FF72DC
:1057D000B2EB515F08BF40F00200012808BF05206E
:1057E00002B070470000000030B52DED048B81B091
:1057F000B0EE408AF0EE608A6A4651EC180B05F074
:1058000057F900989FED329B7E300090002821DCF4
:1058100053EC192B51EC180B12F082FC1AD000211A
:1058200040F608004FF00000044651EC180B12F04F
:1058300031FC08EE100A40F6080004EA00014FF0BF
:105840000000B5EEC08AF1EE10FA04BF0220FCF7AA
:1058500045FD2DE00098FF2830DB002108464FF081
:10586000000000F4400553EC192B51EC180B12F01A
:10587000FDFD8CBF002401240220FCF72FFD9FEDCD
:10588000168A4DB1002C0CBF4FF400004FF480007D
:10589000A84218BF9FED118A042108464FF000006E
:1058A000002C01BFB1EE480A01B0BDEC048B30BD45
:1058B000B0EE480A01B0BDEC048B30BD51EC180BC2
:1058C00012F0E8FB01B000EE100ABDEC048B30BD15
:1058D00000000000000000000000807FFFFF7F7FCD
:1058E00030B540F2FF742DED048BF0EE608A18EEB7
:1058F000901A85B0B0EE408A9FED2B9B05468DED4A
:10590000008B34EA115147D053EC192B51EC180B92
:1059100012F006FC40D02A4651EC180B12F01FFE84
:1059200041EC180B18EE900A8DED008B34EA105004
:105930001CD053EC192B51EC180B12F0F1FB2BD1AE
:105940000220FCF7CBFC00F057F810EE901A18EE8E
:10595000900A8DED020B8DED008B61F31E0003901C
:105960009DED020B05B0BDEC048B30BD0220FCF7B1
:10597000B5FC00F031F810EE901A18EE900A8DED9B
:10598000020B8DED008B61F31E0003909DED020B69
:1059900005B0BDEC048B30BD05B0B0EE480AF0EEAA
:1059A000680ABDEC048B30BD000000000000000060
:1059B00000B583B09FED060B0A4601468DED000B46
:1059C0006846FBF7B3FF9DED000B03B000BD000080
:1059D00000000000000000009FED050B10B553EC27
:1059E000102B51EC100B12F043FC41EC100B10BDCE
:1059F00000000000000000709FED050B10B553EC97
:105A0000102B51EC100B12F033FC41EC100B10BDBD
:105A1000000000000000001010B5044691ED000BDE
:105A2000FFF7E2FE84ED000A10BD10B5044690EDCC
:105A3000000B0846FFF754FF84ED000B10BD303813
:105A40000A2801D20120704700207047704719B121
:105A500010B1826812B104E000207047816005E057
:105A6000024610680028FBD111604A60012070478F
:105A70002DE9F0410D4606991F4614465FEA0008DD
:105A800006D02DB124B131B1E06840F400760BE0CE
:105A90000020BDE8F0811946284600F0D3FD051E20
:105AA000F7D0E06820F40076A089800503D4206A4E
:105AB00008B179688847E660214640462562BDE81E
:105AC000F041FFF7C4BF00002DE9F04188460546CC
:105AD0000024154E0CF074F904EB440156F8311013
