:020000040800F2
:10000000E8C701200D0400084B450008153A000818
:1000100047450008812D0008255000080000000019
:1000200000000000000000000000000019030008AC
:10003000EF2D000800000000750300086948000863
:1000400027040008270400082704000827040008E4
:1000500027040008270400082704000827040008D4
:1000600027040008270400082704000827040008C4
:1000700027040008270400082704000827040008B4
:1000800027040008270400082704000827040008A4
:100090002704000827040008270400082704000894
:1000A0002704000827040008270400082704000884
:1000B0002704000827040008270400082704000874
:1000C0002704000827040008270400082704000864
:1000D0002704000827040008CD4C0008DD4C000868
:1000E000F537000827040008270400082704000843
:1000F0002704000827040008270400082704000834
:100100002704000827040008270400082704000823
:100110002704000827040008E14800082704000815
:100120002704000827040008270400082704000803
:1001300027040008FD2F00082704000827040008F2
:1001400027040008270400082704000827040008E3
:1001500027040008270400082704000827040008D3
:1001600027040008270400082704000827040008C3
:1001700027040008270400082704000827040008B3
:10018000270400082704000800F002F800F0B4F883
:100190000AA090E8000C82448344AAF10107DA45E2
:1001A00001D100F0A9F8AFF2090EBAE80F0013F080
:1001B000010F18BFFB1A43F00103184798C501004F
:1001C000B8C501000A444FF0000C10F8013B13F0D1
:1001D000070408BF10F8014B1D1108BF10F8015BA0
:1001E000641E05D010F8016B641E01F8016BF9D193
:1001F00013F0080F1EBF10F8014BAD1C0C1B09D1EA
:100200006D1E58BF01F801CBFAD505E014F8016B5B
:1002100001F8016B6D1EF9D59142D6D370470000ED
:100220000023002400250026103A28BF78C1FBD8FF
:10023000520728BF30C148BF0B6070476E2900F0DD
:100240007C85702900F0338266291BF0ED856529D5
:100250001BF0EA8567291BF0E78561291BF0E6851D
:1002600003681B0A28BF41F08001692900F0A481BE
:10027000642900F0A181752900F09E816F2901F0A9
:100280008A80782900F0FF81E92901F02580E4299E
:1002900001F02280F52901F01F80EF2901F087800D
:1002A000F82900F0FE810368DB0928BF41F08001D6
:1002B000632900F09487732900F09987E32901F0FE
:1002C0008D85F32901F09285002070471FB51BF042
:1002D0009EFD00F0D0FA01F067FB04000020002131
:1002E0001BF02EF9401C6060002000211BF03EF93D
:1002F000E0601FBD10B510BD01F012FE1146FFF702
:10030000E5FF0DF089FD00F0BFFA03B4FFF7F2FF3F
:1003100003BC05F073F800002C4B19680868B0E8BE
:10032000F04F80F30988BFF36F8F4FF0000080F328
:10033000118870470000000008480068006880F3DA
:1003400008884FF0000080F3148862B661B6BFF3EE
:100350004F8FBFF36F8F00DF00BF00BF08ED00E0DD
:10036000DFF80C00016841F470010160704700BFC4
:1003700088ED00E0EFF30980BFF36F8F134B1A682D
:100380001EF0100F08BF20ED108A20E9F04F10601A
:1003900009B44FF0500080F31188BFF34F8FBFF3C3
:1003A0006F8F1AF007F84FF0000080F3118809BC36
:1003B00019680868B0E8F04F1EF0100F08BFB0ECE5
:1003C000108A80F30988BFF36F8F7047F400002014
:1003D000EFF30580704700000B49D1F800C04A6870
:1003E0005CF8043B1068184442F8040B8C4528BFA5
:1003F000A1F1DC0C8A4228BFA1F1DC02C1F800C0E7
:100400004A6020F00040704780C1012009488047C1
:1004100009480047FEE7FEE7FEE7FEE7FEE7FEE7E6
:10042000FEE7FEE7FEE7FEE704480549054A064BFE
:10043000704700007948000889010008E8C10120E0
:10044000E8C70120E8C30120E8C30120704710B5C8
:10045000044600F0FBFB0068005DC00602D504F115
:10046000200010BD204610BD7CB51D4616460C0070
:10047000009001D02044401E074B7B442A46694629
:100480000190304600F081FE05461CB1002069460F
:1004900000F08EFE28467CBD3D0D00000FB40449DF
:1004A00010B503AA029800F0A7FE10BC5DF814FB7B
:1004B000C00000200FB41CB5084B06AA7B44694657
:1004C0000090059800F061FE04460020694600F0A7
:1004D0006FFE20461CBC5DF814FB0000F10C000010
:1004E0000FB47CB50C0009AA009001D02044401E36
:1004F000084B7B4469460190089800F046FE05468B
:100500001CB10020694600F053FE28467CBC5DF813
:1005100014FB0000C50C000070B504468569006836
:10052000C10601D5302600E02026C00707D070BDE7
:10053000D4E9012130469047206A401C20626D1E9C
:10054000F6D570BD70B5044685690078C00707D13F
:1005500070BDD4E9012120209047206A401C206210
:100560006D1EF6D570BD70B50C460546012A05D046
:100570002878800600D5EA69002302E0012305E01F
:100580005B1C934202D2E05C0028F9D1A869E6180E
:10059000C01AA861286A184428622846FFF7BCFFE1
:1005A00004E0D5E9012114F8010B9047B442F8D3D7
:1005B0002846FFF7C7FF70BD2DE9F041064600242D
:1005C00010687529314616A510D000F04BFB0028A5
:1005D00002DA404213A507E031688A0701D512A567
:1005E00002E0490704D511A5012401E000F043FB16
:1005F00000210A2206F1240709E0B0FBF2FCB0FB5F
:10060000F2F302FB1C00303078541846491C0028D5
:10061000F3D123462A463046BDE8F04100F034BB12
:10062000000000002D0000002B0000002000000052
:10063000F0B40D460188090502D5214C7C4402E046
:100640001F4C7C440E34002100F1240608E002F027
:100650000F071209E75D42EA03721B097754491C30
:1006600052EA0307F3D102780023120704D5702D54
:1006700006D009B1022311342246F0BC00F004BBBD
:1006800001231034F8E770B504460D462146106882
:1006900000F0F1FA024629462046BDE870400023EA
:1006A000C6E7D21D22F00703D3E90023C0E70368A1
:1006B000126843F0200303600823C3610023B7E7F7
:1006C00023BD01002DE9F05F894604464FF0000A82
:1006D000DFF874B1FB44C0F820A02046E1688847E9
:1006E000002874D0252806D0D4E901219047206A3B
:1006F000401C2062F1E700265F462046E1688847FB
:100700002028054607DB312D05D2781910F8200C7A
:1007100008B10643F1E7B00701D526F00406C4F896
:100720001CA00027C4F818A02A2D09D0284604F0E0
:100730005EFE38B304EB8708303DC8F8185019E066
:1007400059F8041B204604EB87029161E168884751
:10075000012F054618D1E069002820DA26F020068E
:100760001DE0D8F8180000EB800005EB40003038A1
:10077000C8F818002046E1688847054604F037FEAF
:100780000028EED1012F0AD02E2D08D12046E16895
:1007900088477F1C0546022F46F02006C4DBA0696F
:1007A000002803DA404246F00106A061F00701D0BC
:1007B00026F010066C2D0BD0682D09D04C2D39D0A9
:1007C0006A2D35D0742D35D07A2D33D016E038E02F
:1007D000E1682F4620468847B842054609D16C2F6C
:1007E00026D04FF48060E1680643204688470546DE
:1007F00004E06C2F1AD04FF4807006430DB3A5F1BE
:100800004100192802D8203546F400664A46294698
:10081000204626604E46FFF711FD80B101280BD01F
:10082000F61D26F0070000F1080956E74020E4E72E
:100830008020D8E70020D6E706F104094DE72846D6
:1008400052E7206ABDE8F09FB3BC01000B4910B528
:10085000A1F17C020A4CC2E93712372106E000EB15
:10086000104342F82130074B00FB03400B1EA1F15F
:100870000101F4DC10BD0120E8E7000020C10120E7
:10088000E119D666CD0D010010B50446AFF3008026
:100890002046BDE81040FFF738BD30B505460B4691
:1008A0002A4613F8014B12F8010B08B1A042F8D008
:1008B0001CB1002802D06D1CF1E7284630BD40EA8B
:1008C000010310B59B070FD1042A0DD310C808C926
:1008D000121F9C42F8D020BA19BA884201D90120CF
:1008E00010BD4FF0FF3010BD1AB1D30703D0521C1A
:1008F00007E0002010BD10F8013B11F8014B1B1B55
:1009000007D110F8013B11F8014B1B1B01D1921EBE
:10091000F1D1184610BD40EA0103024630B59B07ED
:1009200010D14FF0013400E008C208C91D1B9D43DF
:1009300015EAC41FF8D013F0FF0102F8011B0DD017
:100940001B0AF8E711F8013B002B02F8013B05D028
:1009500011F8013B002B02F8013BF3D130BD10B57B
:10096000431C02E010F8011B71B18107FAD14FF06E
:10097000013202C88C1A8C4314EAC211F9D0C01A91
:100980000A0603D0C01E10BDC01A10BD0A0401D053
:10099000801E10BD0902FCD0401E10BD40EA0103BC
:1009A00070B59B072ED14FF00136042A2AD308C810
:1009B00010C99D1B9D43121F15EAC61517D0D8B24A
:1009C000E1B2401A50EA056110D198B2A1B2401AC2
:1009D00050EA05410AD123F07F4024F07F41401ABC
:1009E00050EA052102D1180EA0EB146070BDA3429D
:1009F000DBD018BA21BA884201D9012070BD4FF06E
:100A0000FF3070BD0AB9002070BD10F8013B11F82D
:100A1000014B63B1A3420AD1521E08D010F8013B2A
:100A200011F8014B1BB1A34201D1521EEDD1181B8D
:100A300070BD032A40F2308010F0030C00F01580E6
:100A400011F8013BBCF1020F624498BF11F801CBD1
:100A500000F8013B38BF11F8013BA2F1040298BF36
:100A600000F801CB38BF00F8013B11F0030300F0A0
:100A70002580083AC0F0088051F8043B083A51F844
:100A800004CBA0E80810F5E7121D5CBF51F8043B49
:100A900040F8043BAFF30080D20724BF11F8013BBC
:100AA00011F801CB48BF11F8012B24BF00F8013B1E
:100AB00000F801CB48BF00F8012B704710B5203A71
:100AC000C0F00B80B1E81850203AA0E81850B1E807
:100AD0001850A0E81850BFF4F5AF5FEA027C24BFBD
:100AE000B1E81850A0E8185044BF18C918C0BDE8B4
:100AF00010405FEA827C24BF51F8043B40F8043B7D
:100B000008BF7047D20728BF31F8023B48BF11F831
:100B1000012B28BF20F8023B48BF00F8012B70478B
:100B200002F0FF0343EA032242EA024200F002B865
:100B30004FF000020429C0F0128010F0030C00F006
:100B40001B80CCF1040CBCF1020F18BF00F8012B84
:100B5000A8BF20F8022BA1EB0C0100F00DB85FEA52
:100B6000C17C24BF00F8012B00F8012B48BF00F81E
:100B7000012B70474FF0000200B51346944696468D
:100B8000203922BFA0E80C50A0E80C50B1F12001A0
:100B9000BFF4F7AF090728BFA0E80C5048BF0CC04E
:100BA0005DF804EB890028BF40F8042B08BF7047AC
:100BB00048BF20F8022B11F0804F18BF00F8012B1E
:100BC000704700004FF0013C50F8042B51F8043BF3
:100BD0009A4221D1A2EB0C03934313EACC1317D111
:100BE00050F8042B51F8043B9A4215D1A2EB0C03A8
:100BF000934313EACC130BD150F8042B51F8043B68
:100C00009A4209D1A2EB0C03934313EACC13DBD035
:100C10004FF00000704700BFD01A01BAB1FA81F15D
:100C200001F0180122FA01F0CB40C1F12001DBB242
:100C3000C0B2C01A2CFA01F3D11A914311EAC311C0
:100C4000E6D17047704770477047704710B500F0A5
:100C5000ABFE001D10BD00BFE9A8010000487047B1
:100C600088C1012009684A0501D540B27047C9050D
:100C7000FCD500B2704709684A0501D5C0B270477B
:100C8000C905FCD580B270472DE9F0470D4699465D
:100C90009246044600F124080168880604D5E069FC
:100CA00021F01001216000E00120A84201DD471B76
:100CB00000E00027A1697A1902EB0900081AA06177
:100CC0002078C00602D42046FFF726FC002608E064
:100CD000D4E901211AF806009047206A401C761CCE
:100CE00020624E45F4DB2078C0060AD52046FFF787
:100CF00013FC06E0D4E9012130209047206A401C13
:100D00002062381EA7F10107F4DC07E0D4E90121D5
:100D100018F805009047206A401C2062281EA5F1A3
:100D20000105F3DC2046FFF70DFC2078000602D514
:100D30000220BDE8F0870120FBE711680268006A25
:100D4000530501D508700AE0D30501D5088006E0F7
:100D5000130603D5C217C1E9000200E008600120B4
:100D6000704770472DE9FF4F0C461E464FF0FF3786
:100D70008BB0D2E90001DDF860800A908A46C1F3A9
:100D80000A5505B93D46002108464FF00000BAF16A
:100D9000000F00F4400005DA00EB80004FF4400142
:100DA00001EA50004FEA9059B9F1010F00DDB94650
:100DB0000A9850EA4A000ED044F61050A5F2FF35CA
:100DC00045432F14B8F1000F1ED07542291E1EDDB9
:100DD000C9F100021CE0B8F1010F4FF0000001D092
:100DE000302103E0F24305E02154401CB042FBDB1C
:100DF00030460022002121540B99C1F80880C1E936
:100E000000200FB0BDE8F08FBD1B6D1CDEE74A4629
:100E100000DA694206A800F0EDFF06AB93E8070090
:100E200003AB83E8070050460A9901F0F4FA8DE815
:100E30000700A0F500501F3800900398002D0ADD30
:100E400042F21F014A460844002303A90390684662
:100E500001F0A0FD09E0A0F500504A461F3800232C
:100E600003A90390684601F0BFFD8DE80700000468
:100E7000000C03D04FF0FF30410800E01046B8F1FD
:100E8000000F03D00022009215461EE0751E05D407
:100E900000F08EFD303262556D1EF9D5B346012249
:100EA000084302D000227F1C04E02078302801D1C2
:100EB00000227F1E002A099784D01DE0112D07DA39
:100EC00000F076FD303262556D1C50EA0102F5D11A
:100ED000084302D00098C8B10EE00021681E05E06A
:100EE000235C625C63542254401E491C8142F7DB40
:100EF000AB46A81B401E0990002004F80B000B987D
:100F0000099AC0F80880C0E9002B7AE711264FF053
:100F1000000857E72DE9F04F88460446D21D22F01D
:100F2000070191B0D1E90001CDE90A0104F01CF9F3
:100F300002460B98C00F01D02D2007E020688107E2
:100F400001D52B2002E0202101EAC000032A0990EC
:100F500001D0072A05DB03464146204600F0F4FE97
:100F60000BE12078800601D5E06900E00620B8F1A9
:100F7000650F814606D0B8F1660F18D0B8F1670F3B
:100F800070D131E00020B9F1110F009001DB112385
:100F900001E009F101030AAA01A90CA8FFF7E2FE8A
:100FA000DDE90C70002609F10105834647E00120C8
:100FB0004B4600904FF000470AAA01A90CA8FFF782
:100FC000D1FEDDE90DB00C995D46002610B909F19E
:100FD00001000D18B9EB050003D4C0F1FF3609F18B
:100FE0000105A5EB09002BE0B9F1010F01DA4FF083
:100FF00001090020B9F1110F0090484601DD1123CD
:1010000000E003460AAA01A90CA8FFF7ABFEDDE940
:101010000C704D4600268346207800070AD4AB4565
:1010200000DA5D4601A8012D04DD411911F8011C0B
:10103000302907D04F4502DA17F1040F04DA0120F6
:1010400082460FE06D1EEEE7002F02DCED1B3E44F2
:1010500003E0781CA84200DD7D1CB81B00F1010AEA
:101060004FF000472078000703D4AA4501DB4FF07A
:10107000FF3A0021B7F1004F0DF143088DF84310FE
:1010800024D002202B23002F01DA7F422D230A21B6
:10109000021EA0F1010000DC5FB197FBF1FC97FBA1
:1010A000F1F201FB1C7C17460CF1300C08F801CD65
:1010B000EEE7A8F1010003702188090501D545215B
:1010C00000E06521A0F1010800F8011C09980FA9B2
:1010D000A1EB0807FF1D00B10120411901EBEA70E7
:1010E000A1693844081A401EA0612078C00602D4C5
:1010F0002046FFF711FA099828B1D4E90121904759
:10110000206A401C20622078C00622D52046FFF7C6
:1011100003FA1EE0002E04DBB34502DD01A8805D6A
:1011200000E03020D4E901219047206A401C206271
:10113000761CAAF101005FEA000A0AD100F034FC33
:10114000C0680168405CD4E901219047206A401CD6
:101150002062281EA5F10105DCDC07E0D4E90121AD
:1011600018F8010B9047206A401C2062381EA7F136
:101170000107F3DC2046FFF7E5F9032011B041E653
:1011800001694A1C02610878704700B58FB0CDE94B
:1011900001310021059105497944CDE9031011463B
:1011A0006846FFF78FFA0FB000BD0000E5FFFFFFB4
:1011B0000A6802F8010B0A607047D1E900239A42DD
:1011C00002D2531C0B601070704710B5436913B105
:1011D000AFF3008001E0FFF7C6F9012010BD1278DF
:1011E00000F124010A7000224A700122EDE7116823
:1011F0004FF0FF32E9E70000074B70B50D467B4426
:10120000FFF7C3FF0446284600F066FE10B14FF01A
:10121000FF3070BD204670BD3B9F00002DE9FF5F91
:1012200015468A460446DFF8AC80F8440027D8E922
:1012300000103E46CDE9001010E03AF816106A465C
:1012400002A800F04DFE411C07D02178890603D585
:10125000E269391891420DD80744761C207880063F
:1012600002D5E069B84205DDAE42E6DB3AF8160089
:101270000028E2D1A069C01BA0612046FFF74CF90D
:10128000D8E90010CDE90010002017E03AF8181056
:101290006A4602A800F024FEB0F1FF3F81460BD061
:1012A00000250DF1080B05E0D4E901211BF805002C
:1012B00090476D1C4D45F7D308F10100B0428046C0
:1012C000E4DB206A384420622046FFF73BF9BDE8A2
:1012D000FF9F00006EB101002DE9F0418046D21D54
:1012E00022F007020025D2E90002F52915A614D044
:1012F000011E72F1000106DA0023D0EB030063EB5C
:10130000020211A608E0D8F800108B0701D50FA63D
:1013100002E0490701D50EA601251146002408F177
:10132000240704E000F044FB30323A55641C50EAD4
:101330000102F7D12B46324621464046BDE8F04136
:10134000FFF7A2BC000000002D0000002B000000F1
:101350002000000030B4002100F1240408E002F075
:101360000705D208303542EA4372DB086554491C50
:1013700052EA0305F3D10468002310A2250707D51C
:10138000A40600D421B1C46901230DA2641EC46166
:1013900030BCFFF779BC10B5044621461068FFF752
:1013A0006AFC02462046BDE810400023D2E7D21D69
:1013B00022F00701D1E90023CCE700000000000083
:1013C000300000002DE9FF4F06468BB00878FF285B
:1013D00006D0491C2D2805D000244FF0000908E054
:1013E00000200CE00124F8E709EB8903491C00EB1D
:1013F00043090878FF28F7D114B1C9F100008146EC
:10140000107800252C46AA4629462D2801D02B28E5
:1014100004D1521C2D2813D0002082468B46107810
:10142000FF280FD04FF0000C0A21521CA5FB0178B9
:1014300004FB018105FB0C11C5194BEB0104EEE720
:101440000120EAE7002108464FF00000BAF1000F42
:1014500002D000EB80004008C0F38157012F01DD6E
:101460004FF0FF370E9955EA040009EB01080BD045
:101470004FF0020918F5FA7F16DA4FEACA70002F0A
:10148000706008DD012007E04FEACA70C6E900B0CD
:101490000FB0BDE8F08F00203060FFF7DFFBC0F831
:1014A00000901821084616E0B8F5FA7F18DD002FE5
:1014B00002DAF748784401E0F6487844D0E90010B1
:1014C000C6E9001040EACA707060FFF7C7FBC0F8B9
:1014D0000090142108460FB0BDE8F04F1AF0A1BCEF
:1014E000002108464FF00000B8F10001099002DA2F
:1014F000C7F1000200E03A4601DAC8F1000106A88F
:1015000000F078FC06AB93E8070003AB83E8070024
:1015100044F23E005BEA04010090584604D144F2D4
:101520001E012C465D460091210C0904014306D1A1
:101530000099240444EA15442D041039009104F064
:101540007F41014306D10099240244EA15642D022B
:101550000839009104F07041014306D1009924013B
:1015600044EA15742D01091F009104F04041014324
:1015700006D10099A40044EA9574AD00891E00913B
:1015800004F00041084304D100986D196441401EE5
:1015900000904FF001033A466846B8F1000FCDE9DC
:1015A000014503A902DD01F034FA01E001F007FA78
:1015B000BAF1000F04460D4601D084F0004400212A
:1015C00008464FF00000099940F2FF77484010F0BC
:1015D0000C0F07D124F00040284303D0C4F30A5075
:1015E000B84212D1FFF73AFBC0F80090C4F30A509A
:1015F000B8420AD1A8487844D0E90010C6E90010E2
:1016000004F000410843706042E7C6E900543FE738
:101610002DE9FF4F1F464FF0000A4FF0FF384546B7
:1016200091B0D7E90146CDF83CA000F0BDF9C06803
:101630000168405C1090B96912986D1C8847396A3E
:10164000814688470028F6D1B9F1FF3F0AD0002E25
:1016500024F4D06411DDB9F12B0F08D0B9F12D0FAE
:101660000BD102E0404615B013E744F48064B96939
:1016700012986D1C8847761E8146600504A901D525
:101680002D2000E02B20002E01F1010B0DF1300880
:101690008DF810003FDDB9F1690F08D0B9F1490F9D
:1016A00005D0B9F16E0F02D0B9F14E0F1CD13B46F7
:1016B00001A8009580E85002DDE912126FF00200E7
:1016C0001AF01AFCC11CCED10EE0B96912986D1C3B
:1016D000884781461398761E44F4007405600F987D
:1016E000401C002E0F9016DDB9F1300FEDD0B9F18E
:1016F000780F02D0B9F1580F0DD10F9801280AD1F7
:101700003B46CDE90054DDE91212001F02961AF0A3
:10171000F1FBC11CA7D1109989453ED144F080044A
:1017200006E01399681CAAF1010A44F400740860E9
:10173000B9696D1C1298761E884730288146F0D012
:101740002BE01099894505D1200603D4761E44F07C
:10175000800418E0484603F04AFE08B3761E0DF1F7
:1017600023018B4544F4007408D2A9F130000BF832
:10177000010B200607D5AAF1010003E0200602D4E0
:101780000AF101008246A00502D51399681C086081
:10179000B96912986D1C88478146002ED1DC53E050
:1017A000002E51DDB9F1650F02D0B9F1450F4BD1D3
:1017B000A00549D5B9696D1C1298761E24F44074B1
:1017C0008847002E81460CDD2B2804D0B9F12D0F5F
:1017D00007D144F48074B96912986D1C8847761E4D
:1017E0008146E00501D52D2100E02B2108F8011BE1
:1017F000CDF8008021E0761E0DF13901884544F4D2
:1018000000740CD2A9F1300010F0FF0088F800003D
:1018100002D10099884509D908F1010806E0E005E0
:1018200001D51E4801E042F20F708246B969129854
:101830006D1C8847814613980560002E04DD4846DC
:1018400003F0D5FD0028D6D1F96912988847FF200A
:1018500053468BF8000088F8000000200A900B9097
:1018600004AA0CA90AA8FFF7ADFDA00502D46FF0E9
:101870000100F8E614F0240F12D0E0071CD13868FC
:10188000DDE90A12031D3B600068C0E9001213E0A5
:10189000C4B20100B6B201007AB10100F1D8FFFF75
:1018A0000AA9684603F090FDE00705D13868009A60
:1018B000011D3960006802602846D4E6426842B1E2
:1018C000016811F8013B23B1521EC0E9001218460D
:1018D00070470121C160881E704742685AB1C368D1
:1018E000016843B983688B4205D0491E521CC0E988
:1018F0000012002070474FF0FF3070470FB40023F4
:1019000000B589B00CA900910B99CB60214B7B44A9
:101910000693214B7B44079304236FF00042CDE9EB
:1019200001321E4A7A446B460892024600201AF0A1
:10193000DFFA09B05DF814FB70B506464FF0FF30D2
:1019400015460C46324686B00091CDE90101694644
:101950000020049004A8FFF7D1FF02460498211844
:1019600025B108B1084600E0204628600498002808
:101970000DD0002A02DD0098884208D03246081BAC
:1019800069460094CDE9010404A8FFF7B7FF06B04B
:1019900070BD0000ABFFFFFFC3FFFFFF130100009E
:1019A0000048704788C1012000487047A8C1012045
:1019B00030B5B0F10A024FEA900E71F100034EEA21
:1019C000817EB0EB0E0061EB91014FEA101E4EEAF2
:1019D000017E10EB0E0041EB11114FEA102E4EEA82
:1019E000016E10EB0E0041EB11214FEA104E4EEA52
:1019F000014E10EB0E0041EB1141401841F1000186
:101A00004FEAD00040EA41704FEAD10110EB800567
:101A10004FEA810444EA907444EB01046D1944EBED
:101A20000404521BA3414FF0000348BF0A3200D503
:101A300030BD401C41F1000130BD10B50446FFF738
:101A400005F90068005D00F0010010BD2DE9F04FC0
:101A500004460D46D21D22F0070089B0D0E9009758
:101A60004846394603F080FB0246F80F01D02D238B
:101A700007E02068810701D52B2302E0202101EA3D
:101A8000C0038DF820300BB1012000E00020032AB4
:101A9000824601D0072A04DB2946204600F054F98B
:101AA0003FE12078800601D40D2500E0E569C7F309
:101AB0000A560D2D49DA00214FEA175B08464FF010
:101AC0000000002F00F4400007DA00EB80004FF424
:101AD000400100EBD07001EA60008115012901DDB1
:101AE0004FF0FF3100224FEA850CBCF1180F06D3EE
:101AF0001346ACF118004FF08052C24003E04FF49F
:101B0000801323FA0CF30CF10C0CBCF1200F04D35E
:101B1000ACF1200C09FA0CF001E007FA0CF00029F6
:101B20004FF0004801DD18B90FE00ED140450CD34D
:101B300019EB02095F4121B9404502D19F4329EACF
:101B40000209BBEB175F00D0761C2088000502D588
:101B50007B48784402E07A487844193808AA302350
:101B600002F80A30037C0AF10101002E0AF1020A90
:101B700053546A4602DC4FF0300101E04FF031016E
:101B80004FF001088DF8001002D0A6F2FF3603E0F6
:101B900059EA470100D06B4E002D02DC217809077D
:101BA00004D54FF002082E218DF80110C446002103
:101BB0000BE0C7F303433F01C35C491C6D1E02F8F1
:101BC0000830052908F1010801DA002DF1DC0021B7
:101BD0000CE000EB1973491C1B786D1E082902F8F4
:101BE00008304FEA091908F1010801DA002DF0DC8C
:101BF00021688B0602D516E0A8F10108E04505DD55
:101C000002EB080313F8013C302BF5D0B8F1000FBC
:101C100009DD02EB080313F8013C2E2B03D1090761
:101C200001D4A8F10108002D05DD3E2102F80810BD
:101C30006D1E08F10108407C002E02F8080008F132
:101C4000010804DA2D20764202F8080002E02B2079
:101C500002F808000A214FF47A70864208F1010860
:101C60000BDB96FBF0F3303302F8083096FBF0F311
:101C700008F1010800FB136601E0642E0CDB642010
:101C800096FBF0F3303302F8083096FBF0F308F1DE
:101C9000010800FB136601E00A2E06DB96FBF1F05B
:101CA000303002F8080008F1010896FBF1F001FB62
:101CB0001060303002F80800A16908F1010808EB53
:101CC000050202EB0A00081AA0612078C00602D4BF
:101CD0002046FEF721FC216A08AE01EB0A002062D3
:101CE00004E0D4E9012116F8010B9047BAF1010A8A
:101CF000F7D22078C00602D52046FEF70DFC6E46CE
:101D000009E016F8010B3E280FD0D4E901219047D5
:101D1000206A401C2062B8F10108F2D22046FEF78A
:101D200011FC09B00320BDE8F08F206A284420622E
:101D300003E0D4E90121302090476D1EEBD3F8E792
:101D400061A8010002FCFFFF2DE9F0411F46044697
:101D500003260168072A01F4006004DB08B116A518
:101D600005E016A503E008B115A500E015A521F0D2
:101D700010002060A069C01EA0610FB1401EA061CC
:101D80002046FEF7C9FB4FB1D4E901213846904700
:101D9000206A401C2062C01C206206E0206AFAE72C
:101DA000D4E9012115F8010B9047761EF8D22046A0
:101DB000FEF7C8FBBDE8F0814E414E006E616E003B
:101DC000494E4600696E660010B5436913B1AFF322
:101DD000008001E0FFF722FA012010BD128800F117
:101DE000240182840022C2840122EDE711684FF0B1
:101DF000FF32E9E72DE9F047814616468AB03548BB
:101E000078440DC88DE80D0032487844801C03AC3E
:101E10000DC884E80D0041F69B300844372190FB43
:101E2000F1F290FBF1F5A5F1800501FB12041B3CDA
:101E300002D56442012000E00020DFF898A080462F
:101E40000027FA44AAF1BE0A0EE0E0070AD03246A3
:101E5000684607EB470101230AEB810100F0C4FD4E
:101E60008DE8070064107F1C002CEED1194F7F44D1
:101E7000AE3F19E0E80715D007EB04100DF1180A82
:101E800090E80E008AE80E00C068F04201D198196F
:101E900008903246012306A903A800F0A5FD03AB74
:101EA00083E807006D10641C002DE3D14FF001039F
:101EB00032466946B8F1000F03A802D000F06AFD6F
:101EC00001E000F091FDC9E90001C9F808200AB05D
:101ED000BDE8F08744A60100007B00F08000704759
:101EE00070B516460C460546FEF7B0FE036893F83B
:101EF0000101012806D0FF2C0FD8185D68B1012020
:101F00002C7070BDD3F807013246214603F2071347
:101F100003442846BDE8704018474FF0FF3070BDBD
:101F20007546FFF73DFDAE4605006946534620F075
:101F30000700854618B020B5FEF776FABDE82040C8
:101F40004FF000064FF000074FF000084FF0000B75
:101F500021F00701AC46ACE8C009ACE8C009ACE828
:101F6000C009ACE8C0098D46704710B5FEF776FE93
:101F7000006810BD10B50446FEF770FE046010BD89
:101F80003A2800D2303820F02002412A01D3A2F1B1
:101F90003700884201D34FF0FF3070472DE9FF4FE3
:101FA0001F464FF03C0987B04FF00042DDE91410A6
:101FB00001F10108DDF858A002EA4050039000202A
:101FC00005908346054604460490B969461E089864
:101FD0008847AAF1010A0290BAF1000F3BDD02988E
:101FE0002E2815D01021FFF7CBFF00282EDB4FF055
:101FF000010B0599014317D0B9F1000F0BDB4A46DD
:10200000C11700F0F5F905430C43A9F1040905E0F7
:10201000012004900BE008B145F001050120059076
:10202000049820B9361D02E0049800B1361FB96942
:10203000089808F101088847BBF1000FAAF1010ACE
:102040000290C9D00999C1F80080C5E702987028AC
:1020500008D0502806D0F96908988847BBF1000FCE
:1020600014D04FE0002002900120BBF1000F04903B
:1020700009D0B969089808F101088847AAF101094F
:10208000B9F1000F07DCF969089888476FF0010083
:102090000BB0BDE8F08F2B2804D02D280CD14FF0C9
:1020A000FF300490B969089808F101088847A9F140
:1020B0000109B9F1000FE6DD411CE4D00A21FFF768
:1020C0005FFF0028DFDB029908F1010801EB8101C5
:1020D00000EB41000290B969089888470A21FFF790
:1020E0004FFF099AA9F10109B9F1000FC2F8008068
:1020F00001DD0028E7DAF969089888470499029811
:1021000000FB016655EA040004D004F040410900D8
:1021100002D006E0039898E0A40044EA9574AD006C
:10212000B61E04F00041080002D16D196441761E0C
:10213000159810F0240F03D04FF00B095C4803E012
:102140004FF028096FF07D008246564507DAAAEB6A
:1021500006018944B9F1410F01DD4FF04109012029
:102160000021A9F1010200F043F9024628400B4684
:102170002140084301D0012100E00021501E0291BE
:1021800043F1FF3128402140084301D0012000E005
:1021900000200299834651EA0B014FD000210846E6
:1021A0004FF00000039900F4400039B100EB8000CB
:1021B0004FF4400100EBD07001EA60008015012867
:1021C00002DD4FF0FF3000E013D0401C36D0029803
:1021D00060B3BBF1000F0CD14A460120002100F092
:1021E00007F928402140084301D0012000E00020E9
:1021F000E0B101204A46002100F0FAF803464019F8
:102200000A4661412D1A8C4111D3B9F1400F09DD05
:10221000159810F0240F02D0AAF1340603E0AAF1B9
:10222000170600E0761C00254FF0004406E05B1E18
:1022300042F1FF3220EA030521EA0204CAF101005B
:10224000B04206DA1B490398084301900020009031
:102250000EE0039AC4F3D321E80A0A43164940EA80
:1022600044500A433146CDE90002684603F0B5F810
:10227000159810F0240F0BD01598C00715D13868A9
:10228000DDE90012031D3B600068C0E900120CE0AC
:1022900002A8694603F098F81598C00705D1386878
:1022A000029A011D3960006802604046F0E60000B5
:1022B00002FCFFFF0000F07F0000F03F2DE9FF4F20
:1022C00092461D4685B04FF00041DDE9124BDDE935
:1022D00014727F1E01EA4B50414940F0FF4940EA29
:1022E0000108002122F020004928049102D04E2844
:1022F00028D04CE03BA0012607C88DE80700A9695B
:102300000698641C88477F1E014606D41DF8060007
:1023100018B121F0200181420BD0E9690698884765
:10232000032E34D0082E32D06FF0010009B0BDE882
:10233000F08F761C032E01D0082EE0D1601CCAF865
:102340000000DCE7A9690698641C88477F1E2AD430
:1023500020F02000412826D1A9690698641C8847EE
:102360007F1E20D420F020004E281CD1A969069899
:10237000641C88477F1E48F4002849F48009CAF885
:10238000004001D4282806D0E969069888475FEA0A
:10239000CB7012D022E0A9690698641C88477F1E82
:1023A00001D4002803DAE96906988847BCE72928A0
:1023B000F1D1641CCAF80040E9E71BF0240F07D0F4
:1023C00028680499031D2B600068C0E9001805E027
:1023D0002868021D2A600068C0F800902046A5E722
:1023E0000000F07F494E46494E4954590000000014
:1023F000B2F120030AD5C2F1200301FA02F120FA5A
:1024000003F300FA02F041EA0301704700FA03F116
:102410004FF0000070475FEA400C08BF91F0000FDA
:102420004FEA8C234FEAC12243EA51514FEA1C5034
:1024300018BF00F5F0404FEA300018BF41F00041EE
:102440005FEA6C5C00F02980BCF1FF3F08BF40F000
:1024500080407047130C06BF12044FF0100C4FF071
:10246000000C130E04BF12020CF1080C130F04BF72
:1024700012010CF1040C930F04BF92000CF1020C3A
:10248000D30F04BF52000CF1010C11464FF00002B3
:10249000A0F11F00A0EB0C00704711F0004F08BF27
:1024A000704731F000413FF4D5AF0B0C06BF090473
:1024B0004FF0100C4FF0000C0B0E04BF09020CF192
:1024C000080C0B0F04BF09010CF1040C8B0F04BFA7
:1024D00089000CF1020CCB0F04BF49000CF1010C78
:1024E000CCF12003A0EB0C0022FA03F302FA0CF269
:1024F00041EA030100F10100704720F07F4C80EABF
:10250000030023F07F47ACEB070303F57C5300F097
:10251000004003F1FF032DE980494FEA154B09B450
:102520004FEA144325EA0B4E24EA03480FF204262F
:1025300006EB132749083E785FEA320203FB066781
:10254000C7F5000707FB06F64FEA54374FEAD646B1
:1025500006F1020607FB066CCCF1005C4FEA1C4753
:102560002CEA074C07FB06F40CFB06F504EB1546BA
:102570004FEA961634BF00204FF000404FEAD137A3
:1025800006FB07FC4FEA1C4C0CFB0BF7D21B03FBB2
:102590000CF761EB07010CFB0EF7B0EB074072EB99
:1025A00017420CFB08F734BFA2EB0742B2EB07421D
:1025B00061EB17414FEA0C444FEA910706FB07FC19
:1025C0004FEA1C4C0CFB0BF7B0EBC74072EB5732D9
:1025D00003FB0CF734BFA2EBC742B2EBC74261EB7F
:1025E00057310CFB0EF7B0EBC70072EB57720CFBC8
:1025F00008F734BFA2EBC702B2EBC70261EB577119
:10260000039F4FEA816141EA921104EBCC044FEA47
:10261000D1374FEA826206FB07FC42EA90124FEA8A
:1026200080604FEA1C4C0CFB0BF7D21B03FB0CF732
:1026300061EB07010CFB0EF7B0EB074072EB1742A2
:102640000CFB08F734BFA2EB0742B2EB074261EB89
:1026500017414FEA8C554FEA910704EB9C2406FB87
:1026600007FC4FEA1C4C0CFB0BF7B0EBC74072EBBE
:10267000573203FB0CF734BFA2EBC742B2EBC742A1
:1026800061EB57310CFB0EF7B0EBC70072EB5772E2
:102690000CFB08F734BFA2EBC702B2EBC70261EB39
:1026A000577115EB4C254FEA816141EA92114FEACF
:1026B00082624FEAD13742EA901206FB07FC44F1EE
:1026C00000044FEA80604FEA1C4C0CFB0BF7D21B56
:1026D00003FB0CF761EB07010CFB0EF7B0EB0740B7
:1026E00072EB17420CFB08F734BFA2EB0742B2EBC8
:1026F000074261EB174115EB1C154FEA813141EAA6
:1027000092414FEA823242EA90424FEA80304FEAE9
:102710000C7644F1000448EA03434EEA0B484FF0BC
:10272000000EB2EB080C71EB030724BF624639467A
:102730004EEB0E0E4FF0000B0018524149414BEB8F
:102740000B0BB2EB080C71EB03077BF1000B24BF02
:10275000624639464EEB0E0E4FF0000B0018524108
:1027600049414BEB0B0BB2EB080C71EB03077BF110
:10277000000B24BF624639464EEB0E0E51EA0207AB
:1027800018BF46F0010616EB0E7655F1000254F123
:10279000000103D5BDE88901BDE80088BDE88901D5
:1027A000BDE80048B619524141EB0101A3F1010314
:1027B000704780807F7E7D7C7B7A797877767675AE
:1027C0007473727171706F6E6E6D6C6C6B6A6A6926
:1027D0006868676666656464636362616160605FC0
:1027E0005F5E5E5D5D5C5C5B5B5A5A595958585739
:1027F00057565655555554545353525252515150A1
:1028000050504F4F4F4E4E4D4D4D4C4C4C4B4B4BF3
:102810004A4A4A4949494848484747474746464639
:102820004545454444444443434343424242424174
:102830004141000046EA0646A3F570534FEA1646AA
:1028400046EA42564FEAD22242EA415210B54FEAD6
:10285000D121A3F1010300F02FF820F0004000F196
:10286000020C00F0004701EB00501146BCF5006F70
:1028700040EA070000D210BDBAF1000F0AD01CB523
:1028800003B44FF004004FF004014FF000000FBC00
:10289000BDE810404FF00001BBF1010FB9BF044883
:1028A0004FF0FF310348002140EA070010BD00BF90
:1028B000FFFFEF7F0000F07F002B9C4630D47700B5
:1028C0002BD01CB54FEA370703B44FF010004FF080
:1028D0001001BAF1000F06D0BCF1000FDCBF40F0D0
:1028E000080040F008014FF000000FBCBDE81040A8
:1028F0000BF1010BBBF1010F08BF5FEA170722BF05
:1029000012F1010211F101014FF0004143F1000306
:1029100000F0004043EA00007047F9D35708D0E7C1
:1029200046EA064613F1400F4FEA16461FDD13F143
:10293000200FDFBF16430A46002120335B42BED082
:10294000C3F1200746EA064602FA07F74FEA1646A1
:1029500046EA0706C3F1200722FA03F201FA07F755
:1029600021FA03F14FF0000342EA0702A7E746EA23
:10297000020646EA06464FEA164646EA0106BCBF8C
:1029800046EA0646360C4FF000034FF000024FF0C7
:10299000000194E72DE9804C9A46934670B491E883
:1029A000380007C831EA400C48BF34EA430C03D56D
:1029B000FFF7A3FDFFF780FFF0BCBDE8008C2DE919
:1029C000804C9A46934670B491E8380007C831EAC3
:1029D000400C48BF34EA430C03D5FFF78EFDFFF7E8
:1029E00029FFF0BCBDE8008C2DE9804C9A46934647
:1029F00070B491E8380007C810F0804F08BF13F09A
:102A0000804F03D100F01AF8FFF756FFF0BCBDE885
:102A1000008C2DE9804C9A46934670B491E83800BA
:102A200007C810F0804F08BF13F0804F03D100F0AB
:102A300005F8FFF7FFFEF0BCBDE8008C20F07F47F3
:102A400080EA030023F07F4C07EB0C03A3F57C53D3
:102A500000F00040A3F1FE0392F0000F00F0B380FD
:102A600095F0000F00F077802DE901494FEA114001
:102A70004FEA144621EA004800FB06FC24EA064718
:102A800008FB06F607FB08F800FB07F718EB0648FB
:102A90004CEB164C4FEA124B18EB07484FEA154621
:102AA0004CEB174022EA0B4E0BFB06FC25EA0647CF
:102AB0000EFB06F607FB0EFE0BFB07F71EEB064EA2
:102AC0004CEB164C4FF000061EEB074E4CEB174B31
:102AD00018EB0B0840F1000018EB0E0B58EB000848
:102AE00040F100008F1A4FF000013CBFC943661B44
:102AF00014BFB5EB040C00213CBFC943F61B4FEAE1
:102B000017444EEA8E0E27EA04454FEA1C4704FBA1
:102B100007622CEA074C05FB07F70CFB05F604FBE4
:102B20000CFC16EB074642EB174216EB0C4642EB49
:102B30001C421BEB060658EB0202414146EA9E0688
:102B400001D5BDE80189B619524141EB0101A3F15C
:102B50000103BDE801894FEA14454FEA114724EA11
:102B6000054621EA074C05FB07F406FB07F70CFBBB
:102B700006F105FB0CFC11EB074144EB17444FEA4F
:102B8000124711EB0C4144EB1C4422EA074C05FBB5
:102B900007F206FB07F70CFB06F605FB0CFC16EB31
:102BA000074642EB174216EB0C4642EB1C456A18EF
:102BB00054F1000148BF7047B619524141EB010181
:102BC000A3F10103704795F0000F37D04FEA11428F
:102BD0004FEA144721EA024624EA074C02FB07F1B8
:102BE00006FB07F70CFB06F402FB0CFC14EB074496
:102BF00041EB17414FEA154714EB0C4441EB1C41E4
:102C000025EA074C02FB07F506FB07F70CFB06F667
:102C100002FB0CFC16EB074645EB174516EB0C4682
:102C200045EB1C42121951F1000148BF7047B6191B
:102C3000524141EB0101A3F1010370474FEA1445F2
:102C40004FEA114724EA054621EA074C05FB07F144
:102C500006FB07F70CFB06F24FF0000605FB0CFC29
:102C600012EB074241EB174112EB0C4251EB1C41B6
:102C700048BF7047921841EB0101A3F1010370476F
:102C80001CB517F04EFC114908600846006810B9E1
:102C90000FA000F051F8012017F0B4FD12490860B0
:102CA00000220421084617F0BEFD104908600846BE
:102CB000006850B10EA040F23F11164B16A2CDE9AC
:102CC00000101BA1042006F04FFB1CBD30000020AB
:102CD000B4B4BDA8CAC2BCFEB1EAD6BED7E9CAA781
:102CE000B0DC0D0A000000002C00002034000020A1
:102CF000B4B4BDA84D5154545F446174615F5175C3
:102D0000657565CFFBCFA2B6D3C1D0B3C9B9A62133
:102D10000D0A000031BF01082E2E5C345573657218
:102D20004C617965725C6D61696E2E630000000014
:102D30006D61696E000000000FB400B5B5B037A832
:102D40000190C92102A8019B369AFDF78DFB002056
:102D50000190411E0848006817F0E2FF02A907A091
:102D6000FDF79CFB00231A4619460348006817F03C
:102D7000D3FD35B05DF814FB2C0000202573000056
:102D800000BFFEE770B502460C46FF25FF2309E0B1
:102D900012F8010B80EA03010648405C80EA050353
:102DA0000548455C201EA4F10106B4B2F0D143EA07
:102DB000052070BD47BF010847C0010808B526209F
:102DC0008DF8000001208DF802008DF803006846A0
:102DD00001F0BCFB27208DF8000002208DF80200D6
:102DE00001208DF80300684601F0B0FB08BD704774
:102DF00008B53D208DF8000006208DF80100002068
:102E00008DF8020001208DF80300684601F09EFB5A
:102E100008BD000001494861704700000090024071
:102E200029B1064AD2690243044BDA6104E0034A3D
:102E3000D2698243014BDA61704700000090024082
:102E400030B10749896941F00201054A916105E005
:102E50000349896921F00201014A9161704700002C
:102E60000090024070B50C4613460021124D2860B8
:102E700000BF18E000EB41124FF00045156044F22E
:102E8000F4555560C1EBC11505EB450504EB85050F
:102E900095605D1E8D4204D900EB41152035D5604B
:102EA00000E0D060491C9942E4D3044DE860044D31
:102EB000044E356070BD0000E80000200090024024
:102EC00030120120EC00002030B10749896941F43B
:102ED0000051054A916105E00349896921F40051D7
:102EE000014A9161704700000090024030B50C46E5
:102EF000134600210F4D286000BF15E000EB411282
:102F00004FF480151560C1EBC11505EB450504EBC9
:102F1000850595605D1E8D4204D900EB4115203575
:102F2000D56000E0D060491C9942E7D3024D28618A
:102F300030BD0000E40000200090024002680A4317
:102F40000260704710B50121480601F055FB0021D1
:102F50004FF0007001F050FB10BD01B581B00020B2
:102F600000900198009002E00098401E00900098A8
:102F70000028F9D10CBD000008B5002000900848D9
:102F8000806940F480100649886108468069009095
:102F90004FF6FF70FFF7E1FF01490098886108BD17
:102FA000009002400148006880687047E4000020FB
:102FB00001460868C0F30D40704700B50246002383
:102FC000106800F0004058B9106800F4004038B9AB
:102FD000106800F4807018B11046FFF7E9FF03464F
:102FE000184600BD00200449096801F0010109B13B
:102FF000012000E0002070470090024010B501E081
:103000000AF0F8F906480068FFF7D7FF0028F7D163
:103010004020FFF7FFFE4FF48030FFF7FBFE10BDAE
:10302000E80000202DE9F04188B004460F464FF03B
:103030000008002500200790B94E02900120019061
:10304000B848056925F01C0503A801F005FB049E9E
:10305000B548864205D3B548864202D245F00805F8
:103060001AE0B248864205D3AD48864202D245F006
:103070000C0511E0AA48864203D3AD48864200D22F
:103080000AE0AB48864205D3AA48864202D245F000
:10309000040501E045F01005A24805614FF4004227
:1030A0000021384600F072FB10B9002001906AE060
:1030B000A148FFF752FF2068002850D000BF0298B7
:1030C000401C02900121384600F034FA00F0040060
:1030D00018B99A4902988842F1D3984902988842CF
:1030E00002D1002001904EE0002002904FF4805267
:1030F0000021384600F04AFB08B90020019000BFCB
:103100000298401C02900121384600F013FA00F0AA
:10311000200018B9894902988842F1D3874902985A
:10312000884202D1002001902DE0002002901F2152
:10313000384600F0FFF9804608F0100018B14FF44F
:103140000060206201E00020206208F0040010B15D
:103150000020606116E04FF48040606112E0206A58
:10316000C0F3CF006169C1F34F0140EA01020021C1
:10317000384600F00BFB08B9002001906FF07F404B
:10318000FFF7EBFE00BF019820B94FF4006020620A
:10319000C00060616348056869480540D4E90101E1
:1031A0000843E16808432169084361690843A1694C
:1031B0000843E1690843216A0843616A0843A16A38
:1031C0000843E16A0843216B0843616B08430543E8
:1031D0005448056005684FF6FF70FFF7BEFE514882
:1031E0000560D4E90E010843216C0843616C084373
:1031F000A16C0843E16C0843216D0843616D0843ED
:1032000048494860084645684FF6FF70FFF7A5FE3D
:10321000444845604349A06D8860E06DC860084639
:1032200085694FF641700540B4F86010606E40EA61
:103230000140A16E0843E16E0843216F0843616FAE
:10324000084305433748856185694FF6FF70FFF7EE
:1032500084FE34488561D4E91E0108433149C861C0
:103260000846C5694FF6FF70FFF777FE2D48C56128
:103270003448856934480540D4E920010843D4F82E
:1032800088100843D4F88C100843D4F890100843F1
:10329000D4F894100843D4F898100843D4F89C103C
:1032A0000843D4F8A0100843054326488561856982
:1032B0004FF6FF70FFF751FE22488561D4E92901DE
:1032C0000843D4F8AC100843D4F8B0100843D4F83D
:1032D000B41040EA8100D4F8B810084340F400006C
:1032E00018490860084605684FF6FF70FFF735FE7D
:1032F00014480560006840F08000124908600846E4
:1033000005684FF6FF70FFF728FE0E48056001982C
:10331000012802D108B0BDE8F0810020FAE70000E2
:103320000087930300800240002D3101C00E160279
:1033300000E1F50580D1F008FFFF0F00FFFF04005A
:103340000F8120FF00900240233FDEF810B50B797B
:103350004C7943EA0422094B03441A64CB781B06D8
:103360008C7843EA04434C7843EA04230C7843EA1C
:103370000402024B03445A6410BD00000080024066
:1033800010B5B0B001214FF0606001F025F9FFF7F2
:10339000D9FD00F053F900BFFFF724FE0128FBD050
:1033A00001A800F065F901200190002008904FF479
:1033B00000700B9000200C900F90129014901590BC
:1033C000169021904FF00070229000112490002060
:1033D0002690279004202990C0052A9040122B9017
:1033E00080012C9040122D9040002F90002101A8C8
:1033F000FFF718FEC4B2012C03D101210248FFF7E8
:103400000FFD204630B010BD4000010038B5044625
:103410000020009034B10C48006840F004000A49D4
:10342000086005E00848006820F0040006490860CC
:103430000548006800904FF6FF70FFF78EFD0249C7
:103440000098086038BD00000080024038B504468E
:103450000020009034B10C48006840F008000A4990
:10346000086005E00848006820F008000649086088
:103470000548006800904FF6FF70FFF76EFD0249A7
:103480000098086038BD00000080024010B50A486E
:10349000016800200CF0FEF80848016800200CF0DC
:1034A000F9F80748016800200CF0F4F805480168B5
:1034B00000200CF0EFF810BDC4000020C800002070
:1034C000CC000020D000002010B5A02100200CF07E
:1034D000F7F814490860A02100200CF0F1F8124917
:1034E000086041F6C45100200CF0EAF80F4908606A
:1034F00041F6C45100200CF0E3F80D49086009487A
:10350000006840B10848006828B10848006810B158
:103510000846006818B9FFF7B9FF012010BD002068
:10352000FCE70000C4000020C8000020CC00002000
:10353000D000002018B502460B4600210020009064
:103540001548016901F01C014FF4784000EAC220DF
:1035500001434FF4F86000EA8310014321F00201B7
:1035600041F001010C48016100BF0098401C00902F
:103570000948016901F0010018B1084C0098A04207
:10358000F3D3064C0098A04201D1002018BD024898
:10359000406980B2FAE7000000800240FFFF0400AB
:1035A0001EB500210022009201920292214A126867
:1035B000126802F0004282B1002200921E4A526953
:1035C00002F0800222B180221B4B5A6100229A60D5
:1035D0009DE81C0080E81C001EBD164A1268126897
:1035E00002F40042B2B9134A1268126802F48072FF
:1035F00082B1104A1268126802F4007252B10D4A88
:1036000012681268C2F30D42111F0A4A12689268CA
:10361000019200E000210091064A12680292054AD8
:103620001268D268034B1A609DE81C0080E81C00F9
:1036300000BFD1E7E8000020009002400348006886
:1036400040F001000149086070470000009002400E
:1036500010B50120FFF7FAFE0120FFF7D7FEFFF7B4
:103660008BFC0120FFF730FC0120FFF7E9FB10BDC8
:1036700001210160002141608160C16001614FF45E
:103680008041416100218161C1614FF400610162AB
:10369000002141628162C162016341638163C16350
:1036A000402101642021416400218164C1640165DD
:1036B00041658165C16501668021416600218166A1
:1036C000C166016741678167C1674FF08061C0F8DB
:1036D00080104910C0F884100021C0F888104FF401
:1036E0000011C0F88C100021C0F89010C0F89410A0
:1036F000C0F89810C0F89C10C0F8A0104FF00071EE
:10370000C0F8A4104912C0F8A8108901C0F8AC1084
:103710004912C0F8B0100021C0F8B410C0F8B810B9
:1037200070470000014617480068006800F000403C
:1037300008B100207047C1F30C00124A12685060B3
:1037400010480068006840F040500E4A126810604F
:103750000C480068006840F000400A4A1268106097
:103760000948406900F0040020B10420064A506175
:103770000020506003480068C068024A10600120C1
:10378000D8E70000E40000200090024038B503466E
:103790000C460021002000901448016901F01C0132
:1037A0004FF4784000EAC32001434FF4F86000EA88
:1037B0008410014341F0020141F001010B484261D4
:1037C000016100BF0098401C00900848016901F0A9
:1037D000010018B1064D0098A842F3D3044D00989B
:1037E000A84201D1002038BD0120FCE70080024042
:1037F000FFFF040010B54FF4805000F02DF870B1B9
:103800001E2002F061FB4FF480510F4800F0E1F8F8
:1038100008B901F009FC4FF4805000F017F84FF49C
:10382000005000F019F870B11E2002F04DFB4FF46B
:103830000051054800F0CDF808B901F045FC4FF4FF
:10384000005000F003F810BD00100240014908606C
:1038500070470000143C014001460020034A1268F2
:103860000A400AB1012000E000207047143C0140EA
:1038700010B505F05FFDFF21002006F041F803219F
:10388000012006F03DF80321022006F039F803215B
:10389000084606F035F8FB21042006F031F8FB213C
:1038A000052006F02DF806F001F910BD10B50A4804
:1038B0000068C0B258B100BF5021EFF3118081F30E
:1038C0001188BFF34F8FBFF36F8F00BF10BD15F08E
:1038D00055FE0020FAE7000004ED00E010B50446B4
:1038E00005480068C0B220B100BF84F3118800BF52
:1038F00001E015F06DFE10BD04ED00E0F0B50A46E4
:1039000000210023002400BF3DE0012505FA01F35A
:10391000156805EA03049C4234D105684F0003266C
:10392000BE40B543056015794E00B5400668354385
:1039300005601579012D02D01579022D16D1856803
:103940004F000326BE40B543856055794E00B54013
:10395000866835438560456801268E40B5434560DD
:10396000456896798E40B6B235434560C5684F00CC
:103970000326BE40B543C560D5794E00B540C66844
:103980003543C560491C1029BFD3F0BDF0B50023F5
:1039900000244D07ED0E02FA05F3CE1000F12005CC
:1039A00055F826504E07F70E0F26BE40B543CF10F0
:1039B00000F1200646F82750CE1000F1200555F8FA
:1039C000265045EA0304CE1000F1200545F82640B4
:1039D000F0BD0246002013690B400BB1012000E04E
:1039E0000020704741837047018370470AB101830B
:1039F00000E04183704700000549096801600449FF
:103A0000091D0968416002490831096881607047F1
:103A1000107AFF1F09A100200BE00A5C124B9A806C
:103A200000BF114A128802F04002002AF9D0421C5D
:103A3000D0B22A28F1D300BFFEE700000D0A456E80
:103A400074657220486172644661756C745F486188
:103A50006E646C65722C2053797374656D204861B7
:103A60006C742E0D0A0000000010014000B587B0F4
:103A70000121082000F0B0FD0121480400F0CCFD38
:103A8000072205214948FFF781FF07220621474801
:103A9000FFF77CFF00208DF81A0001208DF81B0035
:103AA00002208DF818002020059002208DF81900C2
:103AB00005A93E48FFF722FF02208DF8180040209C
:103AC000059005A93948FFF719FF4FF416400190FA
:103AD0000020ADF80800ADF80A00ADF80C00ADF814
:103AE00010000C20ADF80E0001A9314801F070F96A
:103AF000012240F225512E4801F044F901212C48C1
:103B000001F0FDF840212A4801F0F0F801210820D9
:103B100000F062FD0121880400F07EFD07220821EB
:103B20002248FFF733FF072209212048FFF72EFF25
:103B300000208DF81A0001208DF81B0002208DF85E
:103B40001800C001059002208DF8190005A917483A
:103B5000FFF7D4FE02208DF818000002059005A999
:103B60001248FFF7CBFE4FF4164001900020ADF84D
:103B70000800ADF80A00ADF80C00ADF810000C20FC
:103B8000ADF80E0001A90B4801F022F9012240F224
:103B90002551084801F0F6F80121064801F0AFF878
:103BA0004021044801F0A2F807B000BD000C02401B
:103BB00000440040004800401CB50121112000F0E5
:103BC0000BFD1C20009000208DF8040003208DF8D0
:103BD000050001208DF8070069460648FFF78EFEB4
:103BE000012000908DF8070069460348FFF786FE24
:103BF0001CBD0000001002400000024010B5044649
:103C000014B101202B4908702A480078002835D0CB
:103C100010212948FFF7DDFE70B108212648FFF783
:103C2000D8FE48B104212448FFF7D3FE20B101217A
:103C30002248FFF7CEFE08BB0A2002F025F900203B
:103C40001C49087010211C48FFF7C3FE08B9012069
:103C500010BD08211848FFF7BCFE08B90220F7E79D
:103C600004211548FFF7B5FE08B90320F0E701214C
:103C70001248FFF7AEFED8B90420E9E710210E483C
:103C8000FFF7A7FE012813D108210B48FFF7A1FE7B
:103C900001280DD104210848FFF79BFE012807D118
:103CA00001210648FFF795FE012801D1014908705E
:103CB0000020CDE7980000200010024000000240E4
:103CC0001CB5002401214D2000F086FC0121880351
:103CD00000F0B2FC012000F037FD862000900320A8
:103CE0008DF8050002208DF8040000208DF80600F4
:103CF0008DF8070069463148FFF700FE0B220121CD
:103D00002E48FFF743FE0B2202212C48FFF73EFE10
:103D10000B2207212948FFF739FE3220009069461F
:103D20002748FFF7EBFD0B2201212548FFF72EFE68
:103D30000B2204212248FFF729FE0B2205212048EF
:103D4000FFF724FE4FF4D040009069461D48FFF76E
:103D5000D5FD0B2211461B48FFF718FE0B220D2143
:103D60001848FFF713FE0B220E211648FFF70EFE30
:103D70000820009003208DF8050001208DF8040034
:103D800000208DF806008DF8070069460E48FFF701
:103D9000B5FD00200D490860322002F075F80120C1
:103DA0000B49C1F88C02FFF723F8FFF7E9FA044644
:103DB0000CB901201CBD0020FCE7000000000240FF
:103DC0000008024000180240000C02408C82414270
:103DD000008041422DE9FF4704460D4616469946AC
:103DE00000200390029600278046009002A80FF062
:103DF000DFFB8DF80C000398C0F30310022800D0FD
:103E00001FE001A9029800F0E9F8804602990844F1
:103E10000290DDE9011047180298381A022800DAEA
:103E20000FE002A80FF0C4FB8DF80000009800F02E
:103E30000100207002A80FF0BBFB28704FF00108B2
:103E400000BF404604B0BDE8F0872DE9FF5F06469D
:103E50000C4617469846DDE90FABDDF83890002098
:103E6000039011980290002500200190009002A874
:103E70000FF09EFB8DF80C000398C0F3031003288D
:103E800000D032E00398C0F3C00030700398C0F354
:103E900041002060039800F00100387069460298E4
:103EA00000F09CF801900299084402900099029851
:103EB00045182A4602A948460FF08EFB10B1029819
:103EC000281A00D511E02068002804DD02A80FF0B0
:103ED00076FBA8F800000298281ACBF80000029898
:103EE000CAF800000120019000BF019804B0BDE8AD
:103EF000F09F2DE9FE4F05460E4614461F46DDE9AC
:103F00000C9B00200290CDF804908046824601A8C8
:103F10000FF04EFB8DF808000298C0F3031009283B
:103F200000D02CE06946019800F058F882460199CB
:103F300008440190DDE9001000EB01080198A8EBAE
:103F40000000022800DA1AE001A80FF038FB2880F0
:103F5000002020600DE02068B04202DD4FF0FF3A03
:103F60000DE001A80FF024FB2268511C216047F8E6
:103F7000220001984045EED34FF0010A00BF5046A1
:103F8000BDE8FE8F2DE9F84305460C4601260027C3
:103F90000020206000BF4FF0FF38781C074604283F
:103FA00001DD00BF17E001216846A8478046B8F14F
:103FB000010F00D00FE09DF8001001F07F01206894
:103FC00001FB06002060F6019DF8000000F0800073
:103FD0000028E0D100BF3846BDE8F88370B504463C
:103FE0000D460348046029460248FFF7CBFF70BD29
:103FF000C0020020215C000830B50246002300BF4B
:104000000846CD1701EB5565ED11A1EBC515ECB2D6
:10401000CD1701EB5565E911002901DD44F080045D
:1040200018465B1C14540029EADC184630BD000019
:10403000401C802801DA401C0AE0B0F5804F01DA0C
:10404000801C05E00349884201DAC01C00E0001D25
:1040500070470000FFFF1F002DE9FC4104460F469A
:1040600015464FF0FF3800200190002600900121F6
:104070002046A847012800D01EE0012669462846B0
:10408000FFF780FF601C0099FFF7B6FF0644009819
:104090003044B84200DD0FE0009830B1A01900991B
:1040A000A8470099884200D006E020788DF80400E7
:1040B0000198C0F3031800BF4046BDE8FC812DE91C
:1040C000FC4704460E4615461F46DDF828800020B2
:1040D000019081460094042E02DA6FF0010924E079
:1040E000019865F307100190019867F3C3000190F0
:1040F000062D01D1012100E00021019861F3420069
:1041000001909DF80410684616F0CEF9022100983F
:10411000FFF772FF0099084400904146684616F088
:10412000C9F90098A0EB040900BF4846BDE8FC8728
:104130002DE9FE4305460E461446029500200190E7
:10414000009000274FF0FF38204600F0A5F8074602
:104150008146FFF76DFFB04202DD6FF001088FE08E
:1041600000208DF80400019820F0F000103001903C
:104170009DF8041002A816F097F939460298FFF747
:104180003BFF029908440290207A042808D13EA1FE
:1041900002A816F075F9042102A816F085F907E0C7
:1041A0003BA102A816F06CF9032102A816F07CF9D5
:1041B00000208DF80000A17E009861F3410000907E
:1041C000E07E08B1012100E00021009861F3820047
:1041D00000900098C0F3800058B194F83D1000980A
:1041E00061F3C400009094F83C10009861F345100E
:1041F0000090206C08B9A06C20B1009820F08000DD
:1042000080300090E06C08B9606D20B1009820F01B
:104210004000403000909DF8001002A816F044F9CC
:10422000218B02A816F046F902A8D4E90423E1681C
:1042300016F058F9E07E58B102A8D4E90A23616A61
:1042400016F050F902A8D4E90D23216B16F04AF9B3
:104250000098C0F3C01028B102A8D4E91123216C42
:1042600016F040F90098C0F3801028B102A8D4E9F4
:104270001423E16C16F036F90298A0EB050800BF94
:104280004046BDE8FE8300004D515454000000003C
:104290004D5149736470000070B504460025207AC2
:1042A000032801D10C2503E0207A042800D10A2537
:1042B000D4E90412E06800F03AF9801C0544E07E7D
:1042C00068B1D4E90A12606A00F031F9861CD4E9B9
:1042D0000D12206B00F02BF93044801C0544206C3B
:1042E00008B9A06C30B1D4E91112206C00F01FF9AC
:1042F000801C0544E06C08B9606D30B1D4E914123B
:10430000E06C00F014F9801C0544284670BD70B5BF
:1043100004460D460E222946204600F0E2F870BD04
:1043200070B504460D460C222946204600F0D9F807
:1043300070BD2DE9F04F87B005460F4690461C46EC
:10434000DDE915B6DDE9109A069500200590049088
:1043500003900096204612A90EC900F042F804907E
:104360000290FFF765FEB84203DD6FF00100039095
:1043700033E0059820F0F00030300590059868F3A0
:10438000C3000590059864F342000590059869F311
:10439000000005909DF8141006A816F085F8049901
:1043A0000698FFF729FE06990844069006A812A968
:1043B0000EC916F097F8002C03DD514606A816F03A
:1043C00079F8324659460698FCF733FB0698304494
:1043D00006900698401B039000BF039807B0BDE805
:1043E000F08F7FB50546089E002401A807C800F09D
:1043F0009EF8801C30440444002D00DDA41C20469F
:1044000004B070BD2DE9FF5F05460E46174698467D
:10441000DDE90E9A0395002002900190009000249F
:104420005146484600F046F883460190FFF700FEEB
:10443000B04202DDA01E009038E000208DF8080098
:10444000029820F0F00080300290029867F3C300D9
:104450000290029820F00600801C02909DF808103F
:1044600003A816F021F801990398FFF7C5FD0399F9
:1044700008440390414603A816F01CF800240FE0FE
:1044800004EB44000AEB800C03A89CE80E0016F035
:1044900029F8109810F8241003A816F005F8641CE9
:1044A0004C45EDDB0398401B009000BF009804B022
:1044B000BDE8F09F2DE9F04105460E460227002495
:1044C0000AE004EB440006EB800393E8070000F0E9
:1044D0002EF8C01C0744641CAC42F2DB3846BDE831
:1044E000F0812DE9FC4104460D461646002001905E
:1044F000471E0094022D01DA871E15E000208DF87A
:104500000400019866F3071001909DF804106846B6
:1045100015F0CAFF00210098FFF76EFD00990844CE
:1045200000900098071B00BF3846BDE8FC8137B5F6
:104530000024009820B10098FCF711FA044600E02E
:10454000019C20463EBD00BFFEE7704770B50021CC
:1045500000230F22C4781CB3174C246804F4E064D1
:10456000C4F5E064C4F30721C1F10404E3B20A41D5
:1045700044789C40E1B28478144021430C07210E1A
:104580000E4C05786155047804F01F050124AC40F9
:1045900005786D11AD0005F1E025C5F8004109E091
:1045A000047804F01F050124AC40054D067876110F
:1045B00045F8264070BD00000CED00E000E400E08E
:1045C00080E100E002490143024A116070470000A7
:1045D0000000FA050CED00E029B1064A126802431A
:1045E000044B1A6004E0034A12688243014B1A60CC
:1045F000704700003038024029B1064A1268024371
:10460000044B1A6004E0034A12688243014B1A60AB
:10461000704700001038024029B1064A1268024370
:10462000044B1A6004E0034A12688243014B1A608B
:10463000704700004038024029B1064A1268024320
:10464000044B1A6004E0034A12688243014B1A606B
:104650007047000044380240F0B5002100220024D9
:10466000022500260223324F3F6807F00C0121B1DA
:10467000042905D0082937D105E02E4F076036E020
:104680002D4F076033E02A4F3F1F3F68C7F3805626
:10469000274F3F1F3F6807F03F036EB1264FB7FB20
:1046A000F3F7DFF88CC0ACF1040CDCF800C0CCF3FD
:1046B000881C07FB0CF40CE01E4FB7FBF3F7DFF888
:1046C00070C0ACF1040CDCF800C0CCF3881C07FB14
:1046D0000CF4174F3F1F3F68C7F301477F1C7D0055
:1046E000B4FBF5F7076002E0124F076000BF00BFA0
:1046F0000F4F3F6807F0F0010909104F7A5C076817
:10470000D74047600A4F3F6807F4E051890A0B4FD2
:104710007A5C4768D7408760054F3F6807F460417F
:10472000490B064F7A5C4768D740C760F0BD000070
:10473000083802400024F40000127A00D40000205F
:104740007047704770477047014908607047000024
:10475000DC0027420CB5002001900090344800682E
:1047600040F480303249086000BF3148006800F4EE
:10477000003000900198401C0190009818B90198F1
:10478000B0F5A04FF1D12A48006800F4003010B114
:104790000120009001E0002000900098012846D1FF
:1047A00023484030006840F0805021494031086083
:1047B0002048006840F440401E4908601C4808300A
:1047C00000681B49083108600846006840F4004052
:1047D00008600846006840F4A05008601648091FA9
:1047E0000860081F006840F08070091F086000BF63
:1047F0000F48006800F000700028F9D040F2057002
:104800000E4908600A480830006820F00300084993
:10481000083108600846006840F00200086000BFE8
:1048200003480830006800F00C000828F8D10CBDDF
:10483000003802400070004008544007003C02402D
:10484000042808D14FF0E021096941F004014FF03C
:10485000E022116107E04FF0E021096921F0040135
:104860004FF0E0221161704710B516F0ABFB012844
:1048700001D015F07FFF10BD10B51548006840F459
:104880007000134908601348006840F001001149A6
:10489000086000200F49083108600E4800680E4982
:1048A00008400C4908600D48091D0860081F006891
:1048B00020F48020091F0860002006490C310860A0
:1048C000FFF748FF4FF0006001498039086010BDD4
:1048D00088ED00E000380240FFFFF6FE10300024B3
:1048E00010B501210D4800F049F8A8B10C48006846
:1048F000401C0B49086001F037F90A48007938B1CB
:104900000848007B20B10748007B401E054908731A
:104910000121024800F014F810BD00000010004012
:104920009C000020D001012021B1028842F08002C9
:10493000028004E002884FF67F731A4002807047BD
:10494000CA430282704721B1028842F0010202800C
:1049500004E002884FF6FE731A400280704731B1BE
:10496000B0F8442042F40042A0F8442005E0B0F83A
:104970004420C2F30E02A0F84420704730B502462E
:10498000002000230024158A05EA0103958905EA21
:10499000010413B10CB1012000E0002030BD1AB1B8
:1049A00083890B43838102E083898B438381704732
:1049B00070B5002400220023058C4FF6FE763540AA
:1049C0000584028C8388048B4FF68F752C40B51EAE
:1049D0002C400D882C43751E2A408D892A434D8812
:1049E0002A43104DA84202D00F4DA84213D14FF6D2
:1049F000F7752A40CD892A434FF6FB752A408D88EA
:104A00002A434FF6FF652B404FF6FF552B400D8A8A
:104A10002B434D8A2B43838004838D684563028436
:104A200070BD000000000140000401400A46002162
:104A3000018B4FF6F7731940114301837047000053
:104A400070B5002400220023058C4FF6EF76354028
:104A50000584028C8388048B48F6FF752C404FF642
:104A6000FF452C400D884FF6FF7606EA05252C43BE
:104A70004FF6DF752A408D8906EA05152A434D88D1
:104A800006EA05152A43154DA84202D0144DA84246
:104A90001DD14FF67F752A40CD894FF6FF7606EA85
:104AA00005152A434FF6BF752A408D8806EA05157D
:104AB0002A434FF6FF352B404FF2FF752B400D8AEE
:104AC00006EA85052B434D8A06EA85052B4383803C
:104AD00004838D688563028470BD0000000001407E
:104AE000000401400A460021018B4FF2FF73194078
:104AF0004FF6FF7303EA0223194301837047000056
:104B000070B5002400220023058C4FF6FF66354067
:104B10000584028C8388848B4FF68F752C404FF66A
:104B2000FC752C400D882C434FF6FF552A408D898B
:104B30004FF6FF7606EA05252A434D8806EA052545
:104B40002A43154DA84202D0144DA8421DD14FF260
:104B5000FF752A40CD894FF6FF7606EA05252A43E0
:104B60004FF6FF352A408D8806EA05252A434EF682
:104B7000FF752B404DF6FF752B400D8A06EA051593
:104B80002B434D8A06EA05152B43838084838D6869
:104B9000C563028470BD00000000014000040140B4
:104BA0000A460021818B4FF6F77319401143818328
:104BB0007047000070B5002200230024058C4EF6DB
:104BC000FF7635400584038C8488828B48F6FF7518
:104BD0002A404FF6FF452A400D884FF6FF7606EA39
:104BE00005252A434DF6FF752B408D8906EA0535CC
:104BF0002B434D8806EA05352B430A4DA84202D0C7
:104C0000094DA84208D14BF6FF752C400D8A4FF68E
:104C1000FF7606EA85152C43848082838D680564BF
:104C2000038470BD00000140000401400A460021D9
:104C3000818B4FF2FF7319404FF6FF7303EA022393
:104C4000194381837047000000220288184B984264
:104C50000ED0184B98420BD0B0F1804F08D0164BB5
:104C6000984205D0154B984202D0154B984204D17A
:104C70004FF68F731A404B881A43124B984207D055
:104C8000114B984204D04FF6FF431A400B891A4348
:104C900002804B68C3620B880385054B984202D0A3
:104CA000044B984201D18B7A03860123838270479B
:104CB00000000140000401400004004000080040E2
:104CC000000C0040001000400014004010B50248E5
:104CD00000F0F1F810BD0000E001012010B502481D
:104CE00000F0E9F810BD0000080A012001F400728C
:104CF000B2F5007F00D100BFCA430280704721B1E6
:104D0000828942F40052828104E082894DF6FF7369
:104D10001A408281704702460020B1F5007F00D121
:104D200000BF13880B400BB1012000E0002070474A
:104D300070B50246002400230025002040F66A16C4
:104D4000B14200D100BFC1F3421501F01F0301269B
:104D500006FA03F3012D02D19689334006E0022DB5
:104D600002D1168A334001E0968A33400C120126A4
:104D700006FA04F41688344013B10CB1012000E0A7
:104D8000002070BDF0B50346002400260025002059
:104D900040F66A17B94200D100BF1846C1F3421469
:104DA00001F01F06012707FA06F5012C01D10C308E
:104DB00004E0022C01D1103000E014301AB1076871
:104DC0002F43076002E00768AF430760F0BD0000B3
:104DD0002DE9FF4705460E460024A14600BFA04628
:104DE000B08900B100BF2C8A24F44054F0880443F9
:104DF0002C82AC8941F20C608443B088318908432D
:104E0000718908430443AC81AC8A24F44074B089AE
:104E10000443AC826846FFF71FFC2048854202D05D
:104E20001F48854202D1DDF80C9001E0DDF80890C2
:104E3000A88900F4004040B109EBC90000EB09105B
:104E400031684900B0FBF1F707E009EBC90000EB5E
:104E5000091031688900B0FBF1F76420B7FBF0F06E
:104E600004012009642101FB1078A88900F40040A6
:104E700040B1322000EBC800B0FBF1F000F00700B9
:104E8000044308E0322000EB08106421B0FBF1F08D
:104E900000F00F0004432C81BDE8FF8700100140A3
:104EA0000014014001468888C0F308007047C1F330
:104EB00008028280704770B5044640F22551206890
:104EC000FFF736FFE0B12068FFF7ECFFC5B2E18ADB
:104ED000A0684554E08A401C80B2E082E1898842A3
:104EE00001DB0020E082608BE189884202DA608B7E
:104EF000401C6083606A10B12846616A884700BF21
:104F000040F227712068FFF713FF08B3A08A60B949
:104F1000002240F227712068FFF734FF012240F29F
:104F200026612068FFF72EFF37E0638A6268D15C54
:104F30002068FFF7BCFF608A401C80B26082A189B4
:104F4000884201DB00206082A08A401EA08224E00B
:104F500040F226612068FFF7EBFEF0B1A08A50B95D
:104F6000002240F226612068FFF70CFF206AA0B102
:104F7000206A804711E0638A6268D15C2068FFF78D
:104F800096FF608A401C80B26082A189884201DB62
:104F900000206082A08A401EA08270BD164817497A
:104FA000086017484860174888604FF4806088811F
:104FB000C881002008824882C8820883488388828A
:104FC0001148C861114808621148486211481249E5
:104FD000086012484860124888604FF480608881F9
:104FE000C881002008824882C8820883488388825A
:104FF000C86108624862704700440040E001012037
:10500000080201200806012045470008474700081C
:105010004347000800480040080A0120300A0120E8
:10502000300E012000BFFEE70020254988700420D3
:10503000087308460078222804DA08460078401CE5
:1050400008700EE01E480078222805D101201C4976
:1050500048700020087104E0002019490870487069
:10506000087117480078012808D100201449886089
:1050700001200871084680781249087010480078AD
:1050800001281CDD0E480078222818DA0C488078A8
:1050900030B10B48806840F001000949886005E0A4
:1050A0000748806820F001000549886004480078BE
:1050B000212804DA0248806840000149886070476E
:1050C000D0010120BC000020012025498870042067
:1050D000087308460078222804DA08460078401C45
:1050E00008700EE01E480078222805D101201C49D6
:1050F00048700020087104E00020194908704870C9
:10510000087117480078012808D1002014498860E8
:10511000012008710846807812490870104800780C
:1051200001281CDD0E480078222818DA0C48807807
:1051300030B10B48806840F001000949886005E003
:105140000748806820F0010005498860044800781D
:10515000212804DA024880684000014988607047CD
:10516000D0010120BC00002003B401984100009848
:1051700050EAC12018BF04204A0D18BF40F00100BA
:1051800040F2FF72B2EB515F08BF40F0020001280D
:1051900008BF052002B0704730B52DED048B81B0FB
:1051A000B0EE408AF0EE608A6A4651EC180B05F0CA
:1051B000D7FF00989FED329B7E300090002821DCC5
:1051C00053EC192B51EC180B16F0D4FA1AD000211D
:1051D00040F608004FF00000044651EC180B16F0A2
:1051E000DBF908EE100A40F6080004EA00014FF06F
:1051F0000000B5EEC08AF1EE10FA04BF0220FCF701
:10520000B9FE2DE00098FF2830DB002108464FF062
:10521000000000F4400553EC192B51EC180B16F06C
:1052200065FC8CBF002401240220FCF7A3FE9FED47
:10523000168A4DB1002C0CBF4FF400004FF48000D3
:10524000A84218BF9FED118A042108464FF00000C4
:10525000002C01BFB1EE480A01B0BDEC048B30BD9B
:10526000B0EE480A01B0BDEC048B30BD51EC180B18
:1052700016F092F901B000EE100ABDEC048B30BDBF
:1052800000000000000000000000807FFFFF7F7F23
:1052900030B540F2FF742DED048BF0EE608A18EE0D
:1052A000901A85B0B0EE408A9FED2B9B05468DEDA0
:1052B000008B34EA115147D053EC192B51EC180BE9
:1052C00016F058FA40D02A4651EC180B16F0E2FDC1
:1052D00041EC180B18EE900A8DED008B34EA10505B
:1052E0001CD053EC192B51EC180B16F043FA2BD1B0
:1052F0000220FCF73FFE00F057F810EE901A18EE6F
:10530000900A8DED020B8DED008B61F31E00039072
:105310009DED020B05B0BDEC048B30BD0220FCF707
:1053200029FE00F031F810EE901A18EE900A8DED7B
:10533000020B8DED008B61F31E0003909DED020BBF
:1053400005B0BDEC048B30BD05B0B0EE480AF0EE00
:10535000680ABDEC048B30BD0000000000000000B6
:1053600000B583B09FED060B0A4601468DED000B9C
:105370006846FCF7E1FA9DED000B03B000BD0000AC
:1053800000000000000000009FED050B10B553EC7D
:10539000102B51EC100B16F0ABFA41EC100B10BDBA
:1053A00000000000000000709FED050B10B553ECED
:1053B000102B51EC100B16F09BFA41EC100B10BDAA
:1053C000000000000000001010B5044691ED000B35
:1053D000FFF7E2FE84ED000A10BD10B5044690ED23
:1053E000000B0846FFF754FF84ED000B10BD30386A
:1053F0000A2801D2012070470020704700BF704783
:105400002DE9F04105460E46002447E0FEF74EFA2E
:10541000074604EB4400244951F83000C8BB04EBB4
:10542000440041F830503846FEF758FA002004EBAB
:1054300044011D4A02EBC101486004EB440102EB48
:10544000C101088104EB440102EBC10148812878C5
:10545000102804D10EB1012002E0002000E001205C
:1054600004EB4401104A02EBC1018881002004EBE7
:10547000440102EBC101C88104EB440102EBC1010C
:10548000086104EB440102EBC10148612046BDE81C
:10549000F081FFE73846FEF721FA641C042CB5DBE7
:1054A0004FF0FF30F3E7000030B4012010B50446A0
:1054B00000BF00BF05F04EFB0022034941F28830D7
:1054C0000EF014FE10BD0000AD5400087CB505467A
:1054D0000C46284600F014F906460121FFF77CF837
:1054E000009401208DF8040002208DF805000020B2
:1054F0008DF806008DF8070069462846FEF7FEF98C
:105500007CBD00002DE9FC4706460D461446994631
:10551000304600F0F5F807460121FFF75DF81F4817
:1055200084420BD01E48844208D01E48844205D0D5
:105530001D48844202D01D48844207D1204600F015
:1055400021F907460121FFF777F806E0204600F031
:1055500019F907460121FFF75FF8009502208DF841
:10556000040003208DF8050000208DF806000120BE
:105570008DF8070069463046FEF7C0F9204600F076
:1055800017F80746284600F071F880463A4641462B
:105590003046FEF7FBF9BDE8FC8700000000014043
:1055A0000004014000400140004401400048014027
:1055B00001460020224A914201D101203FE0214AC8
:1055C000914201D103203AE01F4A914201D10320C8
:1055D00035E01E4A914201D1032030E01C4A91423D
:1055E00001D103202BE0B1F1804F01D1012026E051
:1055F000184A914201D1022021E0174A914201D17B
:1056000002201CE0154A914201D1022017E00D4A08
:10561000914201D1032012E00B4A914201D10320B3
:105620000DE00F4A914201D1092008E00D4A914254
:1056300001D1092003E00C4A914200D109207047B2
:1056400000000140000401400040014000440140CE
:10565000004801400004004000080040000C0040E9
:1056600000180040001C00400020004001460020BF
:10567000012900D142E0022901D101203EE00429A4
:1056800001D102203AE0082901D1032036E0102997
:1056900001D1042032E0202901D105202EE040294B
:1056A00001D106202AE0802901D1072026E0B1F5AA
:1056B000807F01D1082021E0B1F5007F01D10920D0
:1056C0001CE0B1F5806F01D10A2017E0B1F5006F41
:1056D00001D10B2012E0B1F5805F01D10C200DE06B
:1056E000B1F5005F01D10D2008E0B1F5804F01D187
:1056F0000E2003E0B1F5004F00D10F2070470000ED
:1057000001460020164A914201D1012026E0154AA7
:10571000914201D1022021E0134A914201D104209B
:105720001CE0124A914201D1082017E0104A914230
:1057300001D1102012E00F4A914201D120200DE04A
:105740000D4A914201D1402008E00C4A914201D11A
:10575000802003E00A4A914200D18815704700007A
:10576000000002400004024000080240000C024019
:10577000001002400014024000180240001C0240C9
:105780000020024001460020244A914201D101201C
:1057900042E0234A914201D102203DE0214A914258
:1057A00002D14FF4803037E01F4A914202D14FF4CA
:1057B000003031E01D4A914202D14FF480202BE0AD
:1057C000B1F1804F01D1012026E0194A914201D167
:1057D000022021E0174A914201D104201CE0164A20
:1057E000914201D1082017E0144A914201D11020C2
:1057F00012E0134A914201D120200DE0114A91425A
:1058000001D1402008E0104A914201D1802003E0FC
:105810000E4A914200D188157047000000000140F7
:1058200000040140004001400044014000480140A4
:105830000004004000080040000C00400010004040
:105840000014004000180040001C004000200040F0
:1058500010B54FF44070FEF7B5FEA82000F0F2FA44
:1058600000F044F900F009F8FEF7A6F900F0BAF9E3
:1058700000F00EF800F0B6F910BD10B5FFF78EFB82
:10588000FEF7F4F8FEF75CFFFDF798FA10BD000094
:105890001CB501216820FEF79FFE4FF49850009040
:1058A00001208DF8040000208DF8060003208DF8FB
:1058B000050001208DF8070069461B48FEF71EF819
:1058C0001020009001208DF8040000208DF80600C3
:1058D00003208DF8050001208DF807006946134864
:1058E000FEF70CF84FF40070009001208DF80400D2
:1058F00000208DF8060003208DF8050001208DF8AA
:10590000070069460A48FDF7F9FF10210748FEF72E
:105910006BF84FF498510448FEF766F84FF40071A5
:105920000348FEF761F81CBD00180240000C02405D
:10593000001402402DE9FF4F89B0834614461D46EE
:10594000DDE9166ABAF1000F0FD100212046FEF7FB
:10595000FAFF58460A99FFF7B9FD002258460A99FE
:10596000FEF744F80DB0BDE8F08F42F210708245AA
:105970000DD100212046FEF7E6FF58460A99FFF7B1
:10598000A5FD012258460A99FEF730F8EAE72B46B2
:10599000224658460A99FFF7B5FD4E4884420BD07F
:1059A0004D48844208D04D48844205D04C4884423A
:1059B00002D04C48844203D14B48D0F8008003E029
:1059C000494800684FEA5008642E0AD242F20F7923
:1059D00042F21070B8FBF0F0B0FBF6F0401E87B258
:1059E00013E040F6B830864209D24FF063096420D4
:1059F000B8FBF0F0B0FBF6F0401E87B205E04FF0C8
:105A00000009B8FBF6F0401E87B20797ADF8189072
:105A10000020ADF82000ADF81A008DF8220006A98C
:105A20002046FFF711F96020ADF804000120ADF821
:105A300006000AFB07F042F21071B0FBF1F0039090
:105A40000020ADF81000ADF80800ADF81200ADF878
:105A50001400ADF81600012D08D101A92046FEF76B
:105A6000A7FF08212046FEF7E1FF1FE0022D08D125
:105A700001A92046FEF7E4FF08212046FFF732F88F
:105A800014E0032D08D101A92046FFF739F80821B9
:105A90002046FFF785F809E0042D07D101A920462B
:105AA000FFF788F808212046FFF7C0F801212046BB
:105AB000FEF73AFF01212046FEF745FF05488442E4
:105AC00002D00548844203D101212046FEF747FF5A
:105AD00000BF47E7000001400004014000400140D2
