:020000040801F1
:1000000098EA0120D503010893330108FD32010865
:1000100091330108FD300108353D01080000000062
:1000200000000000000000000000000015030108AF
:100030002D31010800000000710301086D3701082F
:10004000EF030108EF030108EF030108EF030108C4
:10005000EF030108EF030108EF030108EF030108B4
:10006000EF030108EF030108EF030108EF030108A4
:10007000EF030108EF030108EF030108EF03010894
:10008000EF030108EF030108EF030108EF03010884
:10009000EF030108EF030108EF030108EF03010874
:1000A000EF030108EF030108EF030108EF03010864
:1000B000EF030108EF030108EF030108EF03010854
:1000C000EF030108EF030108EF030108EF03010844
:1000D000EF030108313A0108BD3A0108493B010824
:1000E00031310108EF030108EF030108EF030108B4
:1000F000EF030108EF030108EF030108EF03010814
:10010000EF030108EF030108EF030108EF03010803
:100110006D390108F939010851380108EF03010868
:10012000EF030108EF030108EF030108EF030108E3
:10013000EF030108EF030108EF030108EF030108D3
:10014000EF030108EF030108EF030108EF030108C3
:10015000EF030108EF030108EF030108EF030108B3
:10016000EF030108EF030108EF030108EF030108A3
:10017000EF030108EF030108EF030108EF03010893
:10018000EF030108EF03010800F002F800F0B2F8F5
:100190000AA090E8000C82448344AAF10107DA45E2
:1001A00001D100F0A7F8AFF2090EBAE80F0013F082
:1001B000010F18BFFB1A43F001031847ECC70000FA
:1001C0000CC800000A444FF0000C10F8013B13F07B
:1001D000070408BF10F8014B1D1108BF10F8015BA0
:1001E000641E05D010F8016B641E01F8016BF9D193
:1001F00013F0080F1EBF10F8014BAD1C0C1B09D1EA
:100200006D1E58BF01F801CBFAD505E014F8016B5B
:1002100001F8016B6D1EF9D59142D6D370470000ED
:100220000023002400250026103A28BF78C1FBD8FF
:10023000520728BF30C148BF0B6070476E2900F0DD
:100240004285702900F00D8266290BF04C836529E8
:100250000BF0498367290BF0468361290BF0458336
:1002600003681B0A28BF41F08001692900F07E81E4
:10027000642900F07B81752900F078816F2901F0F5
:100280005080782900F0D981E92900F0EB87E42932
:1002900000F0E887F52900F0E587EF2901F04D80AF
:1002A000F82900F0D8810368DB0928BF41F08001FC
:1002B000632900F05A87732900F05F87E32901F072
:1002C0006985F32901F06E85002070471FB50BF09A
:1002D000FDFA01F045FB0400002000210BF096F828
:1002E000401C6060002000210BF0A6F8E0601FBDFC
:1002F00010B510BD01F0AAFF1146FFF7E7FF06F0A9
:100300009BFB00F09BFA03B4FFF7F2FF03BC03F082
:100310002DFF00002C4B19680868B0E8F04F80F3FF
:100320000988BFF36F8F4FF0000080F3118870478A
:100330000000000008480068006880F308884FF05B
:10034000000080F3148862B661B6BFF34F8FBFF32D
:100350006F8F00DF00BF00BF08ED00E0DFF80C008A
:10036000016841F470010160704700BF88ED00E052
:10037000EFF30980BFF36F8F134B1A681EF0100F55
:1003800008BF20ED108A20E9F04F106009B44FF04B
:10039000500080F31188BFF34F8FBFF36F8F0AF0C7
:1003A00079F84FF0000080F3118809BC19680868DB
:1003B000B0E8F04F1EF0100F08BFB0EC108A80F3C9
:1003C0000988BFF36F8F7047D0000020EFF30580DE
:1003D000704700000948804709480047FEE7FEE7EC
:1003E000FEE7FEE7FEE7FEE7FEE7FEE7FEE7FEE7E5
:1003F00004480549054A064B70470000813701084B
:100400008901010898E4012098EA012098E601207A
:1004100098E60120704710B5044600F0DDFB006847
:10042000005DC00602D504F1200010BD204610BDBD
:100430001CB50C46064B7B4469460090204600F0F4
:100440006AFE04460020694600F078FE20461CBD86
:10045000030D00007CB51D4616460C00009001D02F
:100460002044401E074B7B442A4669460190304693
:1004700000F051FE05461CB10020694600F05EFE0A
:1004800028467CBDDD0C00000FB4044910B503AA5A
:10049000029800F077FE10BC5DF814FBAC00002061
:1004A0000FB41CB5084B06AA7B446946009005981A
:1004B00000F031FE04460020694600F03FFE204671
:1004C0001CBC5DF814FB0000910C000070B50446E4
:1004D00085690068C10601D5302600E02026C007E6
:1004E00007D070BDD4E9012130469047206A401CF6
:1004F00020626D1EF6D570BD70B504468569007822
:10050000C00707D170BDD4E9012120209047206A9F
:10051000401C20626D1EF6D570BD70B50C460546B8
:10052000012A05D02878800600D5EA69002302E078
:10053000012305E05B1C934202D2E05C0028F9D164
:10054000A869E618C01AA861286A184428622846D3
:10055000FFF7BCFF04E0D5E9012114F8010B904737
:10056000B442F8D32846FFF7C7FF70BD2DE9F0412C
:100570000646002410687529314616A510D000F0F3
:1005800037FB002802DA404213A507E031688A07EA
:1005900001D512A502E0490704D511A5012401E007
:1005A00000F02FFB00210A2206F1240709E0B0FB2E
:1005B000F2FCB0FBF2F302FB1C003030785418461A
:1005C000491C0028F3D123462A463046BDE8F041B5
:1005D00000F020BB000000002D0000002B000000F8
:1005E00020000000F0B40D460188090502D5214C19
:1005F0007C4402E01F4C7C440E34002100F12406B0
:1006000008E002F00F071209E75D42EA03721B09D6
:100610007754491C52EA0307F3D1027800231207EA
:1006200004D5702D06D009B1022311342246F0BC46
:1006300000F0F0BA01231034F8E770B504460D4617
:100640002146106800F0DDFA024629462046BDE842
:1006500070400023C6E7D21D22F00703D3E9002330
:10066000C0E70368126843F0200303600823C361F6
:100670000023B7E753BE00002DE9F05F894604462A
:100680004FF0000ADFF874B1FB44C0F820A0204608
:10069000E1688847002874D0252806D0D4E90121D4
:1006A0009047206A401C2062F1E700265F46204602
:1006B000E16888472028054607DB312D05D27819E7
:1006C00010F8200C08B10643F1E7B00701D526F079
:1006D0000406C4F81CA00027C4F818A02A2D09D0CD
:1006E000284603F03CFD38B304EB8708303DC8F8DA
:1006F000185019E059F8041B204604EB8702916159
:10070000E1688847012F054618D1E069002820DA02
:1007100026F020061DE0D8F8180000EB800005EB5D
:1007200040003038C8F818002046E1688847054680
:1007300003F015FD0028EED1012F0AD02E2D08D18F
:100740002046E16888477F1C0546022F46F02006B8
:10075000C4DBA069002803DA404246F00106A0612C
:10076000F00701D026F010066C2D0BD0682D09D0B3
:100770004C2D39D06A2D35D0742D35D07A2D33D00B
:1007800016E038E0E1682F4620468847B842054623
:1007900009D16C2F26D04FF48060E16806432046D3
:1007A0008847054604E06C2F1AD04FF4807006434A
:1007B0000DB3A5F14100192802D8203546F4006692
:1007C0004A462946204626604E46FFF737FD80B14F
:1007D00001280BD0F61D26F0070000F1080956E7A6
:1007E0004020E4E78020D8E70020D6E706F104099E
:1007F0004DE7284652E7206ABDE8F09FE3BD0000C0
:100800000FB400B58DB010A9099000910B904FF076
:10081000FF300A9000200C90064878440690064865
:1008200078446A4607900F9909A801F013F80DB0B3
:100830005DF814FB571000006F10000010B504465F
:10084000AFF300802046BDE81040FFF75CBD40EAF2
:100850000103024630B59B0710D14FF0013400E090
:1008600008C208C91D1B9D4315EAC41FF8D013F028
:10087000FF0102F8011B0DD01B0AF8E711F8013B3C
:10088000002B02F8013B05D011F8013B002B02F8C8
:10089000013BF3D130BD10B5431C02E010F8011B41
:1008A00071B18107FAD14FF0013202C88C1A8C4322
:1008B00014EAC211F9D0C01A0A0603D0C01E10BD36
:1008C000C01A10BD0A0401D0801E10BD0902FCD060
:1008D000401E10BD40EA010370B59B072ED14FF0BA
:1008E0000136042A2AD308C810C99D1B9D43121F34
:1008F00015EAC61517D0D8B2E1B2401A50EA056120
:1009000010D198B2A1B2401A50EA05410AD123F0A1
:100910007F4024F07F41401A50EA052102D1180E91
:10092000A0EB146070BDA342DBD018BA21BA884294
:1009300001D9012070BD4FF0FF3070BD0AB9002011
:1009400070BD10F8013B11F8014B63B1A3420AD10D
:10095000521E08D010F8013B11F8014B1BB1A34205
:1009600001D1521EEDD1181B70BD032A40F2308018
:1009700010F0030C00F0158011F8013BBCF1020FE0
:10098000624498BF11F801CB00F8013B38BF11F861
:10099000013BA2F1040298BF00F801CB38BF00F878
:1009A000013B11F0030300F02580083AC0F00880F5
:1009B00051F8043B083A51F804CBA0E80810F5E7D9
:1009C000121D5CBF51F8043B40F8043BAFF30080BC
:1009D000D20724BF11F8013B11F801CB48BF11F831
:1009E000012B24BF00F8013B00F801CB48BF00F801
:1009F000012B704710B5203AC0F00B80B1E81850B9
:100A0000203AA0E81850B1E81850A0E81850BFF4F8
:100A1000F5AF5FEA027C24BFB1E81850A0E8185097
:100A200044BF18C918C0BDE810405FEA827C24BFEB
:100A300051F8043B40F8043B08BF7047D20728BF79
:100A400031F8023B48BF11F8012B28BF20F8023BC8
:100A500048BF00F8012B704702F0FF0343EA03226E
:100A600042EA024200F002B84FF000020429C0F04E
:100A7000128010F0030C00F01B80CCF1040CBCF1D0
:100A8000020F18BF00F8012BA8BF20F8022BA1EB22
:100A90000C0100F00DB85FEAC17C24BF00F8012B07
:100AA00000F8012B48BF00F8012B70474FF00002FF
:100AB00000B5134694469646203922BFA0E80C5054
:100AC000A0E80C50B1F12001BFF4F7AF090728BF2F
:100AD000A0E80C5048BF0CC05DF804EB890028BFAB
:100AE00040F8042B08BF704748BF20F8022B11F0D4
:100AF000804F18BF00F8012B704710B5044610F066
:100B0000030F08BF11F0030F40F015804FF0013EB6
:100B1000121FC0F20E8051F8043BA3EB0E0C2CEA1E
:100B2000030C1CEACE1C08BF40F8043BF0D0A1F136
:100B3000040102F10402521E08DB11F8013B002BF4
:100B400000F8013BF7D11146FFF78EFF204610BD9C
:100B50004FF0013C50F8042B51F8043B9A4221D14C
:100B6000A2EB0C03934313EACC1317D150F8042BD8
:100B700051F8043B9A4215D1A2EB0C03934313EABC
:100B8000CC130BD150F8042B51F8043B9A4209D1F5
:100B9000A2EB0C03934313EACC13DBD04FF000001D
:100BA000704700BFD01A01BAB1FA81F101F0180103
:100BB00022FA01F0CB40C1F12001DBB2C0B2C01A71
:100BC0002CFA01F3D11A914311EAC311E6D170470F
:100BD000704770477047704710B500F0C1FE001DA8
:100BE00010BD00BF29A800000048704734E4012070
:100BF00009684A0501D540B27047C905FCD500B265
:100C0000704709684A0501D5C0B27047C905FCD5CF
:100C100080B270472DE9F0470D469946924604464A
:100C200000F124080168880604D5E06921F010016C
:100C3000216000E00120A84201DD471B00E0002701
:100C4000A1697A1902EB0900081AA0612078C00690
:100C500002D42046FFF73AFC002608E0D4E901213F
:100C60001AF806009047206A401C761C20624E4508
:100C7000F4DB2078C0060AD52046FFF727FC06E003
:100C8000D4E9012130209047206A401C2062381EA0
:100C9000A7F10107F4DC07E0D4E9012118F8050009
:100CA0009047206A401C2062281EA5F10105F3DC54
:100CB0002046FFF721FC2078000602D50220BDE87F
:100CC000F0870120FBE711680268006A530501D52F
:100CD00008700AE0D30501D5088006E0130603D5A5
:100CE000C217C1E9000200E00860012070477047A8
:100CF0002DE9FF4F0C461E464FF0FF378BB0D2E96F
:100D00000001DDF860800A908A46C1F30A5505B9F2
:100D10003D46002108464FF00000BAF1000F00F4F4
:100D2000400005DA00EB80004FF4400101EA50007A
:100D30004FEA9059B9F1010F00DDB9460A9850EA1F
:100D40004A000ED044F61050A5F2FF3545432F144B
:100D5000B8F1000F1ED07542291E1EDDC9F1000238
:100D60001CE0B8F1010F4FF0000001D0302103E08A
:100D7000F24305E02154401CB042FBDB3046002228
:100D8000002121540B99C1F80880C1E900200FB05F
:100D9000BDE8F08FBD1B6D1CDEE74A4600DA6942F4
:100DA00006A801F0BDF906AB93E8070003AB83E8A2
:100DB000070050460A9901F0C4FC8DE80700A0F531
:100DC00000501F3800900398002D0ADD42F21F01E9
:100DD0004A460844002303A90390684601F070FFC7
:100DE00009E0A0F500504A461F38002303A90390EC
:100DF000684601F08FFF8DE807000004000C03D067
:100E00004FF0FF30410800E01046B8F1000F03D06A
:100E10000022009215461EE0751E05D400F0A4FDC8
:100E2000303262556D1EF9D5B3460122084302D017
:100E300000227F1C04E02078302801D100227F1E90
:100E4000002A099784D01DE0112D07DA00F08CFDEF
:100E5000303262556D1C50EA0102F5D1084302D0D0
:100E60000098C8B10EE00021681E05E0235C625CBA
:100E700063542254401E491C8142F7DBAB46A81B39
:100E8000401E0990002004F80B000B98099AC0F846
:100E90000880C0E9002B7AE711264FF0000857E7D9
:100EA0002DE9F04F88460446D21D22F0070191B08B
:100EB000D1E90001CDE90A0103F00EF802460B98D2
:100EC000C00F01D02D2007E02068810701D52B201D
:100ED00002E0202101EAC000032A099001D0072A7C
:100EE00005DB03464146204600F00AFF0BE120786F
:100EF000800601D5E06900E00620B8F1650F814663
:100F000006D0B8F1660F18D0B8F1670F70D131E094
:100F10000020B9F1110F009001DB112301E009F16C
:100F200001030AAA01A90CA8FFF7E2FEDDE90C7093
:100F3000002609F10105834647E001204B46009059
:100F40004FF000470AAA01A90CA8FFF7D1FEDDE97E
:100F50000DB00C995D46002610B909F101000D187D
:100F6000B9EB050003D4C0F1FF3609F10105A5EB8B
:100F700009002BE0B9F1010F01DA4FF0010900205F
:100F8000B9F1110F0090484601DD112300E003463E
:100F90000AAA01A90CA8FFF7ABFEDDE90C704D46CB
:100FA00000268346207800070AD4AB4500DA5D4668
:100FB00001A8012D04DD411911F8011C302907D0C9
:100FC0004F4502DA17F1040F04DA012082460FE0E0
:100FD0006D1EEEE7002F02DCED1B3E4403E0781CA3
:100FE000A84200DD7D1CB81B00F1010A4FF000474C
:100FF0002078000703D4AA4501DB4FF0FF3A002117
:10100000B7F1004F0DF143088DF8431024D00220B2
:101010002B23002F01DA7F422D230A21021EA0F18B
:10102000010000DC5FB197FBF1FC97FBF1F201FBE3
:101030001C7C17460CF1300C08F801CDEEE7A8F146
:10104000010003702188090501D5452100E06521D3
:10105000A0F1010800F8011C09980FA9A1EB0807ED
:10106000FF1D00B10120411901EBEA70A16938446C
:10107000081A401EA0612078C00602D42046FFF75F
:1010800025FA099828B1D4E901219047206A401C2B
:1010900020622078C00622D52046FFF717FA1EE00E
:1010A000002E04DBB34502DD01A8805D00E03020A6
:1010B000D4E901219047206A401C2062761CAAF1E5
:1010C00001005FEA000A0AD100F04AFCC06801682A
:1010D000405CD4E901219047206A401C2062281E10
:1010E000A5F10105DCDC07E0D4E9012118F8010BCA
:1010F0009047206A401C2062381EA7F10107F3DCEC
:101100002046FFF7F9F9032011B041E601694A1CB6
:1011100002610878704700B58FB0CDE90131002138
:10112000059105497944CDE9031011466846FFF75A
:10113000A3FA0FB000BD0000E5FFFFFF0A6802F848
:10114000010B0A607047D1E900239A4202D2531C76
:101150000B601070704710B5436913B1AFF3008096
:1011600001E0FFF7DAF9012010BD127800F1240147
:101170000A7000224A700122EDE711684FF0FF3239
:10118000E9E70000074B70B50D467B44FFF7C3FF4E
:101190000446284601F036F810B14FF0FF3070BD1C
:1011A000204670BD275300002DE9FF5F15468A4693
:1011B0000446DFF8AC80F8440027D8E900103E462A
:1011C000CDE9001010E03AF816106A4602A801F0C6
:1011D0001DF8411C07D02178890603D5E26939182A
:1011E00091420DD80744761C2078800602D5E0692C
:1011F000B84205DDAE42E6DB3AF816000028E2D13F
:10120000A069C01BA0612046FFF760F9D8E9001073
:10121000CDE90010002017E03AF818106A4602A83D
:1012200000F0F4FFB0F1FF3F81460BD000250DF137
:10123000080B05E0D4E901211BF8050090476D1C5F
:101240004D45F7D308F10100B0428046E4DB206A47
:10125000384420622046FFF74FF9BDE8FF9F0000A9
:10126000C6B200002DE9F0418046D21D22F00702EF
:101270000025D2E90002F52915A614D0011E72F14D
:10128000000106DA0023D0EB030063EB020211A693
:1012900008E0D8F800108B0701D50FA602E0490737
:1012A00001D50EA601251146002408F1240704E00B
:1012B00000F05AFB30323A55641C50EA0102F7D173
:1012C0002B46324621464046BDE8F041FFF7A2BC1E
:1012D000000000002D0000002B0000002000000096
:1012E00030B4002100F1240408E002F00705D20820
:1012F000303542EA4372DB086554491C52EA030563
:10130000F3D10468002310A2250707D5A40600D452
:1013100021B1C46901230DA2641EC46130BCFFF772
:1013200079BC10B5044621461068FFF76AFC0246F6
:101330002046BDE810400023D2E7D21D22F007016D
:10134000D1E90023CCE700000000000030000000DD
:101350002DE9FF4F06468BB00878FF2806D0491CC0
:101360002D2805D000244FF0000908E000200CE0F3
:101370000124F8E709EB8903491C00EB43090878CD
:10138000FF28F7D114B1C9F100008146107800257B
:101390002C46AA4629462D2801D02B2804D1521CC0
:1013A0002D2813D0002082468B461078FF280FD0BE
:1013B0004FF0000C0A21521CA5FB017804FB0181AF
:1013C00005FB0C11C5194BEB0104EEE70120EAE720
:1013D000002108464FF00000BAF1000F02D000EBE8
:1013E00080004008C0F38157012F01DD4FF0FF3727
:1013F0000E9955EA040009EB01080BD04FF00209E1
:1014000018F5FA7F16DA4FEACA70002F706008DD0F
:10141000012007E04FEACA70C6E900B00FB0BDE88E
:10142000F08F00203060FFF7DFFBC0F8009018213C
:10143000084616E0B8F5FA7F18DD002F02DAF74803
:10144000784401E0F6487844D0E90010C6E900107D
:1014500040EACA707060FFF7C7FBC0F80090142123
:1014600008460FB0BDE8F04F0AF03ABA002108462E
:101470004FF00000B8F10001099002DAC7F1000254
:1014800000E03A4601DAC8F1000106A800F048FE83
:1014900006AB93E8070003AB83E8070044F23E0085
:1014A0005BEA04010090584604D144F21E012C4628
:1014B0005D460091210C0904014306D100992404E2
:1014C00044EA15442D041039009104F07F41014392
:1014D00006D10099240244EA15642D0208390091CE
:1014E00004F07041014306D10099240144EA1574C7
:1014F0002D01091F009104F04041014306D10099DC
:10150000A40044EA9574AD00891E009104F00041E6
:10151000084304D100986D196441401E00904FF0BB
:1015200001033A466846B8F1000FCDE9014503A929
:1015300002DD01F004FC01E001F0D7FBBAF1000F7D
:1015400004460D4601D084F00044002108464FF0C7
:101550000000099940F2FF77484010F00C0F07D1C6
:1015600024F00040284303D0C4F30A50B84212D1FB
:10157000FFF73AFBC0F80090C4F30A50B8420AD112
:10158000A8487844D0E90010C6E9001004F00041F2
:101590000843706042E7C6E900543FE72DE9FF4F7A
:1015A0001F464FF0000A4FF0FF38454691B0D7E98B
:1015B0000146CDF83CA000F0D3F9C0680168405C5A
:1015C0001090B96912986D1C8847396A814688471E
:1015D0000028F6D1B9F1FF3F0AD0002E24F4D064E0
:1015E00011DDB9F12B0F08D0B9F12D0F0BD102E0AD
:1015F000404615B013E744F48064B96912986D1C35
:101600008847761E8146600504A901D52D2000E09B
:101610002B20002E01F1010B0DF130088DF8100088
:101620003FDDB9F1690F08D0B9F1490F05D0B9F123
:101630006E0F02D0B9F14E0F1CD13B4601A80095A8
:1016400080E85002DDE912126FF002000AF0B3F9EF
:10165000C11CCED10EE0B96912986D1C8847814635
:101660001398761E44F4007405600F98401C002EF9
:101670000F9016DDB9F1300FEDD0B9F1780F02D02F
:10168000B9F1580F0DD10F9801280AD13B46CDE989
:101690000054DDE91212001F02960AF08AF9C11CFB
:1016A000A7D1109989453ED144F0800406E01399F2
:1016B000681CAAF1010A44F400740860B9696D1C41
:1016C0001298761E884730288146F0D02BE010997A
:1016D000894505D1200603D4761E44F0800418E025
:1016E000484602F03CFD08B3761E0DF123018B4500
:1016F00044F4007408D2A9F130000BF8010B200665
:1017000007D5AAF1010003E0200602D40AF1010086
:101710008246A00502D51399681C0860B969129821
:101720006D1C88478146002ED1DC53E0002E51DD30
:10173000B9F1650F02D0B9F1450F4BD1A00549D5DC
:10174000B9696D1C1298761E24F440748847002EE7
:1017500081460CDD2B2804D0B9F12D0F07D144F4BC
:101760008074B96912986D1C8847761E8146E00521
:1017700001D52D2100E02B2108F8011BCDF80080B8
:1017800021E0761E0DF13901884544F400740CD235
:10179000A9F1300010F0FF0088F8000002D1009994
:1017A000884509D908F1010806E0E00501D51E4881
:1017B00001E042F20F708246B96912986D1C8847A9
:1017C000814613980560002E04DD484602F0C7FCF0
:1017D0000028D6D1F96912988847FF2053468BF824
:1017E000000088F8000000200A900B9004AA0CA9C1
:1017F0000AA8FFF7ADFDA00502D46FF00100F8E6DE
:1018000014F0240F12D0E0071CD13868DDE90A1269
:10181000031D3B600068C0E9001213E08CB50000B6
:101820007EB5000042B40000F1D8FFFF0AA9684667
:1018300002F082FCE00705D13868009A011D39608A
:10184000006802602846D4E60268114413780160FB
:1018500018467047D160054979445161044979447B
:10186000116200211161114600F0A0BAEDFFFFFFE7
:1018700091010000426842B1016811F8013B23B1B7
:10188000521EC0E90012184670470121C160881E2F
:10189000704742685AB1C368016843B983688B4294
:1018A00005D0491E521CC0E90012002070474FF0BD
:1018B000FF3070470FB4002300B589B00CA9009128
:1018C0000B99CB60214B7B440693214B7B440793C0
:1018D00004236FF00042CDE901321E4A7A446B4680
:1018E0000892024600200AF062F809B05DF814FB85
:1018F00070B506464FF0FF3015460C46324686B0AE
:101900000091CDE9010169460020049004A8FFF789
:10191000D1FF02460498211825B108B1084600E01D
:1019200020462860049800280DD0002A02DD009887
:10193000884208D03246081B69460094CDE901046C
:1019400004A8FFF7B7FF06B070BD0000ABFFFFFFB4
:10195000C3FFFFFF130100000048704734E401207B
:101960000048704754E4012030B5B0F10A024FEA54
:10197000900E71F100034EEA817EB0EB0E0061EB38
:1019800091014FEA101E4EEA017E10EB0E0041EB72
:1019900011114FEA102E4EEA016E10EB0E0041EBD2
:1019A00011214FEA104E4EEA014E10EB0E0041EBB2
:1019B0001141401841F100014FEAD00040EA417066
:1019C0004FEAD10110EB80054FEA810444EA90749C
:1019D00044EB01046D1944EB0404521BA3414FF086
:1019E000000348BF0A3200D530BD401C41F1000160
:1019F00030BD10B50446FFF7EFF80068005D00F059
:101A0000010010BD2DE9F04F04460D46D21D22F015
:101A1000070089B0D0E900974846394602F05CFAE1
:101A20000246F80F01D02D2307E02068810701D579
:101A30002B2302E0202101EAC0038DF820300BB1F6
:101A4000012000E00020032A824601D0072A04DB9F
:101A50002946204600F054F93FE12078800601D461
:101A60000D2500E0E569C7F30A560D2D49DA00217E
:101A70004FEA175B08464FF00000002F00F44000CB
:101A800007DA00EB80004FF4400100EBD07001EA70
:101A900060008115012901DD4FF0FF3100224FEA7E
:101AA000850CBCF1180F06D31346ACF118004FF0AB
:101AB0008052C24003E04FF4801323FA0CF30CF180
:101AC0000C0CBCF1200F04D3ACF1200C09FA0CF083
:101AD00001E007FA0CF000294FF0004801DD18B9C9
:101AE0000FE00ED140450CD319EB02095F4121B93B
:101AF000404502D19F4329EA0209BBEB175F00D0A2
:101B0000761C2088000502D57B48784402E07A489C
:101B10007844193808AA302302F80A30037C0AF105
:101B20000101002E0AF1020A53546A4602DC4FF00A
:101B3000300101E04FF031014FF001088DF8001045
:101B400002D0A6F2FF3603E059EA470100D06B4EFF
:101B5000002D02DC2178090704D54FF002082E2160
:101B60008DF80110C44600210BE0C7F303433F0189
:101B7000C35C491C6D1E02F80830052908F10108F4
:101B800001DA002DF1DC00210CE000EB1973491C97
:101B90001B786D1E082902F808304FEA091908F170
:101BA000010801DA002DF0DC21688B0602D516E071
:101BB000A8F10108E04505DD02EB080313F8013C3C
:101BC000302BF5D0B8F1000F09DD02EB080313F854
:101BD000013C2E2B03D1090701D4A8F10108002DE7
:101BE00005DD3E2102F808106D1E08F10108407C59
:101BF000002E02F8080008F1010804DA2D207642D0
:101C000002F8080002E02B2002F808000A214FF435
:101C10007A70864208F101080BDB96FBF0F3303353
:101C200002F8083096FBF0F308F1010800FB136698
:101C300001E0642E0CDB642096FBF0F3303302F8F5
:101C4000083096FBF0F308F1010800FB136601E091
:101C50000A2E06DB96FBF1F0303002F8080008F19E
:101C6000010896FBF1F001FB1060303002F808002B
:101C7000A16908F1010808EB050202EB0A00081A45
:101C8000A0612078C00602D42046FEF71FFC216A1E
:101C900008AE01EB0A00206204E0D4E9012116F845
:101CA000010B9047BAF1010AF7D22078C00602D59D
:101CB0002046FEF70BFC6E4609E016F8010B3E28A5
:101CC0000FD0D4E901219047206A401C2062B8F16E
:101CD0000108F2D22046FEF70FFC09B00320BDE850
:101CE000F08F206A2844206203E0D4E901213020EB
:101CF00090476D1EEBD3F8E78DA9000002FCFFFFB3
:101D00002DE9F0411F46044603260168072A01F425
:101D1000006004DB08B116A505E016A503E008B1D4
:101D200015A500E015A521F010002060A069C01ED7
:101D3000A0610FB1401EA0612046FEF7C7FB4FB166
:101D4000D4E9012138469047206A401C2062C01C1B
:101D5000206206E0206AFAE7D4E9012115F8010BB8
:101D60009047761EF8D22046FEF7C6FBBDE8F0810C
:101D70004E414E006E616E00494E4600696E66002F
:101D800010B5436913B1AFF3008001E0FFF70CFA1F
:101D9000012010BD128800F1240182840022C28437
:101DA0000122EDE711684FF0FF32E9E72DE9F34F2B
:101DB0004FF0000A0C4656468DB001200C9001F100
:101DC0000C000B9062690B9801219047051E2DD0E5
:101DD000252D2CD0216A8847C0B162690B9801215A
:101DE0009047216A88470028F7D16269411E0B9805
:101DF000904700E0761CA1690D988847216A8847C2
:101E00000028F7D1E1690D988847DBE7A1690D98B3
:101E10008847A842074601D1761CD3E7E1690D98AF
:101E200088477F1C02D1BAF1000F6FD06BE1626965
:101E30000B9800273D46394690472A2804D162690D
:101E40000B98012190470125DFF8D08262690B9839
:101E500001219047A0F130010A290AD24745E5DC6B
:101E600007EB870100EB4107303FDFD445F0100559
:101E7000ECE7E90601D46FF000476C280AD04C2843
:101E800014D0682815D06A280DD074281CD07A2860
:101E90001AD01DE062690B98012190476C2802D08E
:101EA00045F0040514E045F002050DE045F020057D
:101EB0000AE062690B9801219047682802D045F03A
:101EC000080505E045F4006562690B98012190471B
:101ED000C4E9015765283DD019DC58287AD00CDCBC
:101EE000452837D004DC252826D041289ED131E072
:101EF00046282FD0472899D12CE05B2877D061283D
:101F000028D063287CD0642823D15AE0F6E06F28DB
:101F100048D008DC66281DD067281BD0692821D04E
:101F20006E2816D127E0702845D0732868D0752810
:101F300047D078280DD14DE0A1690D988847252814
:101F400005463FF469AFE1690D9888476D1C3FF481
:101F50006AAFD8E00D9923466A466FF0010009F098
:101F600026FDC5E045F0400023464FF000026060CA
:101F7000A80736D43EE0E8077FF447AF2068011D8C
:101F800021600068290501D506701BE7290701D5E6
:101F9000068017E7A90703D5F117C0E9006111E72B
:101FA00006600FE745F0400023464FF008026060EE
:101FB000A80716D41EE040F60E0125EA0100606075
:101FC00016E045F0400023464FF00A026060A80783
:101FD00007D40FE045F040006060A80708D523460D
:101FE00010220D996FF00100AFF3008080E007E050
:101FF000102223460D996FF00100AFF3008077E0C7
:102000004FF0000963284F46C8464B46CB4602D0E6
:102010005B2806D038E0E80601D40120A060012743
:1020200032E06269D4F80CB00B98012190475E2829
:1020300007D14FF0010949466269D4F80CB00B98FA
:102040009047216939B900210A4603AB43F82120A2
:10205000491C0829FADBD8B3216949B308F1010802
:1020600062690B98012190475D28F4D1B9F1000F06
:1020700009D0002003A951F82020D24341F82020A4
:10208000401C0828F7DB03AB2069002820794FEAC1
:1020900040701ED05B462246CDF80080CDE9019706
:1020A0000D9900286FF0010020DAAFF300801FE0E7
:1020B000C11703AA00EBD1614B1121F01F0102EB04
:1020C0008302411A13680120884003431360C7E765
:1020D00019E00D99224600286FF00100009702DAFE
:1020E000AFF3008004E0AFF3008001E0AFF30080C5
:1020F00000280ADA401C06D10C9820B14FF0FF30BE
:102100000FB0BDE8F08F5046FAE7E90701D10AF1B8
:10211000010A064400200C9054E60000CCCCCC0C04
:102120002DE9F047814616468AB0354878440DC8F7
:102130008DE80D0032487844801C03AC0DC884E85B
:102140000D0041F69B300844372190FBF1F290FBE3
:10215000F1F5A5F1800501FB12041B3C02D5644298
:10216000012000E00020DFF898A080460027FA4414
:10217000AAF1BE0A0EE0E0070AD03246684607EB35
:10218000470101230AEB810100F0C4FD8DE807003F
:1021900064107F1C002CEED1194F7F44AE3F19E034
:1021A000E80715D007EB04100DF1180A90E80E00AF
:1021B0008AE80E00C068F04201D1981908903246B2
:1021C000012306A903A800F0A5FD03AB83E80700DF
:1021D0006D10641C002DE3D14FF0010332466946B7
:1021E000B8F1000F03A802D000F06AFD01E000F092
:1021F00091FDC9E90001C9F808200AB0BDE8F087DF
:10220000FCA30000007B00F08000704770B516460C
:102210000C460546FEF7E0FC036893F8010101282F
:1022200006D0FF2C0FD8185D68B101202C7070BD4E
:10223000D3F807013246214603F207130344284628
:10224000BDE8704018474FF0FF3070BD7546FFF78E
:1022500083FBAE4605006946534620F007008546DD
:1022600018B020B5FEF7C4F8BDE820404FF00006D6
:102270004FF000074FF000084FF0000B21F007016E
:10228000AC46ACE8C009ACE8C009ACE8C009ACE8B1
:10229000C0098D46704710B5FEF7A6FC006810BD5A
:1022A00010B50446FEF7A0FC046010BD3A2800D229
:1022B000303820F02002412A01D3A2F137008842B1
:1022C00001D34FF0FF3070472DE9FF4F1F464FF00D
:1022D0003C0987B04FF00042DDE9141001F101081C
:1022E000DDF858A002EA4050039000200590834694
:1022F000054604460490B969461E08988847AAF125
:10230000010A0290BAF1000F3BDD02982E2815D089
:102310001021FFF7CBFF00282EDB4FF0010B0599B2
:10232000014317D0B9F1000F0BDB4A46C11700F08B
:10233000F5F905430C43A9F1040905E001200490D7
:102340000BE008B145F0010501200590049820B983
:10235000361D02E0049800B1361FB969089808F1EB
:1023600001088847BBF1000FAAF1010A0290C9D009
:102370000999C1F80080C5E70298702808D0502854
:1023800006D0F96908988847BBF1000F14D04FE0D8
:10239000002002900120BBF1000F049009D0B96920
:1023A000089808F101088847AAF10109B9F1000F5E
:1023B00007DCF969089888476FF001000BB0BDE8A9
:1023C000F08F2B2804D02D280CD14FF0FF30049033
:1023D000B969089808F101088847A9F10109B9F11C
:1023E000000FE6DD411CE4D00A21FFF75FFF002863
:1023F000DFDB029908F1010801EB810100EB4100EC
:102400000290B969089888470A21FFF74FFF099A97
:10241000A9F10109B9F1000FC2F8008001DD00281F
:10242000E7DAF969089888470499029800FB016681
:1024300055EA040004D004F04041090002D006E04F
:10244000039898E0A40044EA9574AD00B61E04F029
:102450000041080002D16D196441761E159810F0F4
:10246000240F03D04FF00B095C4803E04FF028091C
:102470006FF07D008246564507DAAAEB06018944D3
:10248000B9F1410F01DD4FF0410901200021A9F10F
:10249000010200F043F9024628400B462140084360
:1024A00001D0012100E00021501E029143F1FF31D3
:1024B00028402140084301D0012000E0002002997B
:1024C000834651EA0B014FD0002108464FF000002F
:1024D000039900F4400039B100EB80004FF4400153
:1024E00000EBD07001EA60008015012802DD4FF09A
:1024F000FF3000E013D0401C36D0029860B3BBF12F
:10250000000F0CD14A460120002100F007F92840B5
:102510002140084301D0012000E00020E0B101206B
:102520004A46002100F0FAF8034640190A46614184
:102530002D1A8C4111D3B9F1400F09DD159810F017
:10254000240F02D0AAF1340603E0AAF1170600E036
:10255000761C00254FF0004406E05B1E42F1FF327E
:1025600020EA030521EA0204CAF10100B04206DABA
:102570001B49039808430190002000900EE0039A45
:10258000C4F3D321E80A0A43164940EA44500A43F7
:102590003146CDE90002684601F0D7FD159810F0EC
:1025A000240F0BD01598C00715D13868DDE900124B
:1025B000031D3B600068C0E900120CE002A86946F8
:1025C00001F0BAFD1598C00705D13868029A011DBF
:1025D0003960006802604046F0E6000002FCFFFF40
:1025E0000000F07F0000F03F2DE9FF4F92461D46AE
:1025F00085B04FF00041DDE9124BDDE914727F1E1A
:1026000001EA4B50414940F0FF4940EA01080021EE
:1026100022F020004928049102D04E2828D04CE016
:102620003BA0012607C88DE80700A9690698641C2D
:1026300088477F1E014606D41DF8060018B121F018
:10264000200181420BD0E96906988847032E34D0D7
:10265000082E32D06FF0010009B0BDE8F08F761C73
:10266000032E01D0082EE0D1601CCAF80000DCE780
:10267000A9690698641C88477F1E2AD420F0200090
:10268000412826D1A9690698641C88477F1E20D45A
:1026900020F020004E281CD1A9690698641C8847A8
:1026A0007F1E48F4002849F48009CAF8004001D48C
:1026B000282806D0E969069888475FEACB7012D0CF
:1026C00022E0A9690698641C88477F1E01D400286F
:1026D00003DAE96906988847BCE72928F1D1641C28
:1026E000CAF80040E9E71BF0240F07D028680499D6
:1026F000031D2B600068C0E9001805E02868021D72
:102700002A600068C0F800902046A5E70000F07F2E
:10271000494E46494E49545900000000B2F1200389
:102720000AD5C2F1200301FA02F120FA03F300FAFC
:1027300002F041EA0301704700FA03F14FF0000094
:1027400070475FEA400C08BF91F0000F4FEA8C23FE
:102750004FEAC12243EA51514FEA1C5018BF00F51D
:10276000F0404FEA300018BF41F000415FEA6C5C76
:1027700000F02980BCF1FF3F08BF40F08040704767
:10278000130C06BF12044FF0100C4FF0000C130E88
:1027900004BF12020CF1080C130F04BF12010CF15C
:1027A000040C930F04BF92000CF1020CD30F04BF72
:1027B00052000CF1010C11464FF00002A0F11F0075
:1027C000A0EB0C00704711F0004F08BF704731F0CC
:1027D00000413FF4D5AF0B0C06BF09044FF0100CBD
:1027E0004FF0000C0B0E04BF09020CF1080C0B0F8C
:1027F00004BF09010CF1040C8B0F04BF89000CF11C
:10280000020CCB0F04BF49000CF1010CCCF12003EA
:10281000A0EB0C0022FA03F302FA0CF241EA0301E6
:1028200000F10100704720F07F4C80EA030023F0A4
:102830007F47ACEB070303F57C5300F0004003F146
:10284000FF032DE980494FEA154B09B44FEA1443C1
:1028500025EA0B4E24EA03480FF2042606EB132761
:1028600049083E785FEA320203FB0667C7F50007B6
:1028700007FB06F64FEA54374FEAD64606F1020642
:1028800007FB066CCCF1005C4FEA1C472CEA074CB6
:1028900007FB06F40CFB06F504EB15464FEA96160B
:1028A00034BF00204FF000404FEAD13706FB07FC51
:1028B0004FEA1C4C0CFB0BF7D21B03FB0CF761EB34
:1028C00007010CFB0EF7B0EB074072EB17420CFB55
:1028D00008F734BFA2EB0742B2EB074261EB1741A6
:1028E0004FEA0C444FEA910706FB07FC4FEA1C4CE9
:1028F0000CFB0BF7B0EBC74072EB573203FB0CF746
:1029000034BFA2EBC742B2EBC74261EB57310CFBBD
:102910000EF7B0EBC70072EB57720CFB08F734BF31
:10292000A2EBC702B2EBC70261EB5771039F4FEAFC
:10293000816141EA921104EBCC044FEAD1374FEAAE
:10294000826206FB07FC42EA90124FEA80604FEA7F
:102950001C4C0CFB0BF7D21B03FB0CF761EB0701C4
:102960000CFB0EF7B0EB074072EB17420CFB08F7BD
:1029700034BFA2EB0742B2EB074261EB17414FEACB
:102980008C554FEA910704EB9C2406FB07FC4FEAA9
:102990001C4C0CFB0BF7B0EBC74072EB573203FB40
:1029A0000CF734BFA2EBC742B2EBC74261EB573121
:1029B0000CFB0EF7B0EBC70072EB57720CFB08F77D
:1029C00034BFA2EBC702B2EBC70261EB577115EB44
:1029D0004C254FEA816141EA92114FEA82624FEA47
:1029E000D13742EA901206FB07FC44F100044FEA9B
:1029F00080604FEA1C4C0CFB0BF7D21B03FB0CF75F
:102A000061EB07010CFB0EF7B0EB074072EB1742CE
:102A10000CFB08F734BFA2EB0742B2EB074261EBB5
:102A2000174115EB1C154FEA813141EA92414FEAFB
:102A3000823242EA90424FEA80304FEA0C7644F10B
:102A4000000448EA03434EEA0B484FF0000EB2EB95
:102A5000080C71EB030724BF624639464EEB0E0E9D
:102A60004FF0000B0018524149414BEB0B0BB2EBFE
:102A7000080C71EB03077BF1000B24BF624639465B
:102A80004EEB0E0E4FF0000B0018524149414BEB3C
:102A90000B0BB2EB080C71EB03077BF1000B24BFAF
:102AA000624639464EEB0E0E51EA020718BF46F059
:102AB000010616EB0E7655F1000254F1000103D524
:102AC000BDE88901BDE80088BDE88901BDE800488E
:102AD000B619524141EB0101A3F101037047808017
:102AE0007F7E7D7C7B7A7978777676757473727168
:102AF00071706F6E6E6D6C6C6B6A6A696868676620
:102B000066656464636362616160605F5F5E5E5DB1
:102B10005D5C5C5B5B5A5A59595858575756565525
:102B200055555454535352525251515050504F4F87
:102B30004F4E4E4D4D4D4C4C4C4B4B4B4A4A4A49D7
:102B4000494948484847474747464646454545441A
:102B500044444443434343424242424141410000D2
:102B600046EA0646A3F570534FEA164646EA425631
:102B70004FEAD22242EA415210B54FEAD121A3F1E5
:102B8000010300F02FF820F0004000F1020C00F0EB
:102B9000004701EB00501146BCF5006F40EA07000A
:102BA00000D210BDBAF1000F0AD01CB503B44FF02B
:102BB00004004FF004014FF000000FBCBDE81040CE
:102BC0004FF00001BBF1010FB9BF04484FF0FF31D6
:102BD0000348002140EA070010BD00BFFFFFEF7F60
:102BE0000000F07F002B9C4630D477002BD01CB522
:102BF0004FEA370703B44FF010004FF01001BAF15D
:102C0000000F06D0BCF1000FDCBF40F0080040F020
:102C100008014FF000000FBCBDE810400BF1010BA4
:102C2000BBF1010F08BF5FEA170722BF12F10102D3
:102C300011F101014FF0004143F1000300F00040A9
:102C400043EA00007047F9D35708D0E746EA064642
:102C500013F1400F4FEA16461FDD13F1200FDFBFBF
:102C600016430A46002120335B42BED0C3F1200741
:102C700046EA064602FA07F74FEA164646EA07060C
:102C8000C3F1200722FA03F201FA07F721FA03F150
:102C90004FF0000342EA0702A7E746EA020646EAC7
:102CA00006464FEA164646EA0106BCBF46EA064615
:102CB000360C4FF000034FF000024FF0000194E794
:102CC0002DE9804C9A46934670B491E8380007C8C5
:102CD00031EA400C48BF34EA430C03D5FFF7A3FDAB
:102CE000FFF780FFF0BCBDE8008C2DE9804C9A46D0
:102CF000934670B491E8380007C831EA400C48BFE9
:102D000034EA430C03D5FFF78EFDFFF729FFF0BC33
:102D1000BDE8008C2DE9804C9A46934670B491E84A
:102D2000380007C810F0804F08BF13F0804F03D160
:102D300000F01AF8FFF756FFF0BCBDE8008C2DE953
:102D4000804C9A46934670B491E8380007C810F05A
:102D5000804F08BF13F0804F03D100F005F8FFF754
:102D6000FFFEF0BCBDE8008C20F07F4780EA030046
:102D700023F07F4C07EB0C03A3F57C5300F00040DD
:102D8000A3F1FE0392F0000F00F0B38095F0000F66
:102D900000F077802DE901494FEA11404FEA1446CF
:102DA00021EA004800FB06FC24EA064708FB06F679
:102DB00007FB08F800FB07F718EB06484CEB164C2E
:102DC0004FEA124B18EB07484FEA15464CEB1740F9
:102DD00022EA0B4E0BFB06FC25EA06470EFB06F625
:102DE00007FB0EFE0BFB07F71EEB064E4CEB164CDB
:102DF0004FF000061EEB074E4CEB174B18EB0B0881
:102E000040F1000018EB0E0B58EB000840F10000F9
:102E10008F1A4FF000013CBFC943661B14BFB5EBCE
:102E2000040C00213CBFC943F61B4FEA17444EEA8D
:102E30008E0E27EA04454FEA1C4704FB07622CEA82
:102E4000074C05FB07F70CFB05F604FB0CFC16EB27
:102E5000074642EB174216EB0C4642EB1C421BEBBB
:102E6000060658EB0202414146EA9E0601D5BDE83E
:102E70000189B619524141EB0101A3F10103BDE8FB
:102E800001894FEA14454FEA114724EA054621EA31
:102E9000074C05FB07F406FB07F70CFB06F105FBE7
:102EA0000CFC11EB074144EB17444FEA124711EBBE
:102EB0000C4144EB1C4422EA074C05FB07F206FBDD
:102EC00007F70CFB06F605FB0CFC16EB074642EB7E
:102ED000174216EB0C4642EB1C456A1854F10001F0
:102EE00048BF7047B619524141EB0101A3F10103FC
:102EF000704795F0000F37D04FEA11424FEA144760
:102F000021EA024624EA074C02FB07F106FB07F719
:102F10000CFB06F402FB0CFC14EB074441EB1741DD
:102F20004FEA154714EB0C4441EB1C4125EA074CD2
:102F300002FB07F506FB07F70CFB06F602FB0CFC91
:102F400016EB074645EB174516EB0C4645EB1C42C6
:102F5000121951F1000148BF7047B619524141EBB7
:102F60000101A3F1010370474FEA14454FEA1147ED
:102F700024EA054621EA074C05FB07F106FB07F7A3
:102F80000CFB06F24FF0000605FB0CFC12EB0742AF
:102F900041EB174112EB0C4251EB1C4148BF70470B
:102FA000921841EB0101A3F1010370477CB5274959
:102FB0000120CDE900010023802225A1274807F048
:102FC000FBFF22480324001DCDE9004000234FF4FD
:102FD000807223A1254807F0EFFF1C49002008312B
:102FE000CDE9000103464FF4006221A1214807F01A
:102FF000E3FF16484FF400750C30CDE90040002384
:103000002A461DA1204807F0D7FF1048022410309F
:10301000CDE9004000232A461CA11F4807F0CCFF41
:103020000A4800231430CDE900402A461BA11D4860
:1030300007F0C2FF054904201831CDE90001002343
:10304000802219A11B4807F0B7FF7CBD00000020BB
:10305000765461736B4C656400000000F19F0108B9
:1030600076544D54486F73740000000069A0010845
:10307000636D6400F5A00108765461736B496E6658
:103080007261726564000000AD9F0108765461733F
:103090006B52656164657200D1A201087654617358
:1030A0006B51520075A20108765461736B537461C1
:1030B0007274000085A301080FB410B5B4B037AB2B
:1030C000C9216846369AFDF7C5F90A4C4FF0FF3121
:1030D000E06907F07BFE694607A0FDF7D5F90023FC
:1030E0001A461946E06907F0C5FC34B010BC5DF81B
:1030F00014FB00000000002025730000FEE7000024
:1031000070B5094DFF231A4605F5807605E010F8E5
:10311000014B54402A5D5A40335D491E89B2F6D2B4
:1031200042EA032070BD0000EAB9010870470000C0
:1031300070B54FF48065284600F02EF8124C60B14F
:103140001E2002F077FD2946204600F0CBF808B992
:1031500000F052FE284600F019F84FF400652846AA
:1031600000F01AF800280ED01E2002F063FD294658
:10317000204600F0B7F808B900F076FE2846BDE812
:10318000704000F003B870BD000C024001490860B7
:1031900070470000143C0140034A014600201268B9
:1031A0000A4200D001207047143C014030B51A4A51
:1031B0008379016853B313688B431360111D0B6847
:1031C0000468A3430B60017911440B68046823432E
:1031D0000B60114B083319680468A14319601C1D6A
:1031E00021680568A94321604179102905D011445F
:1031F0000A68006802430A6030BD1968026811431A
:103200001960216800680143216030BD00791044D5
:1032100002688A43026030BD003C014001490860F9
:10322000704700000C3C024005480068002805DAA1
:10323000034804490C3801600349016070470000ED
:10324000103C024023016745AB89EFCDF0B5002269
:1032500001274FF0030C0B6807FA02F52B40AB4235
:103260002CD1066853000CFA03F4A64306600E79CD
:10327000D0F800E09E4046EA0E0606600E79012E68
:1032800001D0022E12D18668A64386604E79D0F80E
:1032900008E09E4046EA0E0686604668AE434660F9
:1032A00045688E799640B6B235434560C568A543FA
:1032B000C560CC799C40C3681C43C460521C102A72
:1032C000C9D3F0BD4B07DB0E9A40C90810B500EB1F
:1032D0008100016A0F249C40A1430162016A1143ED
:1032E000016210BD0246002012690A4200D001208E
:1032F000704741837047018370470000114906A35E
:1033000000201A5C8A800A885206FCD5401CC0B294
:103310002A28F6D3FEE700000D0A456E7465722078
:10332000486172644661756C745F48616E646C6577
:10333000722C2053797374656D2048616C742E0D66
:103340000A0000000010014002494CF6CC40086021
:103350007047000000300040AFF3008002494AF699
:10336000AA20086070470000003000400149486012
:10337000704700000030004001498860704700003D
:1033800000300040014908607047000000300040F4
:10339000FEE7704730B50F23C27801780125FAB1F6
:1033A000144A126801F1E02102F4E062C2F5E06221
:1033B000C2F30722C2F10404D3404278A2408478C9
:1033C0001C401443220181F80024007800F01F0102
:1033D0008D404009800000F1E020C0F8005130BD70
:1033E00001F01F0085404809800000F1E020C0F88E
:1033F000805130BD0CED00E00249084302490860ED
:10340000704700000000FA050CED00E0044A0029B6
:10341000116801D0014300E0814311607047000052
:1034200030380240044A0029116801D0014300E00D
:10343000814311607047000040380240044A00296F
:10344000116801D0014300E0814311607047000022
:1034500020380240044A0029116801D0014300E0ED
:10346000814311607047000044380240044A00293B
:10347000116801D0014300E08143116070470000F2
:10348000243802400248016841F0807101607047B1
:103490007438024070B5204B1968204C11F00C01B3
:1034A00004D06610042903D0082903D004601BE06F
:1034B000066019E0184A121F1168C1F3805511689F
:1034C00001F03F0115B1B6FBF1F101E0B4FBF1F100
:1034D00014681268C4F388146143C2F30142521C99
:1034E0005200B1FBF2F1016019680F2202EA1111DA
:1034F0000B4A545C0168E14041601C68072505EAFD
:103500009424145D21FA04F484601B6805EA5333A3
:10351000D25CD140C16070BD083802400024F40084
:10352000BE00002002460020510901290BD00229CB
:103530000CD00849096802F01F02012393400B4296
:1035400000D00120704703497439F3E70149091F8E
:10355000F0E700007438024001490860704700003D
:10356000800E47420029018802D041F4005101E059
:1035700021F40051018070470029018802D041F0F8
:10358000400101E021F04001018070471A4910B567
:10359000884202D10121841424E01849884202D1D2
:1035A0000121041404E0164988420AD10121C41300
:1035B0002046FFF743FF2046BDE810400021FFF7FB
:1035C0003DBF1049884202D1012144140AE00E494E
:1035D000884202D101210C0504E00C4988420AD13D
:1035E00001214C052046FFF741FF2046BDE8104071
:1035F0000021FFF73BBF10BD003001400038004004
:10360000003C0040003401400050014000540140A3
:103610000246002012890A4200D0012070478089AA
:1036200070478181704730B502884C8802F441535D
:103630000A88CD8822438C882C4322430C8922435C
:103640004C8922438C892243CC8922431A4302802D
:10365000828B22F400628283098A018230BD10B518
:10366000FFF7E2FDBDE81040F320FFF7D7BD0000F3
:1036700010B58A0721F003040849120F21440F23D3
:10368000D1F8084893409C43C1F80848D1F808385D
:1036900090400343C1F8083810BD000000300140DD
:1036A0000CB50022274900920192086840F480304E
:1036B00008604FF4A043086800F4003001900098BF
:1036C000401C0090019810B900989842F3D1086806
:1036D000800334D5012001901A484030026842F03E
:1036E000805202601848026842F440420260154865
:1036F000083002680260026842F400420260026818
:1037000042F4A0520260031F104A1A600A6842F095
:1037100080720A600A689201FCD50D4940F2057278
:103720000A60016821F003010160016841F00201B3
:1037300001600168C1F381010229FAD10CBD019237
:103740000CBD0000003802400070004008544007E3
:10375000003C02404FF0E0210428086903D020F02B
:1037600004000861704740F00400FAE710B507F064
:103770004FFC012803D0BDE8104007F0E5B810BDAC
:10378000114810B5016841F4700101600F480168EB
:1037900041F0010101600D4A002108321160026808
:1037A0000B4B1A400260031D0A4A1A60026822F499
:1037B0008022026005480C300160FFF771FF02496A
:1037C00005488039086010BD88ED00E000380240EF
:1037D000FFFFF6FE103000240000010810B50DA117
:1037E0000EA002F027FD002812D10FA110A002F0B8
:1037F00021FD12A0FCF748FEBFF34F8F124801686D
:10380000124A01F4E06111430160BFF34F8FFEE7FC
:1038100010BD0000353035300000000057535049CE
:10382000464C41534800000036303630000000005E
:10383000574D4355464C4153480000006A756D7022
:10384000206961700D0A00000CED00E00400FA052B
:1038500010B50E4C0121204600F035F8002813D099
:103860000B490868401C086001F07AF8094908799A
:1038700020B1087B10B1087B401E08732046BDE8CC
:103880001040012100F012B810BD000000100040EF
:103890008C000020386701200029018802D041F007
:1038A000800101E021F0800101807047C94301825D
:1038B00070470029018802D041F0010101E021F0A8
:1038C00001010180704702460020138A92890B4251
:1038D00002EA010202D0002A00D001207047002A2B
:1038E000828901D00A4300E08A4382817047000048
:1038F00030B50288164C174DA0420DD0A8420BD00F
:10390000B0F1804F08D0144B984205D0134B984229
:1039100002D0134B984203D122F070034A881A4315
:10392000104B984206D0104B984203D022F44073BB
:103930000A891A4302804A68C2620A880285A04244
:1039400001D0A84201D1897A01860121818230BD4E
:103950000000014000040140000400400008004055
:10396000000C0040001000400014004070B51F4CD7
:1039700040F225552946204600F046F920B320465E
:1039800000F0D0F91A4AC0B25688138800215B1E95
:103990009E4217D0138823B95388A3F54076FF3E83
:1039A00010D0144B568898555088401C5080508831
:1039B000B0F5806F00D3518029462046BDE87040A5
:1039C00000F00BB91180F6E74FF45A7529462046EE
:1039D00000F01AF9002808D02946204600F014F912
:1039E0002046BDE8704000F09DB970BD004C00401D
:1039F000B40000203862012010B50A4C40F2255175
:103A0000204600F001F900280BD0204600F08AF98A
:103A1000054AC1B21078FF2803D2044B1954401C48
:103A2000107010BD00440040B8000020386601202E
:103A300070B51F4C40F225552946204600F0E4F8A9
:103A400020B3204600F06EF91A4AC0B25688138897
:103A500000215B1E9E4217D0138823B95388A3F51B
:103A60004076FF3E10D0144B568898555088401C25
:103A700050805088B0F5806F00D351802946204691
:103A8000BDE8704000F0A9B81180F6E74FF45A7510
:103A90002946204600F0B8F8002808D029462046DC
:103AA00000F0B2F82046BDE8704000F03BB970BDB0
:103AB00000100140A40000203856012070B51F4CB2
:103AC00040F225552946204600F09EF820B32046B6
:103AD00000F028F91A4AC0B25688138800215B1EEC
:103AE0009E4217D0138823B95388A3F54076FF3E32
:103AF00010D0144B568898555088401C50805088E0
:103B0000B0F5806F00D3518029462046BDE8704053
:103B100000F063B81180F6E74FF45A752946204645
:103B200000F072F8002808D02946204600F06CF812
:103B30002046BDE8704000F0F5B870BD004400407C
:103B4000A8000020385A012070B51F4C40F22555BE
:103B50002946204600F058F820B3204600F0E2F84D
:103B60001A4AC0B25688138800215B1E9E4217D0A5
:103B7000138823B95388A3F54076FF3E10D0144B29
:103B8000568898555088401C50805088B0F5806FFA
:103B900000D3518029462046BDE8704000F01DB892
:103BA0001180F6E74FF45A752946204600F02CF8AC
:103BB000002808D02946204600F026F82046BDE817
:103BC000704000F0AFB870BD00480040B000002069
:103BD000385E0120C943018070470A0A01219140E3
:103BE000C943018070470029818902D041F4005106
:103BF00001E021F4005181817047024600201288C3
:103C00000A4200D00120704770B501F01F0501265F
:103C10000024C1F3421306FA05F2012B0FD0022B48
:103C20000FD0838A4FEA11210088134206FA01F669
:103C300000EA060001D000B10124204670BD83894E
:103C4000F0E7038AEEE710B5C1F3421301F01F0459
:103C50000121A140012B07D0022B07D01430002AEC
:103C6000026805D00A4304E00C30F8E71030F6E7AC
:103C70008A43026010BD00007FB50446008A0D46ED
:103C8000C98820F4405001432182A08941F20C618F
:103C90008843A9882A8911436A8902431143A18173
:103CA000A08A20F44071A8890843A0826846FFF7E3
:103CB000F1FB1A48844202D01948844201D103988A
:103CC00000E00298A189090400EBC00101EB00109B
:103CD000296801D5490000E08900B0FBF1F06422B9
:103CE000B0FBF2F109010B096FF018056B4300EB13
:103CF0008300A3891D044FF0320306D503EBC000F7
:103D0000B0FBF2F000F0070005E003EB0010B0FBA1
:103D1000F2F000F00F00084320817FBD0010014049
:103D2000001401408088C0F308007047C1F3080107
:103D300081807047FEE700002DE9F0472C4C207889
:103D4000002626702B4D1A2805D0222843D1A168C1
:103D5000090E297042E02E70A168C1F34009A168E4
:103D60004FF00C088A0800234FF0010C19461CEA9A
:103D7000020F01D05B1CDBB2491C5208C9B241459D
:103D8000F5D313F0010F4FF0010A01D0314600E0E6
:103D9000514649451FD1A1688908A160A1684FF02B
:103DA0000C080A0B00234FF0010C19461CEA020F05
:103DB00001D05B1CDBB2491C5208C9B24145F5D3A6
:103DC00013F0010F01D0514600E03146094A521E5E
:103DD0001278914202D00020BDE8F087A168090C5A
:103DE0006970A168090AA970A168E970A660F3E783
:103DF00038670120BA000020194800218170042290
:103E0000027303780122222B037802D25B1C037019
:103E100004E0222B06D00170417001710378012B60
:103E200002D006E04270F8E78160027181780D4AA5
:103E300011700178012912D9017822290FD28178D5
:103E40000029816802D041F0010101E021F0010167
:103E500081600178212902D2816849008160704720
:103E600038670120B900002019480122827004211E
:103E7000017303780021222B037802D25B1C0370AC
:103E800004E0222B06D00170417001710378012BF0
:103E900002D006E04270F8E78160027181780D4A35
:103EA00011700178012912D9017822290FD2817865
:103EB0000029816802D041F0010101E021F00101F7
:103EC00081600178212902D28168490081607047B0
:103ED00038670120B900002003B401984100009820
:103EE00050EAC12018BF04204A0D18BF40F001005D
:103EF00040F2FF72B2EB515F08BF40F002000128B0
:103F000008BF052002B0704730B52DED048B81B09D
:103F1000B0EE408AF0EE608A6A4651EC180B02F06F
:103F2000D7FA00989FED329B7E300090002821DC6C
:103F300053EC192B51EC180B07F0DAFA1AD00021C8
:103F400040F608004FF00000044651EC180B07F053
:103F500089FA08EE100A40F6080004EA00014FF062
:103F60000000B5EEC08AF1EE10FA04BF0220FEF7A1
:103F700097F92DE00098FF2830DB002108464FF02C
:103F8000000000F4400553EC192B51EC180B07F01E
:103F900067FC8CBF002401240220FEF781F99FED0D
:103FA000168A4DB1002C0CBF4FF400004FF4800076
:103FB000A84218BF9FED118A042108464FF0000067
:103FC000002C01BFB1EE480A01B0BDEC048B30BD3E
:103FD000B0EE480A01B0BDEC048B30BD51EC180BBB
:103FE00007F040FA01B000EE100ABDEC048B30BDC2
:103FF00000000000000000000000807FFFFF7F7FC6
:1040000030B540F2FF742DED048BF0EE608A18EEAF
:10401000901A85B0B0EE408A9FED2B9B05468DED42
:10402000008B34EA115147D053EC192B51EC180B8B
:1040300007F05EFA40D02A4651EC180B07F089FCD5
:1040400041EC180B18EE900A8DED008B34EA1050FD
:104050001CD053EC192B51EC180B07F049FA2BD15B
:104060000220FEF71DF900F057F810EE901A18EE36
:10407000900A8DED020B8DED008B61F31E00039015
:104080009DED020B05B0BDEC048B30BD0220FEF7A8
:1040900007F900F031F810EE901A18EE900A8DED45
:1040A000020B8DED008B61F31E0003909DED020B62
:1040B00005B0BDEC048B30BD05B0B0EE480AF0EEA3
:1040C000680ABDEC048B30BD000000000000000059
:1040D00000B583B09FED060B0A4601468DED000B3F
:1040E0006846FDF705FC9DED000B03B000BD000028
:1040F00000000000000000009FED050B10B553EC20
:10410000102B51EC100B07F0ADFA41EC100B10BD69
:1041100000000000000000709FED050B10B553EC8F
:10412000102B51EC100B07F09DFA41EC100B10BD59
:10413000000000000000001010B5044691ED000BD7
:10414000FFF7E2FE84ED000A10BD10B5044690EDC5
:10415000000B0846FFF754FF84ED000B10BD30380C
:104160000A2801D2012070470020704770470000E4
:104170002DE9FE4F5FEA00084E481C4616460F46E2
:1041800008F120094FF0010A0ED098F834100029E8
:1041900013D0D8F81000B919814217D946A005F0FC
:1041A00089FA0520BDE8FE8F00904DA34EA240F293
:1041B000B92155A005F05CFAFEE700905AA34AA287
:1041C00040F2BA2150A005F053FAFEE7D9F80810E2
:1041D000484601B18847F8070CD0204639460123EC
:1041E0000090641C7F1C1A46404602F0FDFE05004C
:1041F00054D1761E0121404604F080FF05004DD1C8
:10420000AD208DF804000DF1040B34E0BAF1000F7D
:1042100013D05D466A1C3946404602F031FC98F8DE
:10422000350008B1052200E004222078A854A9181E
:10423000607848704FF0000A06E020788DF805009D
:10424000607801228DF80600002000900023D9F844
:104250000450484601A9921CA847050003D036A087
:1042600005F028FA1AE0404606F050F9050015D18D
:10427000A41CB61EBF1C022EC8D20021404604F06A
:104280003DFF05000AD1012E0CD101231A46394603
:104290004046009402F0A8FE050003D000214046ED
:1042A00004F02CFFD9F80C10484601B18847284685
:1042B00078E7000089BE01084572726F723A2046A5
:1042C0006C61736820616464726573732069732024
:1042D0006F7574206F6620626F756E642E0D0A0014
:1042E000666C61736800000028257329206861737B
:1042F00020617373657274206661696C6564206106
:10430000742025732E0D0A002E2E5C324C6F774CD4
:10431000617965725C464C4153485C7372635C73AF
:104320006675642E63000000666C6173682D3E69DB
:104330006E69745F6F6B00004572726F723A20464F
:104340006C617368207772697465205350492063EB
:104350006F6D6D756E6963617465206572726F72E1
:104360002E0D0A0019B110B1826812B104E00020CC
:104370007047816005E0024610680028FBD111609B
:104380004A60012070472DE9F0410D4606991F460D
:1043900014465FEA000806D02DB124B131B1E068BF
:1043A00040F400760BE00020BDE8F0811946284675
:1043B00001F0F2F8051EF7D0E06820F40076A0893D
:1043C000800503D4206A08B179688847E6602146F1
:1043D00040462562BDE8F041FFF7C4BFF8B514467A
:1043E0000D46064668460121FF22FCF735FB2246B2
:1043F0002946304601F0FAFEF8BD0000F3B585B05D
:10440000054600214FF0FF300291CDE90310184816
:10441000CDE9000103AB02AA284604F0E2FB154EE9
:104420000398012438B1CDE9006404AB06AA022147
:10443000284604F0D6FB0299B9B10498401C14D167
:10444000012902D80C4F787840B1CDE9006404AB63
:1044500006AA0121284604F0C4FB06E007A240F2A8
:10446000DA2112A001F008FE7C70049807B0F0BDBC
:10447000398C0108D54401089C01002054726967F9
:10448000676572206120474320636865636B206124
:104490006674657220616C6C6F6320454E562066B1
:1044A00061696C65642E0D0A000000002E2E5C33DD
:1044B0004D6964646C654C617965725C65617379A2
:1044C000666C6173685C7372635C65665F656E766B
:1044D0002E63000003785BB1036909688B4207D93A
:1044E0008178012906D0022902D10449497809B10D
:1044F0000020704740691060012070479C01002037
:1045000030B5D40702D00BB1002300E055230025BD
:1045100017E00C78612C01D3573C06E0412C01D305
:10452000373C02E0302C02D3303CE4B200E00024FF
:10453000552B0DD044EA031300F8013B5523491CC9
:104540006D1C9542E5DB552B01D01901017030BD82
:104550002346F4E730B50024D50716D0ABB10124CB
:10456000521C12E0E30704D011F8013B03F00F03E3
:1045700001E00B781B090370092B01D9372500E0F6
:1045800030252B4400F8013B641C9442EADB30BD2B
:104590001CB501212020FEF739FF4FF47C700090FC
:1045A00001208DF8040000218DF8061003218DF8FC
:1045B0000510064C8DF8070069462046FEF746FEBA
:1045C0004FF45C712046FEF794FE1CBD00140240BF
:1045D00010B590B0044640216846FCF767FA0F22F8
:1045E00021466846FCF7C1F99DF800004C2820D10F
:1045F0009DF805004D281CD19DF80A00522818D1BD
:104600000D489DF80210C0F89C129DF80410C0F8E7
:1046100098129DF80710C0F8A4129DF80910C0F870
:10462000A0129DF80C10C0F894129DF80E10C0F85E
:10463000901210B010BD0000008042422DE9FC41F4
:1046400000253E4F06460095102138460195FEF79D
:1046500049FE3B4C0028607A58D020F0010060727F
:1046600020213846FEF73EFE0028607A51D020F027
:104670000200607240213846FEF734FE0028607A5E
:104680004AD020F00400607280213846FEF72AFEEE
:104690000028607A43D020F008002A4F6072102171
:1046A0003846FEF71FFE0028607A3BD020F010004D
:1046B000607220213846FEF715FE0028607A34D05B
:1046C00020F02000204F607201213846FEF70AFEDC
:1046D0000028607A2CD020F0400060720221384619
:1046E000FEF700FE0028607A25D020F0800060727E
:1046F000C2B2009515A168460195FBF7D1FE00985E
:104700003060BDF80400B080BDE8FC8140F00100DD
:10471000A5E740F00200ACE740F00400B3E740F04A
:104720000800BAE740F01000C2E740F02000C9E7F7
:1047300040F04000D1E740F08000D8E700000240A0
:10474000780000200008024000040240253036585E
:104750000000000010B54FF44070FEF74DFEA82099
:1047600001F030FA00F0C0F84FF41644204600F093
:1047700015F9204600F0A4F9204600F01BFA4FF48A
:10478000E13000F0ADFA00F02FF8FFF701FFFEF77F
:1047900066FF01F0E9FA00F0D7FB00F0F3FBBDE89B
:1047A000104000F093BB10B504467D20FEF7BAFE22
:1047B00008B1FEF767FE0120FEF7CEFE6120FEF78E
:1047C000B1FE0028FAD045F25550FEF7DBFD03207C
:1047D000FEF7CCFDA0B2FEF7CFFDFEF7BFFDBDE8B2
:1047E0001040FEF7B1BD00002DE9FC5F0121322031
:1047F000FEF70CFE01248DF8044000258DF80650CC
:104800000326DFF87CB04FF480478DF805600097F1
:104810008DF8074069465846FEF718FD8DF80440AC
:104820008DF80650DFF85CA04FF440688DF8056005
:10483000CDF800808DF8074069465046FEF706FD2A
:104840008DF804408DF806508DF805608DF807400E
:104850000D4C4FF40069CDF8009069462046FEF7F4
:10486000F5FC39465846FEF746FD41465046FEF7F0
:1048700042FD49462046FEF73EFDBDE8FC9F000094
:104880000014024000100240000402402DE9F041F3
:10489000DFF848800E4601210746C8F88812002438
:1048A0000F4D0BE040212846FFF7A7F90028F9D06B
:1048B000395D2846FFF73AFA641CE4B2B442F1D3FA
:1048C00040212846FFF799F90028F9D00549002032
:1048D0000870C8F88802BDE8F0810000000042427C
:1048E00000500040B80000207FB501211020FEF7E5
:1048F00099FD1848184900240068184D4008B0FB7D
:10490000F1F0401E01906320ADF80000ADF80240C8
:10491000ADF8084069462846FEF7EAFF012128461F
:10492000FEF7BAFF012211462846FEF7D8FF012103
:104930002846FEF7BEFF36208DF80C0002208DF8C9
:104940000D008DF80E4001208DF80F0003A8FEF732
:1049500021FD7FBD24000020400D03000010004019
:104960000D48416811B14168491E4160816811B12B
:104970008168491E8160C16811B1C168491EC1606A
:10498000016911B10169491E01614169002902D023
:104990004169491E416170478C000020F0B507460F
:1049A00087B001210220FEF731FD01211020FEF722
:1049B00051FD234E072206213046FEF783FC0722D5
:1049C00011463046FEF77EFCC020049002208DF890
:1049D00014008DF8150000248DF8164001258DF87F
:1049E000175004A93046FEF731FCADF80440ADF88D
:1049F0000640ADF80840ADF80C400C20114CADF865
:104A00000A00009769462046FFF736F925208DF801
:104A1000180003208DF819008DF81A508DF81B50DE
:104A200006A8FEF7B7FC012240F225512046FFF709
:104A30000AF901212046FFF7D6F807B0F0BD0000C3
:104A400000040240001001400A490A884B889A423B
:104A500001D100207047084A0B88D25C0270088898
:104A6000401C08800888B0F5806F01D300200880C2
:104A700001207047A40000203856012070B50C4674
:104A8000054605E0287800F007F8641EA4B26D1C06
:104A9000002CF7D170BD000010B5084C014620462F
:104AA000FFF744F980212046FFF7A7F80028F9D046
:104AB0002046BDE810408021FFF78CB8001001406F
:104AC0002DE9F0438146012187B00846FEF79EFCA0
:104AD00001214804FEF7A6FCDFF88C8007220221A2
:104AE0004046FEF7EFFB072203214046FEF7EAFBB4
:104AF00002208DF8140003258DF8155000240C2693
:104B00008DF81640012704968DF8177004A94046C9
:104B1000FEF79CFBADF80440ADF80640ADF8084048
:104B2000ADF80C40114CCDF80090ADF80A60694624
:104B30002046FFF7A1F826208DF818008DF81950AF
:104B40008DF81A508DF81B7006A8FEF723FC012281
:104B500040F225512046FFF776F801212046FFF765
:104B600042F807B0BDE8F083000002400044004076
:104B700070B50C46054605E0287800F007F8641E7D
:104B8000A4B26D1C002CF7D170BD000010B5084C0C
:104B900001462046FFF7CAF880212046FFF72DF88E
:104BA0000028F9D02046BDE810408021FFF712B858
:104BB00000440040F0B5064687B001212820FEF7EA
:104BC00025FC01218804FEF72DFC264D0722082133
:104BD0002846FEF777FB072209212846FEF772FBDD
:104BE000072200212048FEF76DFB02218DF81410EA
:104BF0008DF815104FF44070002404908DF8164085
:104C000001278DF8177004A92846FEF71FFBADF8A1
:104C10000440ADF80640ADF80840ADF80C400C205B
:104C2000124CADF80A00009669462046FFF724F8BA
:104C300027208DF8180003218DF819108DF81A100F
:104C40008DF81B7006A8FEF7A5FB012240F2255146
:104C50002046FEF7F8FF01212046FEF7C4FF07B00B
:104C6000F0BD0000000C024000140240004800406B
:104C7000F8B54FF000040D000646009409D00A4F25
:104C80003A60386870B1684600F010F8012802D028
:104C900006E00020F8BD9DF800003055641CA4B269
:104CA000AC42EED32046F8BD980000200A490A889D
:104CB0004B889A4201D100207047084A0B88D25C89
:104CC00002700888401C08800888B0F5806F01D306
:104CD0000020088001207047B0000020385E0120CD
:104CE000F0B5074687B001210420FEF78FFB0121B4
:104CF000C804FEF797FB234E08220A213046FEF730
:104D0000E1FA08220B213046FEF7DCFA4FF440604E
:104D1000049002208DF814008DF8150000248DF801
:104D2000164001258DF8175004A93046FEF78EFA7B
:104D3000ADF808400C20144EADF80440ADF80A0060
:104D40000097ADF80640ADF80C4069463046FEF7D6
:104D500093FF34208DF8180003208DF819008DF88A
:104D60001A408DF81B5006A8FEF714FB012240F2F2
:104D700025513046FEF767FF01213046FEF733FF2D
:104D800007B0F0BD00080240004C0040F8B54FF0FD
:104D900000040D000646009409D00A4F3A603868B6
:104DA00070B1684600F010F8012802D006E000203B
:104DB000F8BD9DF800003055641CA4B2AC42EED39F
:104DC0002046F8BD9C0000200A490A884B889A4278
:104DD00001D100207047084A0B88D25C0270088815
:104DE000401C08800888B0F5806F01D3002008803F
:104DF00001207047B40000203862012070B50C46D5
:104E0000054605E0287800F007F8641EA4B26D1C82
:104E1000002CF7D170BD000010B5084C01462046AB
:104E2000FEF784FF80212046FEF7E7FE0028F9D038
:104E30002046BDE810408021FEF7CCBE004C00406B
:104E400070B52048002402790421002A027B2546FF
:104E50000DD082B9057102781A2A05D00278222A6B
:104E600002D04570057005E00121417003E012B9E0
:104E7000057045700173417809B34570FEF75CFF1A
:104E800001461148222902D01A290CD017E00178D6
:104E9000427844EA016141EA02418278C47841EAF9
:104EA00002210C4307E04178827844EA0143C47848
:104EB00043EA02231C43057045708570C570204687
:104EC00070BD000038670120BA00002070B586B0C0
:104ED00001210820FEF79AFA01258DF807500320DA
:104EE0008DF805004FF44066002400968DF80440CC
:104EF00069461448FEF7AAF901218803FEF7AAFAC9
:104F00000A210320FEF7B4FB0B210320FEF7B0FBC0
:104F10008DF80C400C208DF80D0002968DF80E5087
:104F200002A8FEF743F928208DF810008DF81140F3
:104F30008DF812408DF8135004A8FEF72BFA06B036
:104F400070BD0000000C02401CB501211020FEF7CE
:104F50005DFA1020009001208DF8040000208DF8EB
:104F6000060003218DF80510054C8DF807006946F1
:104F70002046FEF76BF910212046FEF7BCF91CBD58
:104F8000001002402DE9FC4101210720FEF73EFA06
:104F9000D020002400908DF8044002208DF80500F8
:104FA000154E01258DF8075069463046FEF74EF93B
:104FB0003020124F00908DF804408DF8075069465C
:104FC0003846FEF743F98DF8044003200C4C00905E
:104FD0008DF8075069462046FEF738F9D021304653
:104FE000FEF789F930213846FEF785F9032120467E
:104FF000FEF781F9BDE8FC81000002400008024094
:10500000000402402DE9F047B14D0126DFF8C4A2AB
:105010002878B14FDFF8C4924FF0000805F10E0474
:10502000002871D010215046FEF75CF930B32021E2
:105030005046FEF757F908B340215046FEF752F9A3
:10504000E0B180215046FEF74DF9B8B11021384645
:10505000FEF748F990B120213846FEF743F968B1D0
:1050600001214846FEF73EF940B102214846FEF7CD
:1050700039F918B1287800286FD01DE1052000F01B
:10508000BDFD85F8008010215046FEF72BF908B9C8
:10509000687828B120215046FEF724F928B106E0AF
:1050A0006E70207840F001000FE1A87828B140210F
:1050B0005046FEF717F928B106E0AE70207840F0B0
:1050C000020002E1E87828B180215046FEF70AF993
:1050D00028B106E0EE70207840F00400F5E0287971
:1050E00028B110213846FEF7FDF828B106E02E71F0
:1050F000207840F00800E8E0687930B12021384697
:10510000FEF7F0F830B107E027E06E71207840F04C
:105110001000DAE0A87930B101214F464846FEF789
:10512000E1F828B106E0AE71207840F02000CCE034
:10513000E87928B102213846FEF7D4F828B1BBE05F
:10514000EE71207840F04000BFE0287A00286ED150
:105150002E72207840F08000B7E010215046FEF714
:10516000C1F8012829D020215046FEF7BBF80128BC
:1051700023D040215046FEF7B5F801281DD08021EC
:105180005046FEF7AFF8012817D010213846FEF739
:10519000A9F8012811D020213846FEF7A3F80128EC
:1051A0000BD001214846FEF79DF8012805D00221C9
:1051B0004846FEF797F801287ED1052000F01EFD35
:1051C0002E7010215046FEF78DF8012802D1687824
:1051D000012806D020215046FEF784F8012806D089
:1051E00008E085F80180207820F001006DE0A878C3
:1051F000012806D040215046FEF774F8012806D059
:1052000008E085F80280207820F002005DE0E87870
:10521000012806D080215046FEF764F8012807D007
:1052200009E085F80380207820F004004DE043E099
:105230002879012806D010213846FEF753F80128B6
:1052400006D008E085F80480207820F008003CE0D3
:105250006879012806D020213846FEF743F8012856
:1052600006D008E085F80580207820F010002CE0BA
:10527000A879012807D001214E464846FEF732F8AA
:10528000012806D008E085F80680207820F020006C
:105290001BE0E879012806D002213046FEF722F80B
:1052A000012806D008E085F80780207820F040002B
:1052B0000BE0287A012803D04FF0FF30BDE8F087DB
:1052C00085F80880207820F080002070F6E7000044
:1052D0007800002000000240000802400004024064
:1052E00010B588B103687BB142688168914206D2EB
:1052F0005C5C202C03D8491C81600028F5D19142C8
:1053000001D1491E816010BD002010BDF8B50C46CA
:10531000054600F02BF8064600200090064B32466A
:1053200021462846FFF72FF80028304602D100F02A
:105330007DF80020F8BD000048000020F8B50546C3
:105340000C46104600F05AF8064600200090064B26
:10535000324621462846FFF716F80028304602D18B
:1053600000F064F80020F8BD4800002010B518488F
:105370002DED028BB0EE408AF0EE608A00F085F8E9
:10538000040020D00820E0609FED120B84ED068B16
:1053900053EC102B51EC180B06F062FA02D86FF0A8
:1053A00000400FE09FED0D0B51EC180B53EC102B50
:1053B00006F01CF902D84FF0004003E051EC180B46
:1053C00006F0D2F860612046BDEC028B10BD0000F3
:1053D000480000200000C0FFFFFFDF410000000088
:1053E0000000E0C110B5044800F04FF8002801D0DB
:1053F0004021C16010BD00004800002070B5054686
:10540000094800F042F8040007D01020E060064987
:10541000284600F0C1F8206108B1204670BD204642
:1054200000F004F8002070BD4800002070B504466C
:105430000F4E19E0A0892568C0050AD4A06820B1E4
:10544000FFF7F4FFA089C00503D4206908B1716893
:105450008847A089800503D4206A08B1716888470D
:105460007168204688472C46002CE3D170BD0000AF
:10547000480000200248D0E90010084470470000AE
:1054800040000020002201F007B910B50168282073
:105490008847040002D02821FBF708FB204610BDF6
:1054A00000221146AFF300802DE9F04788B00C468A
:1054B000054692461C216846FBF7F8FA314800265B
:1054C000002D066046605AD028460095FBF7E3F9A8
:1054D000401CDFF8B090CDE90106D9E90212D9F8F5
:1054E00010000491CDE90520B04609F10800FFF74E
:1054F000CCFF06002BD000986F4608B1029808B187
:1055000000200CE00198042808D903221EA100986D
:10551000FBF7E0F910B90298C01C02903846FFF77B
:10552000DFFE0146304602F07BF968B1BAF1000FA8
:1055300014D06846FFF7D4FEDDE90101814203D2B1
:1055400002990098405C48B13046FFF76FFFDDE9F3
:105550000121404691420AD208460BE01CB1029953
:10556000009808442060304608B0BDE8F087111E5E
:1055700000D0481E0CB129182160C9E90050002054
:10558000F2E7000040000020EFBBBF00014A00210D
:1055900002F0C4B94800002070B50C4606000DD0DA
:1055A000FBF779F9401C236805469847040005D0AD
:1055B0002A463146FBF7D9F9204670BD002070BD60
:1055C00038B504460178407809B1032802D0012893
:1055D0001AD017E0A17804F10C020F4800F074FD16
:1055E000204601F0BFFA38B10C4A40F246510CA0F7
:1055F000636800F041FD0DE013A240F2445108A0A1
:1056000000F03AFD002038BD052306226946E06A15
:1056100004F0E2FF012038BDBCC8010858C90108E8
:105620002E2E5C334D6964646C654C617965725CE7
:1056300065617379666C6173685C7372635C6566DF
:105640005F656E762E6300005265636F76657279D2
:105650002074686520454E562073756363657373C7
:1056600066756C2E0D0A000010B5017819B18078AE
:1056700003280BD00FE009A000F026FD00F046FD46
:1056800000F03EFC00F040FD012010BD1249012059
:10569000487000F06BFF002010BD00005761726E73
:1056A000696E673A20536563746F72206865616440
:1056B000657220636865636B206661696C65642E42
:1056C0002053657420697420746F20646566617569
:1056D0006C742E0D0A0000009C0100202DE9F041A1
:1056E00088B0044600208DF814001F4690460E46F0
:1056F00008466569FBF7CFF8202807D9202148A084
:1057000000F0E2FC042008B0BDE8F081FF22142183
:105710006846FBF7A1F93046FBF7BDF8C0B28DF83B
:105720000C003844143004970190B0F57F6F04D911
:1057300047A000F0C9FC0620E5E7681C06D120461A
:10574000019901F08FFB0546401C65D005AA204653
:10575000019904F04DFA04005FD1FF208DF8180084
:105760000822002003A900F04BFB02909DF80C20BA
:10577000314600F045FB029005E0012206A902989F
:1057800000F03EFB0290641EF7D24146049A029854
:1057900000F036FB0024029005E0012206A90298E1
:1057A00000F02EFB0290641EF7D26C460123062205
:1057B0002146284604F010FF20B91022211D281D83
:1057C00000F014FD040028D1314605F114009DF8C5
:1057D0000C200646FEF702FE04001ED19DF80C00C8
:1057E00041463044049AFEF7F9FD040015D1022326
:1057F00006226946284604F0EFFE04000DD19DF80C
:10580000140040B11BA24FF47B7124A000F034FCC3
:105810002C490120487000E00624204673E7000070
:105820004572726F723A2054686520454E56206E5C
:10583000616D65206C656E677468206973206D6F9B
:105840007265207468616E2025640D0A00000000F6
:105850004572726F723A2054686520454E56207327
:10586000697A6520697320746F6F206269670D0A19
:105870000000000054726967676572206120474329
:1058800020636865636B206166746572206372656E
:105890006174656420454E562E0D0A002E2E5C3331
:1058A0004D6964646C654C617965725C656173799E
:1058B000666C6173685C7372635C65665F656E7667
:1058C0002E6300009C0100200FB410B5C0B000246E
:1058D00043AA68464299FAF7ABFD684601E0401CCE
:1058E000641C01780029FAD1A1B26846FFF740F99B
:1058F00040B010BC5DF814FB70B50E46014615466D
:1059000000240BA0FAF7C0FD0FA0FAF7BDFD04E0DC
:10591000315D0EA0FAF7B8FD641CAC42F8DB0DA0B7
:10592000FAF7B2FD2946BDE870400CA0FAF7ACBD0D
:105930002D2D2D2D2D2D2D2D2D2D25732D2D2D2D59
:105940002D2D2D0D0A0000003C200000253032785E
:1059500020000000203E0D0A000000000D0A6275C4
:1059600066206C656E677468203D20256420200DDC
:105970000A0000002DE9F843314D0027AC1D8DF8D9
:1059800000704FF0140855266846FFF75DF80128AF
:1059900004D00A2000F032F9BDE8F883287858B125
:1059A000142810D015281AD0162826D0E8780028F8
:1059B000EAD1EE702F70E7E79DF800000228E3D1EE
:1059C000A871012038E09DF80000032801D11521BD
:1059D0002970297908552879401C2871D4E729793C
:1059E000A81DFDF78DFB17490880010A6970A87092
:1059F000162028709DF80000EBE728799DF800102C
:105A00000F4A01552879121D401CC0B22871825CD2
:105A10006B789A420CD10A4AAB78521D825C9A424A
:105A200006D16871EE702F7007A0FAF72DFDABE775
:105A3000EE7001552879401C287185F80080A3E795
:105A4000B0010020380000204465616C205365726D
:105A500069616C2050617273652066696E69736854
:105A60000D0A000010B5ADF5127D4FF400716846C7
:105A7000FBF71CF81849C878552829D188790228DD
:105A800024D14A79C81C105C03281FD113480C1D6F
:105A90000088145D030AC0B29C4217D14B1DD35C31
:105AA000834213D16846C91D121FFAF75EFF69468B
:105AB0000BA0FAF7E9FC80A9684601F0A1FB28B920
:105AC0000DA0FFF701FF80A803F0C8F800F0AEFFBB
:105AD0000DF5127D10BD0000B0010020380000203F
